:020000040800F2
:10000000380B0020DD010008C91F0008991F0008F7
:10001000C51F00088D0300088125000800000000AE
:10002000000000000000000000000000E5230008C0
:10003000B503000800000000CD1F0008E9230008F8
:10004000F7010008F7010008F7010008F7010008B0
:10005000F7010008F7010008F7010008F7010008A0
:10006000F7010008F7010008F701000891030008F4
:100070009D030008F7010008F7010008F7010008D8
:10008000F7010008F7010008F7010008F701000870
:10009000F7010008F7010008F7010008F701000860
:1000A000F7010008F7010008F7010008F701000850
:1000B000F7010008F7010008F7010008F701000840
:1000C000F7010008F7010008F7010008F701000830
:1000D000F7010008F7010008F7010008F701000820
:1000E000F7010008F7010008F7010008F701000810
:1000F000F7010008F7010008F7010008F701000800
:10010000F7010008F7010008F7010008F7010008EF
:10011000F7010008F7010008F7010008F7010008DF
:10012000F7010008F7010008F7010008F7010008CF
:10013000F7010008F7010008A903000800F002F821
:1001400000F03CF80AA090E8000C82448344AAF135
:100150000107DA4501D100F031F8AFF2090EBAE833
:100160000F0013F0010F18BFFB1A43F001031847EB
:1001700080270000A0270000103A24BF78C878C16B
:10018000FAD8520724BF30C830C144BF04680C609D
:10019000704700000023002400250026103A28BFE5
:1001A00078C1FBD8520728BF30C148BF0B607047E9
:1001B0001FB502F050FB1FBD10B510BD00F058F880
:1001C0001146FFF7F5FF02F0DDF900F076F803B411
:1001D000FFF7F2FF03BC00F07DF8000009488047FC
:1001E00009480047FEE7FEE7FEE7FEE7FEE7FEE719
:1001F000FEE7FEE7FEE7FEE704480549054A064B31
:1002000070470000BD2400083D01000838050020AB
:10021000380B002038070020380700204FF000027C
:1002200000B5134694469646203922BFA0E80C50EC
:10023000A0E80C50B1F12001BFF4F7AF090728BFC7
:10024000A0E80C5048BF0CC05DF804EB890028BF43
:1002500040F8042B08BF704748BF20F8022B11F06C
:10026000804F18BF00F8012B7047704770477047E8
:10027000754600F02BF8AE4605006946534620F05F
:100280000700854618B020B5FFF7B6FFBDE820404F
:100290004FF000064FF000074FF000084FF0000B42
:1002A000AC46ACE8C009ACE8C009ACE8C009ACE8B1
:1002B000C00921F007018D46704710B50446AFF321
:1002C00000802046BDE81040FFF781BF004870471E
:1002D0003000002001491820ABBEFEE726000200D6
:1002E000704700002DE9F04381B00DF120099C46D4
:1002F00099E8C00340F29003C2F20003DDE90C4527
:10030000C3E902011A8087F001026046314600F01D
:1003100021FB142000F03CFA40464946012200F03F
:1003200019FB20462946012200F014FBC82000F0EA
:100330002FFA20462946002200F00CFB022000F094
:1003400027FA20462946012200F004FB022001B0D2
:10035000BDE8F04300F01CBAB0B540F29005C2F21F
:10036000000540F040002C4604F8020F00202A88C7
:10037000E870E86829711146002200F0EBFAA868DD
:1003800021460322BDE8B04001F032BDFEE7000087
:1003900040F21410C2F2000000F09CB840F2B40029
:1003A000C2F2000000F096B840F2B400C2F20000C1
:1003B00000F05EB870470000EFF3108072B600BF27
:1003C000FEE7000080B540F2A803C2F200035A7AAB
:1003D000002A1CBF012080BD93F809C0864600207A
:1003E00003F80C005A7A03EB8202C2F804E05A7A4E
:1003F0001A44107293F809C00CF101025A720CF100
:1004000030020A7042F63A72A1F80120C87080BD2D
:10041000B0B590F82520012A1CBF0120B0BD90F88E
:100420002420012A04BF0220B0BDD0F848C04FF6F6
:10043000FF52DCF80030CEF2000203EA020ECB6875
:100440000022CFF6F87202EBC342D1E900340D7AF4
:1004500043EA0E032343497A1A4342EA054242EA39
:100460004121CCF80010002180F824100846B0BDCE
:1004700010B50446C06C226D01680A4210D0A36C0E
:10048000D4F834C01968BCF1000F21F480711960F0
:100490004260E06B40F40070E06301D02046E0472A
:1004A000606DA8B1D4E916120B681A4208BF10BDDE
:1004B000036823F4807303604A60E06B40F480605B
:1004C000E063616B21B12046BDE81040084700BFE2
:1004D00010BD0000B0B5D0E910C30268DCF8001010
:1004E00003F01C030424D2F800E09C400C4218BF27
:1004F0001EF0040522D102249C400C4218BF1EF0BD
:10050000020529D1D940090724D51EF0080108BFEA
:10051000B0BD116821F00E011160012101FA03F252
:10052000CCF80420C16380F82510416B002280F8CC
:10053000242079B1BDE8B040084700BF11688906A2
:1005400003D4116821F004011160CCF80440016B60
:100550000029EFD1B0BD00BF1168890606D411682B
:1005600021F00A011160012180F82510CCF8044027
:10057000C16A0022002980F82420DBD1EAE70000CC
:100580002DE9F04F00284FF0010800F08B80002784
:10059000C4F2020702684FF6F83407F58169CBF61A
:1005A000FD744A4538BF04F580644CF6CD4E1444C2
:1005B000CCF6CC4EA4FB0E5102F0FC05A5F10805CB
:1005C00040F68406A5FB0E5AC4F2020607F58063C6
:1005D0006FF00304D0E9025CD0F810B03CBF0023F8
:1005E000C4F20203683E04EA91044A4538BF07F5A5
:1005F0000066C0E91034022380F82530136847F6FE
:10060000F077BB43D0E9057143EA0C0343EA0B03DF
:10061000D0E9079E3B43194341EA090140F6840CA7
:1006200041EA0E01C4F2020C29431160ACF104014D
:10063000C164CAF30411321908FA01F3B5F5804F09
:100640008264036506D1002141601160CCF800305E
:100650001AE000BF416801F03F04013903294FF05F
:1006600000011460CCF800300ED8621E0CEB82073B
:1006700047F87C1F02F0030101228A400CF1BC0301
:100680003946CCF8C02001E000230022C0E9151350
:100690004FF000080121C265C0F83C8080F82510A9
:1006A00080F824804046BDE8F08F00002DE9F0413D
:1006B00090F824C0BCF1010F43D04FF0010C80F83A
:1006C00024C090F825C0BCF1010F37D14FF0020CC7
:1006D00080F825C04FF0000CC0F83CC0D0F800C036
:1006E00000F14C0E9EE83040DCF80060BEF1000FD7
:1006F00026F00106CCF8006065601CBFD0E9164505
:100700006560D0E91076012506F01C068468B540C6
:10071000D0F830807D60CCF804300B46102C04BF3C
:1007200013460A46CCF80830CCF80C20DCF8001050
:10073000B8F1000F08D041F00E010DE0002180F863
:1007400024100220BDE8F08121F00401CCF8001053
:10075000DCF8001041F00A01CCF80010806C016850
:10076000C90303D5016841F480710160BEF1000F37
:1007700005D0DEF8000040F48070CEF80000DCF810
:10078000000040F00100CCF800000020BDE8F0813E
:10079000B0B5044600F0E4F8054640F20800C2F2A5
:1007A00000000078611C18BF044400BF00F0D8F8B6
:1007B000401BA042FAD3B0BD2DE9F04F81B00E68C6
:1007C000002E00F0BB8041F2000500F13843C4F672
:1007D000000507224FEAB327A84208BF0422042FCE
:1007E00038BF4FEAB322002300250024009209E01D
:1007F0000E68013436FA04F205F1040503F1020330
:1008000000F09C80012202FA04FA16EA0A0EEFD0E8
:10081000D1F80480032208F00309A9F1010702FAC4
:1008200003FB012F6FEA0B0C12D8D0F808B0CA688E
:100830000BEA0C0B9A4042EA0B028260426822EA01
:100840000A0AC8F30012A24042EA0A02426005E026
:10085000B9F1030F02D14FF0030922E0C2688F689B
:1008600002EA0C029F403A43B9F1020FC26018D16C
:100870006FF0030202EA54020244D2F8208005F02D
:100880001C070F26D1F810A006FA07F928EA090874
:100890000AFA07F747EA08071762D1F8048008F058
:1008A0000309026809FA03F702EA0C023A4318F452
:1008B000403F02609CD040F2080824F00302C4F2DA
:1008C000010852F808C005F00C070F26BE402CEABC
:1008D000060C009E06FA07F747EA0C0742F8087074
:1008E00040F60008C5F60008D8F800C04F684CEA8A
:1008F0000E06FA0258BF2CEA0E06C8F80060D8F8B7
:1009000004C0BA024CEA0E0658BF2CEA0E06C8F81C
:100910000460D8F880C0FA034CEA0E0658BF2CEAEF
:100920000E06C8F88060D8F88420BF0342EA0E069D
:1009300058BF22EA0E06C8F8846059E701B0BDE846
:10094000F08F0000426902EA0103914341EA03414A
:10095000816170471823002A08BF2823C1507047BF
:1009600040F23050C2F200000068704740F20800C8
:10097000C2F200004068704740F2080040F2305177
:10098000C2F20000C2F2000100780A681044086058
:100990007047000080B544F20000C5F60000016811
:1009A00041F480710160032000F072F80F2000F024
:1009B00009F800281CBF012080BD00F027F80020A6
:1009C00080BD000070B540F20806C2F20006317822
:1009D000D1B1044600F0C2FC31784FF47A72B2FB18
:1009E000F1F1B0FBF1F001F0C1FA0F2C4FF001056D
:1009F00008D838B94FF0FF3021460022002500F01A
:100A00001BF87460284670BD012070BD704700005F
:100A1000002848BF7047C1B200F01F00012202FA4F
:100A200000F04EF20012CEF2000242EAD10121F0B3
:100A3000030108607047000010B54EF60C5CCEF262
:100A4000000CDCF80030C3F3022E8EF00704042CF7
:100A500028BF0424BEF103034FF0FF3E0EFA04F456
:100A600038BF0023A14399400EFA03F39A43114380
:100A700000F00F0200F160430901043A03F56443FA
:100A80006244002848BF02F10C03197010BD000039
:100A90004EF60C51CEF200010A684FF6FF031A40E1
:100AA00060F30A2242F0806040F0FD7008607047F9
:100AB00001220168C0F8E822002280F8E022B1F8A3
:100AC000540040F00100A1F85400B1F8540040F087
:100AD00002020020A1F8542070470000F0B585B054
:100AE000002859D0054690F8A90228B9002085F8B9
:100AF000A802284600F054F8032085F8A9022868C7
:100B000001F01EFD696859B300204FF0010C00226E
:100B1000002300BF02EB820205EBC20484F82830F8
:100B20000133DAB2914284F829C084F82B00C4E979
:100B30000E002064EED800200023002203EB830384
:100B400005EBC30484F868210132D3B2994284F8DA
:100B5000690184F86B01C4E95E00C4F88001EDD836
:100B600005F1080E28689EE81C50D5E907678DE856
:100B70001050CDE9036701F0D5FC0020012185F874
:100B8000240085F8A912E969012903D12846FFF755
:100B90008FFF002005B0F0BD012005B0F0BD0000C2
:100BA00010B59AB00446684618303821FFF736FB76
:100BB000206846F60001C4F20001884202D01AB053
:100BC00010BD00BF4FF480700090182001904FF4CA
:100BD000003002904FF0007003904FF000500490EE
:100BE0004FF0807005904FF080600D90684600F0E7
:100BF00045F8002818BFFFF7DFFB4C24C5F60004BA
:100C0000206814A940F001002060206800F0010075
:100C1000149014984FF4C0501490022015900020A6
:100C2000CDE916000A2018904FF09040FFF7C4FD60
:100C3000E06840F08060E060E06800F0806019905B
:100C400019981AB010BD000040F20040C5F600002F
:100C5000006800F4C060704740F20040C5F6000034
:100C6000016841F480710160704700004FF0B040AE
:100C7000016841F004010160704700002DE9F04374
:100C800081B00446007888274006C5F6000717D5CE
:100C9000206B6FF0010101EBB05102290BD34FEA39
:100CA000B05100294CD0012960D157F87C1C41F487
:100CB000803147F87C1C396821F4400108433860D2
:100CC0004FF00009607800072AD5B868216C00F45D
:100CD00040758D4224D0FFF7BFFF002D4AD0B86881
:100CE000B96820F4407041F48031B960B96821F4EA
:100CF0008031B960216C0843B860B868C0070FD074
:100D0000FFF72EFE064641F2893500BFB86880071E
:100D100006D4FFF725FE801BA842F7D34FF0030946
:100D20002068C1072FD1810735D4C1063BD4810685
:100D300045D441074FD401075BD4C00567D4B6E062
:100D40004FF0B046306820F080603060FFF708FE5A
:100D5000054600BF3068000140F12C81FFF700FE1E
:100D6000401B0228F6D94FF00309ABE74FF0010909
:100D7000A8E700BF206CB96821F440710843B8604F
:100D80002068C107CFD0A1693A6822F0030211435D
:100D900039608107C9D5E1693A6822F4406211439C
:100DA0003960C106C3D5A16A3A684FF6FF7363EA9A
:100DB00001031A4042EA014139608106B9D5E16A6E
:100DC0003A684FF6FF7363EA01031A4042EA0141B1
:100DD00039604107AFD5216A3A686FF47F2363EA2F
:100DE00011131A4001F47F4142EA011139600107F1
:100DF000A3D5616A3A686FF47F2363EA11131A403E
:100E000001F47F4142EA01113960C0054FD5606BA2
:100E10003968B0F1806F21F0406141EA000139602A
:100E20000CD0B0F1006F42D157F87C0C40F08070CC
:100E300047F87C0C2068810560D53BE04FF0B04559
:100E4000286820F080602860FFF78AFD064600BF12
:100E50002868000106D5FFF783FD801B0228F7D91B
:100E600023E000BF57F8780C616820F4FE4040EAA8
:100E70000120E26847F8780C57F8780C4FF0B0453D
:100E800020F06060104347F8780C286840F08060DC
:100E90002860FFF765FD06462868000100F1B28072
:100EA000FFF75EFD801B0228F6D94FF0030920688A
:100EB000810523D5A16B6FF04042B1F1004F0DD0F9
:100EC00061B1B1F1804F0B4609D03A6821F08053EF
:100ED00022F040423A606FF0406200E00B463E680C
:100EE000B1F1C05F02EA060242EA03023A6005D1AC
:100EF00057F87C1C41F0807147F87C1C40054FD5A9
:100F0000E06B3968B0F1805F21F0405141EA0001A7
:100F100039600DD0B0F1005F42D157F87C0C40F43D
:100F2000803047F87C0C2068C10400F180803AE0F2
:100F30004FF0B045286820F080602860FFF710FD72
:100F4000064600BF2868000106D5FFF709FD801B93
:100F50000228F7D922E000BF57F8780C616820F426
:100F6000FE4040EA0120226947F8780C57F8780CD7
:100F70004FF0B04520F06040104347F8780C2868E7
:100F800040F080602860FFF7EBFC0646286800010F
:100F900044D4FFF7E5FC801B0228F7D94FF0030982
:100FA0002068C10443D4800449D4484601B0BDE858
:100FB000F08300BF57F8780CD4E9011220F4FE400A
:100FC00040EA012047F8780C57F8780C4FF0B04809
:100FD00020F47810104347F8780CD8F8000040F05F
:100FE0008060C8F80000FFF7BBFC06464FF003091D
:100FF000D8F80000000137D4FFF7B2FC801B0228AC
:10100000F6D95FE6606957F8781C084347F8780C12
:10101000206881057FF572AF4CE700BF606957F823
:10102000781C084347F8780C2068C104BBD5616C74
:10103000FA6822F440421143F9608004B5D5D4E93E
:10104000120157F8642C22F03002114347F8641C57
:1010500057F8641C21F00301084347F8640C484624
:1010600001B0BDE8F08300BF57F8781C6269206BBF
:10107000114347F8781C1EE62DE9F04381B00028A3
:1010800000F0CB8044F20008C5F600080546D8F809
:1010900000000C4600F00700884215D2D8F8000086
:1010A00020F007002043C8F80000FFF759FC06466F
:1010B000D8F8000000F00700A04205D0FFF750FC70
:1010C000801B0228F4D977E0286808278107C5F635
:1010D000000714D5A868396821F0F001084338608A
:1010E000FFF73EFC064600BF3868C00306D4FFF792
:1010F00037FC801B0228F7D95EE000BF2868810614
:1011000015D56869D7F8001121F0F0010843C7F838
:101110000001FFF725FC0646D7F80001800305D43F
:10112000FFF71EFC801B0228F6D945E0286841061F
:1011300017D5A869D7F8001121F00F0141EA101066
:10114000C7F80001FFF70CFC064600BFD7F8000106
:10115000C00305D4FFF704FC801B0228F6D92BE05E
:101160002868410713D5E868396821F4E06108432D
:101170003860FFF7F5FB06463868800306D4FFF7B2
:10118000EFFB801B0228F7D916E000BF2868010793
:1011900017D52869396821F4605141EAC0003860E8
:1011A000FFF7DEFB064600BF3868400308D4FFF7B0
:1011B000D7FB801B0228F7D9032001B0BDE8F083DC
:1011C0002868C0071ED1D8F8000000F00700A04230
:1011D00028D9D8F8000020F007002043C8F8000004
:1011E000FFF7BEFB054600BFD8F8000000F007007F
:1011F000A04217D0FFF7B4FB401B02284FF00300BA
:10120000F2D947E068684FF0B04138B3032845D0C1
:10121000022847D10968890323D4012001B0BDE821
:10122000F08300BF386800F00C0108293ED042F27C
:1012300000400429C0F2F40078D0002944D14FF0D6
:10124000B040006842F6B00100F0F000B02828BFBE
:10125000B0208008C0F60001085867E009688907D7
:10126000DBD5396821F0030108433860FFF778FBCC
:10127000064641F2883900BF3868696800F00C0002
:10128000B0EB810F9FD0FFF76BFB801B48454FF001
:101290000300F1D901B0BDE8F08300BF09688901FE
:1012A000BBD5DEE709684905B7D5DAE74FF0B040AE
:1012B0000068C00240F60010C0F23D005CBF41F281
:1012C0000020C0F27A0031E0796801F003010229C0
:1012D0001CD04FF0B04003290CD10068C00240F68A
:1012E0000010C0F23D005CBF41F20020C0F27A0065
:1012F0000CE000BF006842F6B00100F0F000B0283A
:1013000028BFB0208008C0F60001085879687A68C4
:10131000C1F306214843C2F302110131B0FBF1F0E1
:101320007968012202EB5171B0FBF1F039683C227F
:1013300002EA910142F67002C0F600025158B0FB79
:10134000F1F040F21401C2F200010860FFF70EFB59
:1013500001B0BDE8F043FFF735BB00000C20C5F637
:10136000000050F8041C01F00C02082A16D042F2CA
:101370000041042AC0F2F40150D0EAB94FF0B04164
:10138000096842F6B00201F0F001B02928BFB0218F
:101390008908C0F60002515840E000BF4FF0B0414C
:1013A0000968C90240F60011C0F23D015CBF41F27C
:1013B0000021C0F27A0131E0026802F00302022A41
:1013C0001CD04FF0B041032A0CD10968C90240F685
:1013D0000011C0F23D015CBF41F20021C0F27A0170
:1013E0000CE000BF096842F6B00201F0F001B0293C
:1013F00028BFB0218908C0F600025158026803686E
:10140000C2F306225143C3F302120132B1FBF2F1DF
:101410000268012303EB5272B1FBF2F150F8040CA5
:101420003C2202EA900042F67002C0F60002105818
:10143000B1FBF0F070470000F0B581B0002800F07B
:101440005B830446007894268006C5F6000659D4CE
:101450002078C00713D056F88C0C00F00C0156F819
:10146000880C082907D00C2940F0E08000F0030028
:10147000032840F0DB806068002800F03D8320787E
:1014800080071CD556F88C0C00F00C0156F8880C1F
:10149000042907D00C2940F0EB8000F0030002285B
:1014A00040F0E680E068002800F02683206956F8C6
:1014B000901C21F0FE4141EA006046F8900C216842
:1014C00011F0180F00F07C8162693068002A00F08A
:1014D0009B8011F0100140F0B58040F001003060B9
:1014E000FFF73EFA054600BF3068800700F126810D
:1014F000FFF736FA401B02284FF00300F4D901B081
:10150000F0BD00BF56F88C0C10F00C0156F8880C9A
:1015100005D00C292AD100F00300012826D1E0696A
:10152000002800F0E9824FF0B041606A0A6802F0DA
:10153000F002B02A28BFB022904231D900F048FD15
:10154000002840F0D9824FF0B042D4E90801136876
:1015500023F0F0031943116056F8901C21F47F41E9
:1015600041EA002046F8900C2DE000BFE1694FF001
:10157000B0473868002900F0958040F001003860DD
:10158000FFF7EEF9054600BF3868800700F1B0802C
:10159000FFF7E6F9401B02284FF00300F4D9AEE74D
:1015A0000A6822F0F00202430A60216A56F8902C81
:1015B00022F47F4242EA012146F8901C00F008FD27
:1015C000002840F0998256F88C0C00F00C01082994
:1015D00000F0048242F200400429C0F2F40000F05E
:1015E0007082002940F008824FF0B040006842F657
:1015F000B00100F0F000B02828BFB0208008C0F68D
:10160000000108585DE200BF20F004003060FFF7E1
:10161000A7F905463068000740F17C80FFF7A0F984
:10162000401B03284FF00300F4D968E761684FF0CE
:10163000B0400268B1F5803F40F0908042F48031C4
:10164000016091E080073FD4306840F001003060D5
:10165000FFF786F9054600BF3068800734D4FFF7EE
:101660007FF9401B02284FF00300F5D947E700BF80
:10167000E1684FF0B0473868002900F09D8140F4E0
:1016800080703860FFF76CF9054600BF3868400588
:101690003FF50CAFFFF764F9401B02284FF0030041
:1016A000F4D92CE720F001003860FFF759F905461E
:1016B000386880077FF5CCAEFFF752F9401B02284F
:1016C0004FF00300F4D91AE7306840F004003060AE
:1016D000FFF746F9054600BF3068000756D4FFF70C
:1016E0003FF9401B03284FF00300F5D907E700BF7F
:1016F0004FF0B042D4E90801136823F0F003194316
:10170000116056F8901C21F47F4141EA002046F810
:10171000900C9DE6306820F001003060FFF720F962
:10172000054600BF306880074AD5FFF719F9401B0E
:1017300002284FF00300F5D9E1E600BF306820F041
:1017400004003060306800073AD5FFF709F9401B04
:1017500003284FF00300F5D9D1E600BF22F4803210
:101760000029026000F05E81FFF7FAF805464FF0AD
:10177000B04700BF386880033FF581AEFFF7F0F84F
:10178000401B64284FF00300F4D9B8E6A069316823
:1017900021F4706141EA00203060306820F00100DF
:1017A0003060FFF7DDF805463068800708D5FFF7A1
:1017B000D7F8401B02284FF00300F5D99FE600BF81
:1017C0002078400752D42078400677D4E06A002879
:1017D00000F0C68156F88C2C56F8881C022802F0BE
:1017E0000C0040F08180226B01F00303934240F033
:1017F0009380626B01F07003934240F08D80A26B86
:10180000C1F30623934240F08780E26B01F4781322
:10181000934240F08180226C01F06063934240F07B
:101820007B80626C01F06041914275D14FF0B04510
:101830002868800100F19481286840F08070286059
:1018400056F8880C40F0805046F8880CFFF788F86E
:1018500004462868800100F18381FFF781F8001BAE
:1018600002284FF00300F4D949E600BFD6F86C0314
:10187000C00511D4FFF7F0F9FFF772F8054600BF75
:10188000D6F86C03C00507D4FFF76AF8401B02289E
:101890004FF00300F4D932E6A068012807D00528EC
:1018A00068D156F8040C40F0040046F8040C56F8D1
:1018B000040C40F0010046F8040C69E0A16A70686D
:1018C000002945D040F001007060FFF749F8054657
:1018D000706880073FF57AAFFFF742F8401B022897
:1018E0004FF00300F4D90AE60C2800F005814FF010
:1018F000B045286820F080702860FFF731F8044672
:101900002868800140F1B280FFF72AF8001B022806
:101910004FF00300F4D9F2E50C2800F0ED804FF011
:10192000B0473868400100F1E780386820F08070E7
:101930003860FFF715F805463868800140F1E0800F
:10194000FFF70EF8401B02284FF00300F4D9D6E54C
:1019500020F001007060FFF703F80546706880070B
:101960007FF534AFFEF7FCFF401B02284FF0030069
:10197000F4D9C4E556F8041C002821F0010146F80A
:10198000041C56F8041C21F0040146F8041C5BD02A
:10199000FEF7E6FF054641F2883700BF56F8040C13
:1019A00080073FF510AFFEF7DBFF401BB8424FF05A
:1019B0000300F3D9A3E500BF20F480703860FEF780
:1019C000CFFF0546386840057FF579ADFEF7C8FFC3
:1019D000401B02284FF00300F4D990E54FF0B040CF
:1019E0000068C00240F60010C0F23D005CBF41F24A
:1019F0000020C0F27A0064E056F8881C01F0030170
:101A000002294BD04FF0B04003293BD10068C002FF
:101A100040F60010C0F23D005CBF41F20020C0F271
:101A20007A003BE0FEF79CFF05464FF0B047386870
:101A300080037FF524ADFEF793FF401B64284FF031
:101A40000300F4D95BE500BFFEF78AFF054641F2CB
:101A5000883756F8040C80077FF5B5AEFEF780FF97
:101A6000401BB8424FF00300F3D948E556F8880C04
:101A70004FF6FC71CEF6FE61084046F8880C002057
:101A800001B0F0BD006842F6B00100F0F000B028EF
:101A900028BFB0208008C0F60001085856F8881CFE
:101AA00056F8882CC1F306214843C2F302110131D4
:101AB000B0FBF1F056F8881C012202EB5171B0FB2B
:101AC000F1F056F88C1C3C2202EA910142F67002B9
:101AD000C0F60002515840F21402B0FBF1F140F29E
:101AE0000C00C2F200000068C2F200021160FEF7B2
:101AF00069FF00283FF4ACAC012001B0F0BD00BF8D
:101B000056F8880C48F28C01C1F2C11104F130077B
:101B100008408ECFD4E910540843104340EA032014
:101B200038432843204346F8880C4FF0B0452868D6
:101B300040F08070286056F8880C40F0805046F8DD
:101B4000880CFEF70DFF04462868800108D4FEF7D4
:101B500007FF001B02284FF00300F5D9CFE400BFB8
:101B6000002001B0F0BD000070470000002804BF55
:101B700001207047B0B50446406A28B100202061BA
:101B800004F1140006E000BF6068B0F5827F03D066
:101B900004F11C00002101600025A56294F85D009D
:101BA00020B9204684F85C5000F04EF8022084F8FA
:101BB0005D002068D4F80CE00268BEF5E06F22F00A
:101BC000400202604EF4006298BF0125B2F5706FCA
:101BD0001CBF0023A3624FEA053CD4E90135D4E9D8
:101BE000042103F4827305F404452B4402F002023D
:101BF0001A44A36901F00101E569114403F400727C
:101C0000114405F03802256A114405F08002A56AE6
:101C1000114405F40052114301600421626A0EF47C
:101C2000706501EA1341636B45EA0C0502F010028E
:101C3000294303F0080311431943416000200121A7
:101C4000206684F85D10B0BD2DE9F0418AB00446ED
:101C5000006843F60001C4F2000100268842CDE985
:101C60000866CDE9066605967AD043F20001C4F213
:101C70000101884240F0B9804C20C5F6000041695E
:101C800040F2080841F4805141614169002601F4A5
:101C90008051019101990168C4F2020841F00201EA
:101CA0000160006805A900F0020001900198382049
:101CB0000590022006900520099040F60000C4F629
:101CC0000000A0F58060CDE90766FEF775FD40F2E3
:101CD0001415C2F2000507201021C5E9008005F1A6
:101CE00008008027C2C02846C5E90566C5E9076621
:101CF000FEF746FC002818BFFEF75EFB40F2B4007A
:101D000008F11401C2F200006565AC62062280E8A9
:101D10004600C0E90367C0E90566C0E90766FEF74B
:101D20002FFC002818BFFEF747FB0020CDE901007B
:101D30004FF4807040F2B405ADF80C000120C2F2FF
:101D40000005049001A92846FEF762FB002818BF91
:101D5000FEF732FBA565AC620AB0BDE8F08100BFBA
:101D60004C20C5F60000C16840F6000841F48041EF
:101D7000C160C168C4F6000801F480410191019975
:101D8000016805AD41F0040101600168022701F01E
:101D9000040101910199016841F0010101600068AD
:101DA000294600F001000190019803200990404667
:101DB000CDE90577CDE90766FEF7FEFC0420CDE905
:101DC0000507052440462946CDE907660994FEF734
:101DD000F3FC4FF40070CDE905074FF09040294621
:101DE000CDE907660994FEF7E7FC0AB0BDE8F0818B
:101DF00070B5044690F85C00012804BF022070BD55
:101E0000012084F85C0094F85D0001280AD10029C3
:101E10004FF0010018BF002A0AD1002184F85C109D
:101E200070BD00BF0220002184F85C1070BD00BFAF
:101E30000320002384F85D002366A163A287E28764
:101E40002364C4E91333A4F84430A4F84630A068EE
:101E50002268B0F5004F07D1106820F040001060F4
:101E6000106840F480401060606D42F2E50E42F26E
:101E7000ED0542F2C506C0F6000EC0F60005C0F63C
:101E80000006C0E90B5EC0E90D63D4F80CC05368CE
:101E9000BCF5E06F23F48043536015D88369B3F534
:101EA000806F11D1E68F5368F60705D123F4804384
:101EB0005360E38F5B0806E043F480435360E38F95
:101EC000012606EB5303E387E38F0C32FEF7EEFBAC
:101ED00050B1206E40F010002066012084F85D00B3
:101EE000002184F85C1070BD20680168490603D4A5
:101EF000016841F040010160416841F0200141600A
:101F0000416841F0020141600020002184F85C102A
:101F100070BD000040F26841C2F20001884211D059
:101F200040F2CC41C2F20001884218BF704740F233
:101F30000040C4F6000000F5806008210122FEF791
:101F400009BD00BF10B540F20044C4F6000404F51A
:101F5000006002210122FEF7FDFC20464021012203
:101F6000BDE81040FEF7F6BC70470000411E00209F
:101F7000B0EB116F1CBF012070474EF21002CEF281
:101F8000000251604EF62351CEF20001F0230B7097
:101F90000721906011607047FEE7000010B540F225
:101FA000A004C2F2000440F21800611CC2F200005A
:101FB000FEF708FA002811BF4FF0FF300120207013
:101FC000002010BDFEE70000FEE7000070470000A3
:101FD00070B53C2142F6B00201EA9001C0F6000261
:101FE0001144B02888BF02F12C01086840F20811A2
:101FF000C5F60001096842F6700201F00F01C0F653
:10200000000252F82110B0FBF1F4FEF71DFEB0F50E
:10201000007F19D14EF6C020C0F22110844227D390
:1020200049F24030C0F23420844223D343F6C0301A
:10203000C0F2473084421FD34DF23F20C0F2DF3060
:10204000844213D8032018E04CF6BF70C0F26A0037
:1020500084420DD945F64050C0F2C600844209D3EF
:1020600046F23F60C0F20310844205D9002507E024
:10207000002002E0012000E002200EA151F82050D3
:1020800044F20006C5F60006306820F00700284339
:102090003060FEF765FC0446306800F00700A84297
:1020A00006D0FEF75DFC001B0328F5D3032070BDAE
:1020B000002070BD000000000100000002000000D0
:1020C00003000000806A01684A6822F003024A6047
:1020D000016E41F010010166012180F85D10FFF7EB
:1020E00043BD0000806AFFF73FBF0000B0B582B07B
:1020F000846A0546FEF734FC2968096889063FD4DE
:1021000005462068642241682B4621F02001416089
:10211000416821F00201416020464FF4C05100F0B7
:1021200035F868B9204664212A4600F0F3F838B93A
:1021300020464FF4C06164222B4600F027F838B1E6
:10214000206E40F020002066206E40F020002066C7
:10215000A06838B9002001902068C16801918068AA
:10216000019001980020E087012084F85D00206E36
:1021700030B1204602B0BDE8B040FFF7F5BC00BF6B
:10218000204602B0BDE8B040FFF7C4BE2DE9F047DD
:1021900082B000261F4690460D4681468DF80360AA
:1021A000FEF7DEFB381A00EB0807FEF7D9FB40F21A
:1021B0001401C2F20001096823225143090DD9F824
:1021C000004079430191A168294271D0824618F1FB
:1021D000010037D0B5F5C06F1CD100BF207B8DF852
:1021E00003009DF80300FEF7BBFBA0EB0A00B8421A
:1021F00062D2019801990028A1F101010191D9F859
:102200000010896808BF074611F4C06FE6D10026A8
:102210004EE000BFFEF7A4FBA0EB0A00B8424BD291
:10222000019801990028A1F101010191D9F800104C
:10223000896808BF07462942ECD10026304602B023
:10224000BDE8F0870026B5F5C06F25D1207B8DF85D
:1022500003009DF80300A06810F4C06FEDD0207B50
:102260008DF803009DF80300A06810F4C06FE4D05F
:10227000207B8DF803009DF80300A06810F4C06F68
:10228000DBD0207B8DF803009DF80300A06810F4DC
:10229000C06FDBD10CE000BFA0682842CDD0A068A1
:1022A0002842CAD0A0682842C7D0A0682842F3D1EB
:1022B000304602B0BDE8F087D9E900014268B1F5C7
:1022C000827F22F0E00242600BD1D9F80810B1F50C
:1022D000004F02D0B1F5806F03D1016821F04001B9
:1022E0000160D9F82810B1F5005F07D1016821F429
:1022F00000510160016841F400510160012089F83A
:102300005D00002089F85C000326304602B0BDE87D
:10231000F0870000F0B581B015460E460446FEF782
:102320001FFB281A8719FEF71BFB40F21401C2F2AB
:1023300000010968C1F3CB317943009121688A68B3
:10234000120622D50546701C15D000BFFEF708FB0B
:10235000401BB8421CD2009800990028A1F101014D
:1023600000912168896808BF07460806EED40CE092
:102370008868000609D58868000606D588680006C2
:1023800044BF88685FEA0060F2D4002001B0F0BD6D
:10239000D4E900014268B1F5827F22F0E002426098
:1023A0000AD1A168B1F5004F02D0B1F5806F03D119
:1023B000016821F040010160A16AB1F5005F07D119
:1023C000016821F400510160016841F4005101608D
:1023D000012084F85D00002084F85C00032001B037
:1023E000F0BD000070470000FEF7C6BA10B59AB005
:1023F0000024CDE91144CDE90F44CDE90D44079403
:10240000CDE90544CDE90344CDE90144FEF724FCC0
:102410004FF6904040F20041CFF6FF70C5F6000144
:102420000A58022363F3C4020A500868012262F3C7
:102430004A200860086800F4C060009000982720D7
:1024400008904FF48030CDE909024FF480700B9072
:1024500040200C9060201190202016904FF4003006
:1024600017904FF0005019904FF00070189008A886
:102470000F921094CDE913321594FEF7DDFF28B1C9
:10248000EFF3108072B600BFFEE700BF6F2001902F
:102490000320CDE902048020CDE9060401A8032130
:1024A000CDE90444FEF7E8FD20B1EFF3108072B6E9
:1024B000FEE700BFFEF7DAFB1AB010BD4EF68850FB
:1024C000CEF2000001684FF4E02241F47001016097
:1024D0004FF0B04001684FF6FB6341F0010101602D
:1024E0009421C5F6000141F88C2C0268CFF6F62342
:1024F0001A4002600A6822F005020A604A6822F067
:1025000001024A6041F20002C2F2042241F8882C22
:1025100041F8842C026822F480220260002041F8F5
:102520007C0C704701460120A1F8400000220020E9
:10253000A1F84020A1F84420A1F8502070470000E5
:102540000146B0F8400044F27F0202400020A1F8AA
:102550004020704740F21000C2F2000001210170DB
:1025600000787047012070470020704740F210004B
:10257000C2F200000121017000787047002070470E
:10258000FEE700009CB0FEF705FAFFF72FFF07AC4F
:10259000201D4421FDF742FE4FF40050079010200B
:1025A00000261A9020461996FEF768FB20B1EFF33B
:1025B000108072B6FEE700BF4C250B96C5F60005ED
:1025C000286840F2004440F0040028602868C4F6FF
:1025D000000400F004001B901B98286804F5806A32
:1025E00040F002002860286843F2484100F00200F1
:1025F0001B901B982868002240F001002860286882
:1026000043F2484700F001001B901B98286840F0F7
:1026100008002860286800F008001B901B985046AE
:10262000FEF798F9204640F6C351002240F6C35BFE
:10263000FEF790F94FF0904040F21E410022FEF765
:1026400089F904F50068404603210022FEF782F96B
:10265000079707AF4FF0010950463946CDE9089674
:102660000A96FEF7A9F820463946CDE907B9CDE923
:102670000966FEF7A1F840F21E40CDE907094FF0C8
:1026800090403946CDE90966FEF796F84FF4805040
:10269000CDE90706204639460996FEF78DF84FF436
:1026A000006007904FF48810CDE90806504639467F
:1026B000FEF782F80320CDE9070943F600094046FA
:1026C0003946C4F20009CDE90966FEF775F855F8F8
:1026D000040C002140F0040045F8040C55F8040CEB
:1026E000002200F004000790079855F8040C40F011
:1026F000010045F8040C55F8040C00F001000790A7
:1027000007980B20FEF798F90B20FEF781F90C20B3
:1027100000210022FEF790F90C20FEF779F93E2007
:1027200000210022FEF788F93E20FEF771F940F201
:10273000684009F57841C2F200004FF482724FF40C
:10274000E0634FF40077082580E846000721C0E9E0
:102750000336C0E90567C561C0E90866C0E90A61DA
:10276000C0E90C65FFF702FA20B1EFF3108072B6F2
:10277000FEE700BF40F2741009F54051C2F20000BC
:102780000222C0E9001500258260C0E90425C0E9E5
:1027900006550562FEF7A2F920B1EFF3108072B67C
:1027A000FEE700BF40F2CC40C2F200004FF482715D
:1027B0004FF440724FF400730827C0E900910721DD
:1027C000C0E90252C0E90455C0E90637C0E908551E
:1027D000C0E90A51C0E90C57FFF7C8F920B1EFF37F
:1027E000108072B6FEE700BFFFF7D8FB20B1EFF311
:1027F000108072B6FEE700BF012000214FF4806216
:10280000CDE9028040F268404FF48057CDE90021C5
:10281000C2F20000414602225346CDF810A00597AF
:10282000FDF760FD20460121FEF78CF820460221CD
:10283000FEF788F81420F021FDF78EFD4FF4FA70B2
:10284000FDF7A6FF14200021FDF786FD4FF4FA7076
:10285000FDF79EFFE6E7F1EE100A4FF6FF71C0F2BA
:10286000C03120EA010040F04070E1EE100A7047EC
:10287000010000000300000005000000010000004E
:1028800001000000060000000A0000002000000017
:10289000020000000400000008000000100000001A
:1028A0004000000080000000000100000002000065
:1028B000A0860100400D0300801A060000350C00C0
:1028C00040420F0080841E0000093D0000127A0083
:1028D0000024F40000366E010048E801006CDC02C0
:1028E00000000000000000000000000000000000E8
:1028F00010290008080000202800000078010008C6
:102900003829000830000020080B0000940100085E
:1029100001000000100000000100000000093D005F
:10292000552500086D250008692500087D2500084B
:0829300065250008000000000D
:040000050800013DB1
:00000001FF
