:020000040800F2
:1000000060270020DD010008F931000855310008A3
:10001000F531000809050008695A000800000000D1
:100020000000000000000000000000007937000818
:10003000BD05000800000000FD3100087D37000804
:10004000F7010008F7010008F7010008F7010008B0
:10005000F7010008F7010008F7010008C9050008CA
:10006000F7010008F7010008F701000899050008EA
:10007000A5050008F7010008F7010008F7010008CE
:10008000F7010008F7010008F7010008F701000870
:10009000F9580008F7010008F7010008F701000807
:1000A000F7010008F7010008F7010008F701000850
:1000B000F7010008F7010008F7010008F701000840
:1000C000F7010008F7010008F7010008F701000830
:1000D000F7010008F7010008F7010008F701000820
:1000E000C1050008F7010008F7010008F701000842
:1000F000F7010008F7010008F7010008F701000800
:10010000F7010008F7010008F7010008F7010008EF
:10011000F7010008F7010008F7010008F7010008DF
:10012000F7010008F7010008F7010008F7010008CF
:10013000F7010008F7010008B105000800F002F817
:1001400000F03CF80AA090E8000C82448344AAF135
:100150000107DA4501D100F031F8AFF2090EBAE833
:100160000F0013F0010F18BFFB1A43F001031847EB
:10017000545C0000745C0000103A24BF78C878C159
:10018000FAD8520724BF30C830C144BF04680C609D
:10019000704700000023002400250026103A28BFE5
:1001A00078C1FBD8520728BF30C148BF0B607047E9
:1001B0001FB505F0BAFD1FBD10B510BD00F058F811
:1001C0001146FFF7F5FF05F051FC00F076F803B497
:1001D000FFF7F2FF03BC00F07DF8000009488047FC
:1001E00009480047FEE7FEE7FEE7FEE7FEE7FEE719
:1001F000FEE7FEE7FEE7FEE704480549054A064B31
:1002000070470000513800083D010008601D0020C3
:100210006027002060230020602300204FF00002B0
:1002200000B5134694469646203922BFA0E80C50EC
:10023000A0E80C50B1F12001BFF4F7AF090728BFC7
:10024000A0E80C5048BF0CC05DF804EB890028BF43
:1002500040F8042B08BF704748BF20F8022B11F06C
:10026000804F18BF00F8012B7047704770477047E8
:10027000754600F02BF8AE4605006946534620F05F
:100280000700854618B020B5FFF7B6FFBDE820404F
:100290004FF000064FF000074FF000084FF0000B42
:1002A000AC46ACE8C009ACE8C009ACE8C009ACE8B1
:1002B000C00921F007018D46704710B50446AFF321
:1002C00000802046BDE81040FFF781BF004870471E
:1002D0002001002001491820ABBEFEE726000200E5
:1002E000704700002DE9F04381B09C46DDE90863CA
:1002F00040F28017C2F20007DDE90C45DDE90A890A
:10030000C7E901103A8083F001026046314600F0EF
:100310004BFC142000F048FB4046494601220126D0
:1003200000F042FC20462946012200F03DFCC82096
:1003300000F03AFB20462946002200F035FC02205E
:1003400000F032FB20462946012200F02DFC02205D
:1003500000F02AFB11223C467868398804F80C2FFB
:10036000002200F021FCB8682146012202F0F2FDD3
:10037000E022786839884325BA730022258000F08E
:1003800013FCB8682146032202F0E4FD642000F06B
:100390000BFB41202080962278683988BA730022AE
:1003A00000F002FCB8682146032202F0D3FDC0220F
:1003B00078683988BA730022258000F0F5FBB868A8
:1003C0002146032202F0C6FD452020807868398846
:1003D0000022BE7300F0E8FBB8682146032202F059
:1003E000B9FD46202080786839880022BE7300F06D
:1003F000DBFBB8682146032202F0ACFD47202080D9
:10040000786839880022BE7300F0CEFBB8682146B8
:10041000032202F09FFD482020807868398800225E
:10042000BE7300F0C1FBB8682146032202F092FDC2
:1004300049202080786839880022BE7300F0B4FB20
:10044000B8682146032202F085FD4A2020807868A2
:1004500039880022BE7300F0A7FBB868214603224A
:1004600002F078FD4B202080786839880022BE7326
:1004700000F09AFBB8682146032202F06BFD4C2085
:100480002080786839880022BE7300F08DFBB86840
:100490002146032201B0BDE8F04302F05BBD00003D
:1004A000B0B540F28015C2F2000512202C4624F8A7
:1004B0000C0F002268682988AA73002200F074FBE0
:1004C000A8682C3521462A461D2302F05DFC2846EB
:1004D000B0BD0000B0B540F28015C2F2000540F09A
:1004E00040002C4604F80C0F00202A8868736868C6
:1004F000A9731146002200F057FBA8682146032289
:10050000BDE8B04002F026BDFEE7000000207047C5
:100510000020704710B541F20064C2F2000440F6BA
:10052000F451C2F200012046002203F0ABFC40F27D
:10053000F451C2F20001204603F096FC002010BDE9
:1005400010B541F20064C2F200040146204603F0F7
:100550008BFC204603F0ACFB002010BD0020704750
:1005600010B541F20062C2F20002D2F8BC22D2F809
:100570001432002B1CBF012010BD41F20064C2F2F6
:1005800000040A460146204603F07CFC2046BDE8F4
:10059000104003F007BD000041F63C10C2F200001D
:1005A00000F0A4B841F6DC00C2F2000000F09EB8F2
:1005B00041F6DC00C2F2000000F066B870470000AF
:1005C0004FF4006000F016BA022000F013BA0000E9
:1005D000EFF3108072B600BFFEE7000080B541F275
:1005E000F453C2F200035A7A002A1CBF012080BDD6
:1005F00093F809C08646002003F80C005A7A03EBF2
:100600008202C2F804E05A7A1A44107293F809C0C0
:100610000CF101025A720CF130020A7042F63A7281
:10062000A1F80120C87080BDB0B590F82520012A3E
:100630001CBF0120B0BD90F82420012A04BF022075
:10064000B0BDD0F848C04FF6FF52DCF80030CEF213
:10065000000203EA020ECB680022CFF6F87202EB2A
:10066000C342D1E900340D7A43EA0E032343497AA9
:100670001A4342EA054242EA4121CCF80010002127
:1006800080F824100846B0BD10B50446C06C226D39
:1006900001680A4210D0A36CD4F834C01968BCF1C8
:1006A000000F21F4807119604260E06B40F400702B
:1006B000E06301D02046E047606DA8B1D4E916128E
:1006C0000B681A4208BF10BD036823F480730360EF
:1006D0004A60E06B40F48060E063616B21B12046CA
:1006E000BDE81040084700BF10BD0000B0B5D0E91C
:1006F00010C30268DCF8001003F01C030424D2F8D5
:1007000000E09C400C4218BF1EF0040522D10224D8
:100710009C400C4218BF1EF0020529D1D9400907A0
:1007200024D51EF0080108BFB0BD116821F00E01EC
:100730001160012101FA03F2CCF80420C16380F8B2
:100740002510416B002280F8242079B1BDE8B0402B
:10075000084700BF1168890603D4116821F004011D
:100760001160CCF80440016B0029EFD1B0BD00BF8F
:100770001168890606D4116821F00A01116001216F
:1007800080F82510CCF80440C16A0022002980F8C6
:100790002420DBD1EAE700002DE9F04F00284FF0DC
:1007A000010800F08B800027C4F2020702684FF6B0
:1007B000F83407F58169CBF6FD744A4538BF04F576
:1007C00080644CF6CD4E1444CCF6CC4EA4FB0E51B6
:1007D00002F0FC05A5F1080540F68406A5FB0E5ABB
:1007E000C4F2020607F580636FF00304D0E9025CEF
:1007F000D0F810B03CBF0023C4F20203683E04EA04
:1008000091044A4538BF07F50066C0E91034022359
:1008100080F82530136847F6F077BB43D0E90571BF
:1008200043EA0C0343EA0B03D0E9079E3B43194319
:1008300041EA090140F6840C41EA0E01C4F2020CBF
:1008400029431160ACF10401C164CAF304113219E7
:1008500008FA01F3B5F5804F8264036506D10021E3
:1008600041601160CCF800301AE000BF416801F02F
:100870003F04013903294FF000011460CCF8003027
:100880000ED8621E0CEB820747F87C1F02F00301B2
:1008900001228A400CF1BC033946CCF8C02001E0AB
:1008A00000230022C0E915134FF000080121C265A2
:1008B000C0F83C8080F8251080F824804046BDE8D0
:1008C000F08F00002DE9F04190F824C0BCF1010F39
:1008D00043D04FF0010C80F824C090F825C0BCF143
:1008E000010F37D14FF0020C80F825C04FF0000CFB
:1008F000C0F83CC0D0F800C000F14C0E9EE830407B
:10090000DCF80060BEF1000F26F00106CCF80060B4
:1009100065601CBFD0E916456560D0E910760125F9
:1009200006F01C068468B540D0F830807D60CCF8B5
:1009300004300B46102C04BF13460A46CCF808308E
:10094000CCF80C20DCF80010B8F1000F08D041F012
:100950000E010DE0002180F824100220BDE8F08196
:1009600021F00401CCF80010DCF8001041F00A017D
:10097000CCF80010806C0168C90303D5016841F40C
:1009800080710160BEF1000F05D0DEF8000040F478
:100990008070CEF80000DCF8000040F00100CCF8D8
:1009A00000000020BDE8F081B0B5044600F002F977
:1009B000054640F20800C2F200000078611C18BF32
:1009C000044400BF00F0F6F8401BA042FAD3B0BDCB
:1009D00002280BD0B0F5006F18BF704780B5FFF745
:1009E0005FFD2021BDE88040FFF7BABD1420F02153
:1009F000FFF770BD40F60C01C5F600010A6802421F
:100A000014BF08607047FFF7E3BF00002DE9F04F07
:100A100081B00E68002E00F0BB8041F2000500F1AD
:100A20003843C4F6000507224FEAB327A84208BF9F
:100A30000422042F38BF4FEAB322002300250024EC
:100A4000009209E00E68013436FA04F205F104055B
:100A500003F1020300F09C80012202FA04FA16EA74
:100A60000A0EEFD0D1F80480032208F00309A9F19F
:100A7000010702FA03FB012F6FEA0B0C12D8D0F822
:100A800008B0CA680BEA0C0B9A4042EA0B0282607B
:100A9000426822EA0A0AC8F30012A24042EA0A02A5
:100AA000426005E0B9F1030F02D14FF0030922E0E3
:100AB000C2688F6802EA0C029F403A43B9F1020F04
:100AC000C26018D16FF0030202EA54020244D2F865
:100AD000208005F01C070F26D1F810A006FA07F9B0
:100AE00028EA09080AFA07F747EA08071762D1F85F
:100AF000048008F00309026809FA03F702EA0C020D
:100B00003A4318F4403F02609CD040F2080824F0B9
:100B10000302C4F2010852F808C005F00C070F26C2
:100B2000BE402CEA060C009E06FA07F747EA0C07BF
:100B300042F8087040F60008C5F60008D8F800C072
:100B40004F684CEA0E06FA0258BF2CEA0E06C8F8A7
:100B50000060D8F804C0BA024CEA0E0658BF2CEA6E
:100B60000E06C8F80460D8F880C0FA034CEA0E06F6
:100B700058BF2CEA0E06C8F88060D8F88420BF035E
:100B800042EA0E0658BF22EA0E06C8F8846059E70A
:100B900001B0BDE8F08F0000426902EA0103914311
:100BA00041EA0341816170471823002A08BF2823C6
:100BB000C150704741F65850C2F2000000687047BB
:100BC00040F20800C2F200004068704740F208009E
:100BD00041F65851C2F20000C2F2000100780A68E2
:100BE000104408607047000080B544F20000C5F66C
:100BF0000000016841F480710160032000F072F888
:100C00000F2000F009F800281CBF012080BD00F073
:100C100027F8002080BD000070B540F20806C2F23F
:100C200000063178D1B1044601F060FB31784FF411
:100C30007A72B2FBF1F1B0FBF1F002F075FA0F2C11
:100C40004FF0010508D838B94FF0FF302146002297
:100C5000002500F01BF87460284670BD012070BDAF
:100C600070470000002848BF7047C1B200F01F0065
:100C7000012202FA00F04EF20012CEF2000242EA25
:100C8000D10121F0030108607047000010B54EF655
:100C90000C5CCEF2000CDCF80030C3F3022E8EF0B8
:100CA0000704042C28BF0424BEF103034FF0FF3EC9
:100CB0000EFA04F438BF0023A14399400EFA03F35F
:100CC0009A43114300F00F0200F160430901043A16
:100CD00003F564436244002848BF02F10C03197015
:100CE00010BD00004EF60C51CEF200010A684FF61E
:100CF000FF031A4060F30A2242F0806040F0FD706A
:100D00000860704701220168C0F8E822002280F8DC
:100D1000E022B1F8540040F00100A1F85400B1F80D
:100D2000540040F002020020A1F854207047000057
:100D300010B50129044613D011BBA06948B102F0D7
:100D40001FFD4EF61050CEF20000016821F00601A2
:100D50000160D4F8F002BDE8104003F0D9BB00BF39
:100D6000D4F8F00203F058FCA069002808BF10BDB9
:100D70004EF61050CEF20000016841F0060101600D
:100D800010BD000080B501F0070C0CEB8C0C00EBE3
:100D9000CC0C01EB810E0CF1280C00EBCE00090607
:100DA00058BF00F5B47C0020002A19BFCCF80830E9
:100DB0000121ACF8063000218CF80C1080BD000039
:100DC00001EB8102D0F8F03200EBC200C26B184692
:100DD00003F04EBA01EB8102D0F8F03200EBC20012
:100DE000D0F87C21184603F09FBA000010B50446E5
:100DF00048B2B0F1FF3F01F0070000EB800104EBC7
:100E0000C10205DD02F5B471002382F8693104E006
:100E1000012302F1280182F8293094F8A8220870F1
:100E2000012A04BF022010BD2068012284F8A822F4
:100E300004F03CF8002084F8A80210BDB0B50446C8
:100E4000406801F00F02824284BF0120B0BD48B269
:100E5000B0F1FF3F01F0070000EB800104EBC1029D
:100E600006DD02F5B471002382F8693105E000BFA8
:100E7000012302F1280182F8293094F8A8220025E4
:100E8000012A8D70087004BF0220B0BD20680122C5
:100E900084F8A82204F09EF8284684F8A852B0BD31
:100EA00001F0070101EB810100EBC100D0F88401E2
:100EB0007047000070B5064648B2B0F1FF3F01F040
:100EC000070000EB800107DD06EBC10404F5B471F7
:100ED000002584F8695106E006EBC10C01240CF1F1
:100EE00028018CF8294008700A61022BCB7004BFDE
:100EF0000020087196F8A802012804BF022070BDE6
:100F00003068012286F8A82203F0AAFE002086F8A5
:100F1000A80270BD10B501F0070C0CEB8C0100EBC2
:100F2000C10E00680EF5B4710024CEF87C21CEF815
:100F30008031CEF884418EF869418EF868C104F0A2
:100F4000A1F8002010BD000010B54268044601F071
:100F50000700904284BF012010BD4AB2B2F1FF3FAA
:100F60000ADD01EB810104EBC10202F5B47100233B
:100F700082F8693109E000BF00EB800104EBC10297
:100F8000012302F1280182F8293094F8A8320122C5
:100F9000012B8A70087004BF022010BD206884F8FD
:100FA000A82204F055F8002084F8A80210BD000023
:100FB00080B501F0070C0CEB8C0100EBC10101F8CE
:100FC00028CF00684FF0010C01F1140781F824C00C
:100FD0004FF0000E87E80C400B6281F801C004F06E
:100FE00051F8002080BD00002DE9F04F81B004468B
:100FF000006804F087FC010420D4410500F1068458
:10100000410400F11584810400F12C84C10400F135
:101010003384010500F15684010600F169848105DD
:1010200000F17684C00540F1FF832068B0F84410D9
:1010300021F48071A0F8441000F0F6BB2068B0F9EC
:101040004410B1F1FF3F00F3EF8304F52C7140F63B
:101050000F7B009123E000BFB0F8501094F8682196
:10106000014401EBC201B1F80634B4F86E210099D5
:101070006FF39F23C4F8843104F048FC2068018892
:1010800001EA0B0180310180204600F069FD00BFBC
:101090002068B0F94410B1F1FF3F00F3C583B0F808
:1010A000442012F00F090DD030F929104FEA490AF7
:1010B000B1F1FF3F1FFA81F832DD5FEA0860E7D542
:1010C00064E100BF0188D2066ED401EA0B0101F58C
:1010D00000410180B0F8501094F82820084400EB3B
:1010E000C200B0F80204E16B6FF39F206064084413
:1010F000E06320460021FFF763FE94F824000028F7
:10110000C6D0206C0028C3D194F82400216840F098
:101110008000C0B2A1F84C00002084F82400B7E79A
:1011200030F81A1040F60F7C01EA0B01803120F8EC
:101130001A1009EB890104EBC10B9BF874110BF534
:10114000B476002900F082809BF86B11022940F0F0
:101150008F80B0F850703178DBF8803107440BF5A0
:10116000C0725FEA484507EBC10700F19B80B7F802
:10117000067400256FF39F27DB1B38BF2B461360D7
:1011800040F2A6805FEA486200F1B28030F8212088
:1011900048F2C00302EA0C021A4320F82120002F73
:1011A00040F0A780CCE000BF0A053FF555AF09B27B
:1011B000B1F1FF3F3FF76CAF018801EA0B018031CD
:1011C0000180B0F8501094F86821014401EBC2018D
:1011D000B1F806346FF39F23C4F8843193B1D4F887
:1011E0007C1179B1B4F86E2104F090FBD4F87C0145
:1011F000D4F884110844C4F87C0120460021FFF78C
:10120000E9FD206801880A053FF542AF01F440512D
:10121000B1F5405F3FF43CAFB0F8501000F2064229
:10122000535A6FF39F235352D4F878313F2BC0F0B9
:101230000D82DE068E5A4FEA53174FF0FF3508BF76
:1012400005EB531746EA872385E200BFB0F850103C
:101250003278014401EBC201B1F806746FF39F27A5
:10126000002F6DD0DBF87C11BBF86E2163E000BF6E
:10127000327848F2C00330F8221001EA0C01194319
:1012800020F8221030F82230B0F8501000EBC202E3
:101290005B04114416D4B1F806746FF39F2747BB63
:1012A0004EE000BFB7F8027400256FF39F27DB1BE9
:1012B00038BF2B46136021D95FEA48622DD4B7BBF3
:1012C0003EE000BFB1F802746FF39F277FBB37E0A9
:1012D00030F8212043F60F731A404CF28003A3F537
:1012E00000535A4020F821205FEA48627FF54EAF54
:1012F00037B3DBF87C11BBF872211CE030F82120F9
:1013000043F60F731A404CF28003A3F500535A4082
:1013100020F821205FEA4862D1D530F8212048F238
:10132000C00302EA0C021A4320F8212047B1DBF87F
:101330007C11BBF870213B4604F0E8FA01E000BFE5
:101340000027DBF88411DBE95F0239443844CBF82D
:101350008411CBF87C011AB1DBF87801B8420BD9C3
:1013600031782046FFF736FD40F60F7B5FEA0860D4
:101370007FF58EAE0AE000BF2068314603F082FEA2
:1013800040F60F7B5FEA08607FF582AE206809EBCC
:10139000890130F81A2004EBC10502EA0B0101F5BE
:1013A000004120F81A1095F82B1005F128090129A1
:1013B00026D195F8341000294FF00001296400F07F
:1013C0003F815FEA486100F18B8095F8291001297F
:1013D00000F02081002940F03381B0F8501099F8D6
:1013E0000020084400EBC200B0F806146FF39F2100
:1013F000A0F80614B0F8061441F4004112E100BF51
:101400005FEAC8511ED4B0F8502099F80010024489
:1014100002EBC102B2F802242B6C6FF39F229B1ADD
:101420004FF0000738BF3B462B6440F20B81E96B5D
:101430006B6C1144E96399186964494603F022FE14
:1014400026E600BFB0F8507099F800102A4652F80E
:10145000406F5FEA486300EBC10C5BD40CF2064EB0
:101460003EF8077000236FF39F27F61B38BF1E4618
:10147000166040F287805FEA484208D430F82120A5
:101480004CF2800302EA0B021A4320F821202A467C
:1014900012F84C1F012940F0A8812B4653F8488FC1
:1014A00053E904C153F8046C39443E44E04543F821
:1014B0000C1C43F8046C80F00581B8F1000F00F0BB
:1014C00061810027C4461F60177095F82920012A02
:1014D00040F00081B0F850202EF802C078E100BF43
:1014E00095F82910012900F0A180002940F0A8807A
:1014F000B0F8501099F80020084400EBC200B0F892
:1015000002146FF39F21A0F80214B0F8021441F402
:10151000004193E00CF2024E3EF8077000236FF397
:101520009F27F61B38BF1E4616604FD95FEA484218
:1015300008D530F821204CF2800302EA0B021A434E
:1015400020F821202B4613F84C1F012940F04D8133
:101550002A4652F848CF52E9046152F8048C3944C3
:10156000B844B44542F80C1C42F8048C80F0CE809C
:101570004FF00008BCF1000F83F8008040F0C980F4
:10158000BC46C8E095F82920012A6BD0002A73D107
:10159000B0F850206244B2F802346FF39F23A2F8EF
:1015A0000234B2F8023443F40043A2F80234B0F833
:1015B00050003EF800206FF39F222EF800203EF8E6
:1015C000002042F400422EF8002055E095F8292032
:1015D000012A59D0002A61D1B0F850203EF802709B
:1015E0006FF39F272EF802703EF8027047F4004711
:1015F0002EF80270B0F850006044B0F806246FF383
:101600009F22A0F80624B0F8062442F40042A0F875
:10161000062443E0B0F8501099F80020084400EB8D
:10162000C2000021A0F806140AE000BFB0F8501074
:1016300099F80020084400EBC2000021A0F8021431
:1016400099F800102046FFF7BBFB21E5002B00F0C6
:10165000818003F001078E5A07EB530346EA832388
:101660007EE000BFB0F8502000236244A2F80234AC
:10167000B0F850002EF800302046FFF7A1FB5FEADB
:10168000484012D5B1E000BFB0F8502000232EF83A
:101690000230B0F850006044A0F806342046FFF74E
:1016A0008FFB5FEA484040F1A080206899F8001065
:1016B0004CF2800330F8212002EA0B021A4320F892
:1016C000212092E0A8EB0C021A6095F82920012A4B
:1016D0003FF400AF002A40F07B80B0F85070BCF1BE
:1016E0003F0F3EF807206FF39F222EF8072051D3BB
:1016F0005FEACC634FEA5C1237F80E304FF0FF36EA
:1017000008BF06EB5C1243EA82225DE0ACEB060800
:10171000B446C2F8008095F82920012A2CD0002A6E
:101720005ED1B0F85070BCF13F0F3EF807206FF368
:101730009F222EF8072039D35FEACC634FEA5C1270
:1017400037F80E304FF0FF3608BF06EB5C1243EA65
:10175000822241E08B5A48F20007CFF6FF773B43E5
:101760008B52018843F60F7211404CF28002A2F5B1
:101770008052514001808BE4B0F850202EF802C016
:101780002EE000BF00231370BC4695F82920012AE3
:10179000A0D19FE6BCF1000F14D00CF0010237F885
:1017A0000E3002EB5C0243EA82220FE0BCF1000F34
:1017B00010D00CF0010237F80E3002EB5C0243EA65
:1017C00082220BE037F80E2042F4004227F80E2068
:1017D0006A8E06E037F80E2042F4004227F80E2009
:1017E0002A8E1FFA8CF304F0E7F8206899F80010AD
:1017F00040F63F7330F821201A4048F2C003103BF6
:101800005A4020F82120FFF743BC00BF2068B0F801
:10181000441021F48061A0F84410204600F062F9E1
:1018200094F8A80201280DD101B0BDE8F08F00BFE7
:101830002068B0F8441021F48041A0F8441001B0B1
:10184000BDE8F08F0120002584F8A80284F8245018
:101850002068002104F0A8F884F8A85201B0BDE87F
:10186000F08F00BF2068B0F8441021F40051A0F8B8
:10187000441001B0BDE8F08F2068B0F8401021F0AE
:101880000401A0F84010B0F8401021F00801A0F8C1
:10189000401094F8E002012806D1002084F8E0020C
:1018A00020460021FFF744FA204600F02DF9206879
:1018B000B0F8441021F48051A0F8441001B0BDE804
:1018C000F08F00BF2168B1F8400040F00800A1F897
:1018D0004000B1F8440020F40060A1F84400B1F8E1
:1018E000400040F004022046A1F840200BE000BF79
:1018F0002068B0F8441021F08001A0F8441094F85A
:10190000E01299B1204601B0BDE8F04F00F046B9B1
:101910002168B1F8440020F400722046A1F8442068
:1019200001B0BDE8F04F00F003B900BFB0F84010BF
:1019300041F00401A0F84010B0F8401041F0080157
:10194000A0F84010012184F8E012B0F854003C21C6
:1019500001EA900220460121C4F8E42201B0BDE86A
:10196000F04FFFF7E5B90000F0B585B0002859D079
:10197000054690F8A90228B9002085F8A802284653
:1019800000F054F8032085F8A902286803F018FB3A
:10199000696859B300204FF0010C0022002300BFFA
:1019A00002EB820205EBC20484F828300133DAB27C
:1019B000914284F829C084F82B00C4E90E00206409
:1019C000EED800200023002203EB830305EBC304C1
:1019D00084F868210132D3B2994284F8690184F80D
:1019E0006B01C4E95E00C4F88001EDD805F1080E72
:1019F00028689EE81C50D5E907678DE81050CDE9AE
:101A0000036703F0CFFA0020012185F8240085F850
:101A1000A912E969012903D12846FFF773F90020CB
:101A200005B0F0BD012005B0F0BD000010B59AB0C2
:101A30000446684618303821FEF7F0FB206846F669
:101A40000001C4F20001884202D01AB010BD00BFEC
:101A50004FF480700090182001904FF400300290F5
:101A60004FF0007003904FF0005004904FF08070E2
:101A700005904FF080600D90684600F0C7F8002890
:101A800018BFFEF7A5FD4C24C5F60004206814A974
:101A900040F001002060206800F0010014901498CC
:101AA0004FF4C0501490022015900020CDE916008C
:101AB0000A2018904FF09040FEF7A8FFE068002140
:101AC00040F08060E060E068002200F080601990E3
:101AD00019981420FFF7DAF81420FFF7C3F81AB0AA
:101AE00010BD000010B504468068022818BFFEF73C
:101AF0006FFDD4F8F002012102F022FDD4F8F002CB
:101B0000BDE8104002F0D0BC10B50446806948B171
:101B10004EF61050CEF20000016821F0060101607F
:101B200001F02EFED4F8F002BDE8104002F0F0BC47
:101B3000D0F8F00202F0F6BC10B5044690F8A80206
:101B4000012804BF022010BD012084F8A80284F8F7
:101B50002410206803F028FF002084F8A80210BD9C
:101B6000D0F8F02200F52C71104602F0FFBC000006
:101B700010B5044690F8A802012804BF022010BD49
:101B80002068012184F8A81203F0ACFE206803F05D
:101B9000FFF9002084F8A80210BD000010B504462B
:101BA000D0F8F00202F038FDA069002808BF10BD8F
:101BB0004EF61050CEF20000016841F006010160BF
:101BC00010BD000040F20440C5F60000016841F479
:101BD000806101607047000040F20040C5F60000DF
:101BE000006800F4C060704740F20040C5F6000095
:101BF000016841F480710160704700004FF0B0400F
:101C0000016841F004010160704700002DE9F043D4
:101C100081B00446007888274006C5F6000717D52E
:101C2000206B6FF0010101EBB05102290BD34FEA99
:101C3000B05100294CD0012960D157F87C1C41F4E7
:101C4000803147F87C1C396821F440010843386032
:101C50004FF00009607800072AD5B868216C00F4BD
:101C600040758D4224D0FFF7BFFF002D4AD0B868E1
:101C7000B96820F4407041F48031B960B96821F44A
:101C80008031B960216C0843B860B868C0070FD0D4
:101C9000FEF790FF064641F2893500BFB86880071D
:101CA00006D4FEF787FF801BA842F7D34FF0030945
:101CB0002068C1072FD1810735D4C1063BD48106E6
:101CC00045D441074FD401075BD4C00567D4B6E0C3
:101CD0004FF0B046306820F080603060FEF76AFF59
:101CE000054600BF3068000140F12C81FEF762FF1D
:101CF000401B0228F6D94FF00309ABE74FF001096A
:101D0000A8E700BF206CB96821F440710843B860AF
:101D10002068C107CFD0A1693A6822F003021143BD
:101D200039608107C9D5E1693A6822F440621143FC
:101D30003960C106C3D5A16A3A684FF6FF7363EAFA
:101D400001031A4042EA014139608106B9D5E16ACE
:101D50003A684FF6FF7363EA01031A4042EA014111
:101D600039604107AFD5216A3A686FF47F2363EA8F
:101D700011131A4001F47F4142EA01113960010751
:101D8000A3D5616A3A686FF47F2363EA11131A409E
:101D900001F47F4142EA01113960C0054FD5606B03
:101DA0003968B0F1806F21F0406141EA000139608B
:101DB0000CD0B0F1006F42D157F87C0C40F080702D
:101DC00047F87C0C2068810560D53BE04FF0B045BA
:101DD000286820F080602860FEF7ECFE064600BF11
:101DE0002868000106D5FEF7E5FE801B0228F7D91A
:101DF00023E000BF57F8780C616820F4FE4040EA09
:101E00000120E26847F8780C57F8780C4FF0B0459D
:101E100020F06060104347F8780C286840F080603C
:101E20002860FEF7C7FE06462868000100F1B28070
:101E3000FEF7C0FE801B0228F6D94FF00309206888
:101E4000810523D5A16B6FF04042B1F1004F0DD059
:101E500061B1B1F1804F0B4609D03A6821F080534F
:101E600022F040423A606FF0406200E00B463E686C
:101E7000B1F1C05F02EA060242EA03023A6005D10C
:101E800057F87C1C41F0807147F87C1C40054FD509
:101E9000E06B3968B0F1805F21F0405141EA000108
:101EA00039600DD0B0F1005F42D157F87C0C40F49E
:101EB000803047F87C0C2068C10400F180803AE053
:101EC0004FF0B045286820F080602860FEF772FE71
:101ED000064600BF2868000106D5FEF76BFE801B92
:101EE0000228F7D922E000BF57F8780C616820F487
:101EF000FE4040EA0120226947F8780C57F8780C38
:101F00004FF0B04520F06040104347F8780C286847
:101F100040F080602860FEF74DFE0646286800010C
:101F200044D4FEF747FE801B0228F7D94FF003097F
:101F30002068C10443D4800449D4484601B0BDE8B8
:101F4000F08300BF57F8780CD4E9011220F4FE406A
:101F500040EA012047F8780C57F8780C4FF0B04869
:101F600020F47810104347F8780CD8F8000040F0BF
:101F70008060C8F80000FEF71DFE06464FF003091A
:101F8000D8F80000000137D4FEF714FE801B0228A9
:101F9000F6D95FE6606957F8781C084347F8780C73
:101FA000206881057FF572AF4CE700BF606957F884
:101FB000781C084347F8780C2068C104BBD5616CD5
:101FC000FA6822F440421143F9608004B5D5D4E99F
:101FD000120157F8642C22F03002114347F8641CB8
:101FE00057F8641C21F00301084347F8640C484685
:101FF00001B0BDE8F08300BF57F8781C6269206B20
:10200000114347F8781C1EE62DE9F04381B0002803
:1020100000F0CB8044F20008C5F600080546D8F869
:1020200000000C4600F00700884215D2D8F80000E6
:1020300020F007002043C8F80000FEF7BBFD06466D
:10204000D8F8000000F00700A04205D0FEF7B2FD6E
:10205000801B0228F4D977E0286808278107C5F695
:10206000000714D5A868396821F0F00108433860EA
:10207000FEF7A0FD064600BF3868C00306D4FEF791
:1020800099FD801B0228F7D95EE000BF2868810611
:1020900015D56869D7F8001121F0F0010843C7F899
:1020A0000001FEF787FD0646D7F80001800305D43E
:1020B000FEF780FD801B0228F6D945E0286841061E
:1020C00017D5A869D7F8001121F00F0141EA1010C7
:1020D000C7F80001FEF76EFD064600BFD7F8000105
:1020E000C00305D4FEF766FD801B0228F6D92BE05D
:1020F0002868410713D5E868396821F4E06108438E
:102100003860FEF757FD06463868800306D4FEF7B0
:1021100051FD801B0228F7D916E000BF286801078F
:1021200017D52869396821F4605141EAC000386048
:10213000FEF740FD064600BF3868400308D4FEF7AE
:1021400039FD801B0228F7D9032001B0BDE8F083D8
:102150002868C0071ED1D8F8000000F00700A04290
:1021600028D9D8F8000020F007002043C8F8000064
:10217000FEF720FD054600BFD8F8000000F007007C
:10218000A04217D0FEF716FD401B02284FF00300B7
:10219000F2D947E068684FF0B04138B3032845D022
:1021A000022847D10968890323D4012001B0BDE882
:1021B000F08300BF386800F00C0108293ED042F2DD
:1021C00000400429C0F2F40078D0002944D14FF037
:1021D000B040006845F6845100F0F000B02828BFF8
:1021E000B0208008C0F60001085867E00968890738
:1021F000DBD5396821F0030108433860FEF7DAFCCB
:10220000064641F2883900BF3868696800F00C0062
:10221000B0EB810F9FD0FEF7CDFC801B48454FF0FF
:102220000300F1D901B0BDE8F08300BF096889015E
:10223000BBD5DEE709684905B7D5DAE74FF0B0400E
:102240000068C00240F60010C0F23D005CBF41F2E1
:102250000020C0F27A0031E0796801F00301022920
:102260001CD04FF0B04003290CD10068C00240F6EA
:102270000010C0F23D005CBF41F20020C0F27A00C5
:102280000CE000BF006845F6845100F0F000B02873
:1022900028BFB0208008C0F60001085879687A6825
:1022A000C1F306214843C2F302110131B0FBF1F042
:1022B0007968012202EB5171B0FBF1F039683C22E0
:1022C00002EA910145F64452C0F600025158B0FBB3
:1022D000F1F040F23401C2F200010860FEF770FC38
:1022E00001B0BDE8F043FEF797BC00000C20C5F636
:1022F000000050F8041C01F00C02082A16D042F22B
:102300000041042AC0F2F40150D0EAB94FF0B041C4
:10231000096845F6845201F0F001B02928BFB021C8
:102320008908C0F60002515840E000BF4FF0B041AC
:102330000968C90240F60011C0F23D015CBF41F2DC
:102340000021C0F27A0131E0026802F00302022AA1
:102350001CD04FF0B041032A0CD10968C90240F6E5
:102360000011C0F23D015CBF41F20021C0F27A01D0
:102370000CE000BF096845F6845201F0F001B02975
:1023800028BFB0218908C0F60002515802680368CE
:10239000C2F306225143C3F302120132B1FBF2F140
:1023A0000268012303EB5272B1FBF2F150F8040C06
:1023B0003C2202EA900045F64452C0F60002105852
:1023C000B1FBF0F070470000F0B581B0002800F0DC
:1023D0005B830446007894268006C5F6000659D42F
:1023E0002078C00713D056F88C0C00F00C0156F87A
:1023F000880C082907D00C2940F0E08000F0030089
:10240000032840F0DB806068002800F03D832078DE
:1024100080071CD556F88C0C00F00C0156F8880C7F
:10242000042907D00C2940F0EB8000F003000228BB
:1024300040F0E680E068002800F02683206956F826
:10244000901C21F0FE4141EA006046F8900C2168A2
:1024500011F0180F00F07C8162693068002A00F0EA
:102460009B8011F0100140F0B58040F00100306019
:10247000FEF7A0FB054600BF3068800700F126810B
:10248000FEF798FB401B02284FF00300F4D901B07F
:10249000F0BD00BF56F88C0C10F00C0156F8880CFB
:1024A00005D00C292AD100F00300012826D1E069CB
:1024B000002800F0E9824FF0B041606A0A6802F03B
:1024C000F002B02A28BFB022904231D900F098FE25
:1024D000002840F0D9824FF0B042D4E908011368D7
:1024E00023F0F0031943116056F8901C21F47F414A
:1024F00041EA002046F8900C2DE000BFE1694FF062
:10250000B0473868002900F0958040F0010038603D
:10251000FEF750FB054600BF3868800700F1B08029
:10252000FEF748FB401B02284FF00300F4D9AEE74A
:102530000A6822F0F00202430A60216A56F8902CE1
:1025400022F47F4242EA012146F8901C00F058FE36
:10255000002840F0998256F88C0C00F00C010829F4
:1025600000F0048242F200400429C0F2F40000F0BE
:102570007082002940F008824FF0B040006845F6B4
:10258000845100F0F000B02828BFB0208008C0F6C9
:10259000000108585DE200BF20F004003060FEF743
:1025A00009FB05463068000740F17C80FEF702FB1E
:1025B000401B03284FF00300F4D968E761684FF02F
:1025C000B0400268B1F5803F40F0908042F4803125
:1025D000016091E080073FD4306840F00100306036
:1025E000FEF7E8FA054600BF3068800734D4FEF7EE
:1025F000E1FA401B02284FF00300F5D947E700BF7E
:10260000E1684FF0B0473868002900F09D8140F440
:1026100080703860FEF7CEFA054600BF3868400586
:102620003FF50CAFFEF7C6FA401B02284FF003003F
:10263000F4D92CE720F001003860FEF7BBFA05461C
:10264000386880077FF5CCAEFEF7B4FA401B02284D
:102650004FF00300F4D91AE7306840F0040030600E
:10266000FEF7A8FA054600BF3068000756D4FEF70B
:10267000A1FA401B03284FF00300F5D907E700BF7C
:102680004FF0B042D4E90801136823F0F003194376
:10269000116056F8901C21F47F4141EA002046F871
:1026A000900C9DE6306820F001003060FEF782FA61
:1026B000054600BF306880074AD5FEF77BFA401B0D
:1026C00002284FF00300F5D9E1E600BF306820F0A2
:1026D00004003060306800073AD5FEF76BFA401B03
:1026E00003284FF00300F5D9D1E600BF22F4803271
:1026F0000029026000F05E81FEF75CFA05464FF0AB
:10270000B04700BF386880033FF581AEFEF752FA4C
:10271000401B64284FF00300F4D9B8E6A069316883
:1027200021F4706141EA00203060306820F001003F
:102730003060FEF73FFA05463068800708D5FEF79F
:1027400039FA401B02284FF00300F5D99FE600BF7D
:102750002078400752D42078400677D4E06A0028D9
:1027600000F0C68156F88C2C56F8881C022802F01E
:102770000C0040F08180226B01F00303934240F093
:102780009380626B01F07003934240F08D80A26BE6
:10279000C1F30623934240F08780E26B01F4781383
:1027A000934240F08180226C01F06063934240F0DC
:1027B0007B80626C01F06041914275D14FF0B04571
:1027C0002868800100F19481286840F080702860BA
:1027D00056F8880C40F0805046F8880CFEF7EAF96D
:1027E00004462868800100F18381FEF7E3F9001BAD
:1027F00002284FF00300F4D949E600BFD6F86C0375
:10280000C00511D4FFF7F0F9FEF7D4F9054600BF73
:10281000D6F86C03C00507D4FEF7CCF9401B02289C
:102820004FF00300F4D932E6A068012807D005284C
:1028300068D156F8040C40F0040046F8040C56F831
:10284000040C40F0010046F8040C69E0A16A7068CD
:10285000002945D040F001007060FEF7ABF9054655
:10286000706880073FF57AAFFEF7A4F9401B022895
:102870004FF00300F4D90AE60C2800F005814FF070
:10288000B045286820F080702860FEF793F9044670
:102890002868800140F1B280FEF78CF9001B022805
:1028A0004FF00300F4D9F2E50C2800F0ED804FF072
:1028B000B0473868400100F1E780386820F0807048
:1028C0003860FEF777F905463868800140F1E0800E
:1028D000FEF770F9401B02284FF00300F4D9D6E54B
:1028E00020F001007060FEF765F90546706880070A
:1028F0007FF534AFFEF75EF9401B02284FF003006E
:10290000F4D9C4E556F8041C002821F0010146F86A
:10291000041C56F8041C21F0040146F8041C5BD08A
:10292000FEF748F9054641F2883700BF56F8040C17
:1029300080073FF510AFFEF73DF9401BB8424FF05E
:102940000300F3D9A3E500BF20F480703860FEF7E0
:1029500031F90546386840057FF579ADFEF72AF96B
:10296000401B02284FF00300F4D990E54FF0B0402F
:102970000068C00240F60010C0F23D005CBF41F2AA
:102980000020C0F27A0064E056F8881C01F00301D0
:1029900002294BD04FF0B04003293BD10068C00260
:1029A00040F60010C0F23D005CBF41F20020C0F2D2
:1029B0007A003BE0FEF7FEF805464FF0B047386876
:1029C00080037FF524ADFEF7F5F8401B64284FF037
:1029D0000300F4D95BE500BFFEF7ECF8054641F2D1
:1029E000883756F8040C80077FF5B5AEFEF7E2F89D
:1029F000401BB8424FF00300F3D948E556F8880C65
:102A00004FF6FC71CEF6FE61084046F8880C0020B7
:102A100001B0F0BD006845F6845100F0F000B02828
:102A200028BFB0208008C0F60001085856F8881C5E
:102A300056F8882CC1F306214843C2F30211013134
:102A4000B0FBF1F056F8881C012202EB5171B0FB8B
:102A5000F1F056F88C1C3C2202EA910145F64452F2
:102A6000C0F60002515840F23402B0FBF1F140F2DE
:102A70000C00C2F200000068C2F200021160FEF712
:102A8000CBF800283FF4ACAC012001B0F0BD00BF92
:102A900056F8880C48F28C01C1F2C11104F13007DC
:102AA00008408ECFD4E910540843104340EA032075
:102AB00038432843204346F8880C4FF0B045286837
:102AC00040F08070286056F8880C40F0805046F83E
:102AD000880CFEF76FF804462868800108D4FEF7DA
:102AE00069F8001B02284FF00300F5D9CFE400BFBE
:102AF000002001B0F0BD000070470000002804BFB6
:102B000001207047B0B50446406A28B1002020611A
:102B100004F1140006E000BF6068B0F5827F03D0C6
:102B200004F11C00002101600025A56294F85D00FD
:102B300020B9204684F85C5000F04EF8022084F85A
:102B40005D002068D4F80CE00268BEF5E06F22F06A
:102B5000400202604EF4006298BF0125B2F5706F2A
:102B60001CBF0023A3624FEA053CD4E90135D4E938
:102B7000042103F4827305F404452B4402F002029D
:102B80001A44A36901F00101E569114403F40072DC
:102B9000114405F03802256A114405F08002A56A47
:102BA000114405F40052114301600421626A0EF4DD
:102BB000706501EA1341636B45EA0C0502F01002EF
:102BC000294303F008031143194341600020012108
:102BD000206684F85D10B0BD2DE9F0418AB004464E
:102BE000006843F60001C4F2000100268842CDE9E6
:102BF0000866CDE9066605967AD043F20001C4F274
:102C00000101884240F0B9804C20C5F600004169BE
:102C100040F2080841F4805141614169002601F405
:102C20008051019101990168C4F2020841F002014A
:102C30000160006805A900F00200019001983820A9
:102C40000590022006900520099040F60000C4F689
:102C50000000A0F58060CDE90766FDF7D7FE41F6DC
:102C60003C15C2F2000507201021C5E9008005F1DE
:102C700008008027C2C02846C5E90566C5E9076681
:102C8000FDF78AFD002818BFFDF7A2FC41F6DC0025
:102C900008F11401C2F200006565AC62062280E80A
:102CA0004600C0E90367C0E90566C0E90766FDF7AD
:102CB00073FD002818BFFDF78BFC0020CDE9010053
:102CC0004FF4807041F6DC05ADF80C000120C2F233
:102CD0000005049001A92846FDF7A6FC002818BFAE
:102CE000FDF776FCA565AC620AB0BDE8F08100BFD7
:102CF0004C20C5F60000C16840F6000841F4804150
:102D0000C160C168C4F6000801F4804101910199D5
:102D1000016805AD41F0040101600168022701F07E
:102D2000040101910199016841F00101016000680D
:102D3000294600F0010001900198032009904046C7
:102D4000CDE90577CDE90766FDF760FE0420CDE902
:102D50000507052440462946CDE907660994FDF795
:102D600055FE4FF40070CDE905074FF0904029461D
:102D7000CDE907660994FDF749FE0AB0BDE8F08188
:102D80007047000070470000F0B581B0044690F82D
:102D90005C00012802D1022001B0F0BD012084F8BE
:102DA0005C0094F85D50012D0AD100294FF001001C
:102DB00018BF002A10D1002184F85C1001B0F0BDCA
:102DC0006068B0F5827F2BD1A06800284FF0020028
:102DD00008BF042DEFD1E8E7002BECD094F85D009C
:102DE00004281CBF052084F85D0000202066A16334
:102DF000A387E3872264A4F84430A4F8463021680E
:102E0000C4E91300E5684868B5F5E06F20F4C040F8
:102E1000486048680AD920F48050486040E000BF0C
:102E20000220002184F85C1001B0F0BD40F4805015
:102E30004860606D8069B0F5806F11D14868DB072C
:102E400006D120F480404860E08F400807E000BFD2
:102E500040F480404860E08F012303EB5000E0879E
:102E6000A06D8069B0F5806F1AD1486820F4805059
:102E70004860B4F846304868DB0707D120F40050BA
:102E80004860B4F84600400808E000BF40F4005035
:102E90004860B4F84600012303EB5000A4F8460054
:102EA00094F85D3043F2153643F22535C0F600063E
:102EB000C0F60005A06D042B08BF354643F22D3344
:102EC00043F29546C0F60003C0F6000608BF1E4652
:102ED00043F2F523C0F600030027C0E90B65C0E903
:102EE0000D37B4F846300C31FDF7ECFC78B92268A8
:102EF000606D516841F001015160C0E90B77C0E994
:102F00000D77A16BE38F0C32FDF7DCFC60B1206E16
:102F100040F010002066012084F85D00002184F854
:102F20005C1001B0F0BD00BF20680168490603D401
:102F3000016841F040010160416841F020014160B9
:102F4000416841F0020141600020002184F85C10DA
:102F500001B0F0BD70B5044690F85C00012804BFD4
:102F6000022070BD012084F85C0094F85D00012807
:102F70000AD100294FF0010018BF002A0AD1002110
:102F800084F85C1070BD00BF0220002184F85C1042
:102F900070BD00BF0320002384F85D002366A16399
:102FA000A287E2872364C4E91333A4F84430A4F869
:102FB0004630A0682268B0F5004F07D1106820F0B5
:102FC00040001060106840F480401060606D43F273
:102FD0001D3E43F2F53543F2F526C0F6000EC0F66D
:102FE0000005C0F60006C0E90B5EC0E90D63D4F829
:102FF0000CC05368BCF5E06F23F48043536015D8D0
:103000008369B3F5806F11D1E68F5368F60705D158
:1030100023F480435360E38F5B0806E043F480436E
:103020005360E38F012606EB5303E387E38F0C32F3
:10303000FDF748FC50B1206E40F0100020660120E2
:1030400084F85D00002184F85C1070BD2068016880
:10305000490603D4016841F040010160416841F034
:1030600020014160416841F00201416000200021DF
:1030700084F85C1070BD000041F69041C2F200017E
:10308000884211D041F6F441C2F20001884218BFD3
:10309000704740F20040C4F6000000F5806008214F
:1030A0000122FDF781BD00BF10B540F20044C4F617
:1030B000000404F5006002210122FDF775FD2046A1
:1030C00040210122BDE81040FDF76EBD70470000B1
:1030D00041F69041C2F20001884211D041F6F4411C
:1030E000C2F20001884218BF704740F20040C4F6A7
:1030F000000000F5806008210122FDF755BD00BFEA
:1031000010B540F20044C4F6000404F5006002214A
:103110000122FDF749FD204640210122BDE8104073
:10312000FDF742BD70470000411E0020B0EB116F5B
:103130001CBF012070474EF21002CEF20002516017
:103140004EF62351CEF20001F0230B700721906060
:1031500011607047FEE7000010B540F2CC14C2F2D7
:10316000000440F20810611CC2F20000FDF736FABC
:10317000002811BF4FF0FF3001202070002010BD4B
:1031800080B541F2006040F21001C2F20000C2F2CC
:103190000001002201F032F8002818BFFDF718FAEC
:1031A00041F2006040F23801C2F20000C2F20001B8
:1031B00001F05EFA002818BFFDF70AFA41F200603C
:1031C00040F2D401C2F20000C2F2000100F08AFD18
:1031D000002818BFFDF7FCF941F20060C2F20000C0
:1031E00001F070FA002808BF80BDBDE88040FDF7FF
:1031F000EFB90000FEE70000FEE7000070470000A6
:1032000070B53C2145F6845201EA9001C0F60002F7
:103210001144B02888BF02F12C01086840F208115F
:10322000C5F60001096845F6445201F00F01C0F6E9
:10323000000252F82110B0FBF1F4FEF7CDFCB0F51E
:10324000007F19D14EF6C020C0F22110844227D34E
:1032500049F24030C0F23420844223D343F6C030D8
:10326000C0F2473084421FD34DF23F20C0F2DF301E
:10327000844213D8032018E04CF6BF70C0F26A00F5
:1032800084420DD945F64050C0F2C600844209D3AD
:1032900046F23F60C0F20310844205D9002507E0E2
:1032A000002002E0012000E002200EA151F8205091
:1032B00044F20006C5F60006306820F007002843F7
:1032C0003060FDF777FC0446306800F00700A84244
:1032D00006D0FDF76FFC001B0328F5D3032070BD5B
:1032E000002070BD0000000001000000020000008E
:1032F00003000000806A01684A6822F003024A6005
:10330000016E41F010010166012180F85D10FFF7A8
:10331000F3BB0000806AFFF735BD0000806AFFF74D
:10332000D5BE0000806AFFF7FDBE0000B0B5846A1C
:103330000546FDF73FFC29680968890654D405460F
:103340002068A168034653F8042F22F020021A6077
:1033500041B96268B2F5827F04D16FF0030218466A
:1033600010E000BF1A6822F001021A606268B2F52C
:10337000827F0AD1B1F5004F6FF0400202D0B1F563
:10338000806F02D1016811400160204664212A4605
:1033900000F08AF930B1206E40F020002066202035
:1033A000206613E06068B0F5827F0FD1A068B0F5A9
:1033B000004F02D0B0F5806F08D120464FF4C061B5
:1033C00064222B4600F0ACF80028E4D10020A4F8D9
:1033D0004600012084F85D00206E28B12046BDE83B
:1033E000B040FFF789BB00BF2046BDE8B040FFF703
:1033F000C7BC0000B0B582B0846A0546FDF7DAFBB1
:103400002968096889063FD4054620686422416816
:103410002B4621F020014160416821F0020141600A
:1034200020464FF4C05100F07BF868B92046642173
:103430002A4600F039F938B920464FF4C0616422B9
:103440002B4600F06DF838B1206E40F02000206669
:10345000206E40F020002066A06838B9002001905E
:103460002068C16801918068019001980020E08780
:10347000012084F85D00206E30B1204602B0BDE826
:10348000B040FFF739BB00BF204602B0BDE8B040F6
:10349000FFF7F2BDB0B5846A0546FDF78BFB2968DE
:1034A0000968890636D405462068642241682B469F
:1034B00021F02001416020464FF4C05100F030F867
:1034C00068B9204664212A4600F0EEF838B9204653
:1034D0004FF4C06164222B4600F022F838B1206E10
:1034E00040F020002066206E40F02000206620681A
:1034F000416821F0030141600020E087A4F8460004
:10350000012084F85D00206E20B12046BDE8B04067
:10351000FFF7F2BA2046BDE8B040FFF7D9BD000082
:103520002DE9F04782B000261F4690460D468146A1
:103530008DF80360FDF73EFB381A00EB0807FDF736
:1035400039FB40F23401C2F20001096823225143E1
:10355000090DD9F8004079430191A168294271D041
:10356000824618F1010037D0B5F5C06F1CD100BFFD
:10357000207B8DF803009DF80300FDF71BFBA0EBFB
:103580000A00B84262D2019801990028A1F1010114
:103590000191D9F80010896808BF074611F4C06F7F
:1035A000E6D100264EE000BFFDF704FBA0EB0A00C9
:1035B000B8424BD2019801990028A1F10101019173
:1035C000D9F80010896808BF07462942ECD10026C7
:1035D000304602B0BDE8F0870026B5F5C06F25D1B2
:1035E000207B8DF803009DF80300A06810F4C06FE5
:1035F000EDD0207B8DF803009DF80300A06810F447
:10360000C06FE4D0207B8DF803009DF80300A06814
:1036100010F4C06FDBD0207B8DF803009DF8030011
:10362000A06810F4C06FDBD10CE000BFA068284296
:10363000CDD0A0682842CAD0A0682842C7D0A068D0
:103640002842F3D1304602B0BDE8F087D9E9000145
:103650004268B1F5827F22F0E00242600BD1D9F8D6
:103660000810B1F5004F02D0B1F5806F03D10168A9
:1036700021F040010160D9F82810B1F5005F07D1B1
:10368000016821F400510160016841F400510160BA
:10369000012089F85D00002089F85C00032630468F
:1036A00002B0BDE8F0870000F0B581B015460E46C7
:1036B0000446FDF77FFA281A8719FDF77BFA40F2D6
:1036C0003401C2F200010968C1F3CB3179430091A2
:1036D00021688A68120622D50546701C15D000BFE5
:1036E000FDF768FA401BB8421CD2009800990028E8
:1036F000A1F1010100912168896808BF0746080609
:10370000EED40CE08868000609D58868000606D566
:103710008868000644BF88685FEA0060F2D4002031
:1037200001B0F0BDD4E900014268B1F5827F22F01A
:10373000E00242600AD1A168B1F5004F02D0B1F5B4
:10374000806F03D1016821F040010160A16AB1F5E9
:10375000005F07D1016821F400510160016841F464
:1037600000510160012084F85D00002084F85C00B5
:10377000032001B0F0BD000070470000FDF726BA3D
:1037800010B59AB00024CDE91144CDE90F44CDE93C
:103790000D440794CDE90544CDE90344CDE9014446
:1037A000FEF722FA4FF6904040F20041CFF6FF704C
:1037B000C5F600010A58022363F3C4020A500868E0
:1037C000012262F34A200860086800F4C06000909B
:1037D0000098272008904FF48030CDE909024FF47B
:1037E00080700B9040200C9060201190202016904B
:1037F0004FF4003017904FF0005019904FF00070C8
:10380000189008A80F921094CDE913321594FEF782
:10381000DBFD28B1EFF3108072B600BFFEE700BFFA
:103820006F2001900320CDE902048020CDE9060439
:1038300001A80321CDE90444FEF7E6FB20B1EFF334
:10384000108072B6FEE700BFFEF7D8F91AB010BDBF
:103850004EF68850CEF2000001684FF4E02241F4A9
:10386000700101604FF0B04001684FF6FB6341F01A
:10387000010101609421C5F6000141F88C2C026819
:10388000CFF6F6231A4002600A6822F005020A60A9
:103890004A6822F001024A6041F20002C2F20422A8
:1038A00041F8882C41F8842C026822F480220260BE
:1038B000002041F87C0C704710B540F2D414C2F2DD
:1038C00000040A4602A0214600F02AFC204610BD52
:1038D00043444320436F6E6669670000B0B5D0F87B
:1038E000D42200EB8202D2F8C0322BB38C4601F016
:1038F0000F0101EB810E00EB8E0151F8185F55B1FD
:10390000D0F8C84204EBCE04D4F838E0B5FBFEF49E
:1039100004FB1E5595B10024C3F81442D2F8C4022A
:10392000056935B1D3F8080203F504716246A8476A
:1039300000242046B0BD00BF0320B0BD00240C60B1
:1039400061460022002300F075FE2046B0BD000055
:10395000B0B50446D0F8D40204EB8000D0F8C052D1
:1039600095B1204600F01CFDD4F8D412C5F80C0225
:1039700004EB8101D1F8C412D5F80402CA6805F538
:10398000037190470020B0BD0320B0BD70B5812108
:10399000044600F05BFC002520460121258700F04D
:1039A00055FC20468221A4F8785100F04FFCD4F851
:1039B000D402E56404EB8000D0F8C01289B1D0F8DD
:1039C000C40240688047D4F8D40204F5307656F833
:1039D000200001F03DF9D4F8D40246F82050C4F894
:1039E000BC52002070BD000040F2B4001222C2F2AE
:1039F00000000A807047000010B5D0F8D41200EB28
:103A00008100D0F8C0428CB1D0F8C41281B194F8D2
:103A10000002FF280CD08B6894F8012221469847B9
:103A2000FF2084F80002002010BD00BF032010BD5D
:103A3000002010BD014640F2C8000A22C2F2000078
:103A40000A807047F0B581B040F27007C2F20007FB
:103A500004463846822100F023FB06463846012101
:103A600000F01EFB05463846812100F019FB002EB0
:103A70001CBF1021B171002D1CBF4021A98000285E
:103A80001CBF40218180432140F27000C2F200003F
:103A9000218001B0F0BD0000F0B581B040F27007A8
:103AA000C2F2000704463846822100F0F9FA0646C1
:103AB0003846012100F0F4FA05463846812100F02D
:103AC000EFFA002E1CBF1021B171002D1CBF4FF466
:103AD0000071A98000281CBF4FF400718180432130
:103AE00040F27000C2F20000218001B0F0BD000081
:103AF000F0B581B040F27007C2F2000704463846C4
:103B0000822100F0CDFA06463846012100F0C8FABD
:103B100005463846812100F0C3FA002E1CBF102153
:103B2000B171002D1CBF4021A98000281CBF40217D
:103B30008180432140F27000C2F20000218001B078
:103B4000F0BD00002DE9F04104464FF4077001F08C
:103B500081F800284ED04FF407710546FCF75EFB54
:103B6000D4F8D402402704EB8000C0F8C052207C77
:103B7000C4F8BC52002808BF4FF4007720468121CA
:103B800002223B46022600F069FC4FF00108204665
:103B9000012102223B46A4F8388000F05FFC10208F
:103BA000A4F84E002046822103220823A4F878813D
:103BB00000F054FCD4F8D4020027C5F8047204EBDA
:103BC0008000D0F8C402A4F84C8000688047C5F893
:103BD0001472C5F81872D5F804223AB1207C98B155
:103BE00020460121402300F04DFC00263046BDE870
:103BF000F08100BFD4F8D402002104EB8000C0F8AB
:103C0000C0120220BDE8F081204601214FF400736C
:103C100000F038FC0020BDE8F081000010B540F253
:103C2000D414C2F200040A4602A0214600F078FA39
:103C3000204610BD43444320496E7465726661633B
:103C40006500000040F2E8000422C2F200000A8091
:103C50007047000010B540F2D414C2F200040A46C6
:103C600002A0214600F05CFA204610BD53544D6975
:103C700063726F656C656374726F6E696373000065
:103C800010B540F2D414C2F200040A4602A0214644
:103C900000F046FA204610BD53544D333220566989
:103CA000727475616C20436F6D506F727400000008
:103CB00080B5D0F8D41200EB8101D1F8C01279B1EF
:103CC00090F810C0D1F8042240230121BCF1000F6C
:103CD00008BF4FF4007300F0D5FB002080BD00BF8B
:103CE000032080BD00290FBF0320D0F8D42200EBB1
:103CF0008200C0F8C41218BF00207047B0B547F268
:103D00009050C1F6FF70026883684FF01A0C9B1840
:103D1000A1F800C000F0A3804FF0370C1A0F0CEB95
:103D200013714068B3F1204F38BF02F1300140F207
:103D3000EC02C2F20002917019014FF0000E0CEB80
:103D4000117582F803E0C3F30364B1F1204F38BF6B
:103D500004F13005190215710CEB117582F805E0BC
:103D6000C3F30354B1F1204F38BF04F130051903F8
:103D700095710CEB117582F807E0C3F30344B1F1C0
:103D8000204F38BF04F13005190415720CEB117582
:103D900082F809E0C3F30334B1F1204F38BF04F1D6
:103DA0003005190595720CEB117582F80BE0C3F321
:103DB0000324B1F1204F38BF04F130051906157303
:103DC000C3F303140CEB1175B1F1204F4FEA0371EB
:103DD00003F00F0382F80DE038BF04F1300503F162
:103DE0003704957382F80FE0B1F1204F38BF03F12B
:103DF0003004010F0CEB1073147482F811E0B0F171
:103E0000204F38BF01F1300301010CEB11749374A2
:103E100082F813E0C0F30363B1F1204F38BF03F120
:103E2000300401021475C0F303530CEB1174B1F1AB
:103E3000204F4FEA003182F815E038BF03F130041B
:103E40000CEB1173947582F817E0C0F30340B1F1E5
:103E5000204F38BF00F13003137682F819E040F2AA
:103E6000EC00C2F20000B0BDD0F8D42200EB82001A
:103E7000D0F8C00200280EBF0320C0F804120020B2
:103E800070470000D0F8D43200EB8300D0F8C002B5
:103E900000280FBF0320C0F80812C0F8102200202D
:103EA0007047000070B582B00446D0F8D4020D46C9
:103EB00004EB8000D0F8C06200218DF80710ADF847
:103EC0000410DEB1297811F060021BD0202A61D1E4
:103ED000EA88002A2ED049B2B1F1FF3F36DD68787A
:103EE000314686F800022046402A28BF402286F844
:103EF000012200F0A1F8002618E000BF032630469A
:103F000002B070BD68780B2844D80026DFE800F0C6
:103F1000060E42424242424242422C3A94F89C02ED
:103F2000032837D101A92046022225E0304602B0FD
:103F300070BD00BFD0F8C4022946836868780022AB
:103F400000269847304602B070BD00BFD0F8C402CA
:103F50003146836868789847EA8820463146072AC0
:103F600028BF072208E000BF94F89C02032811D163
:103F70000DF107012046012200F078F800263046B6
:103F800002B070BD94F89C02032803D1002630468D
:103F900002B070BD2046294600F042F803263046A4
:103FA00002B070BD80B5D0F8D41200EB8101D1F819
:103FB000C0223AB1D2F8141200294FF0010103D007
:103FC000084680BD032080BDC2F81412D2F810321A
:103FD000D2F808228121C36200F02CFB00210846A0
:103FE00080BD000080B5D0F8B82252689047002804
:103FF00018BF032080BD00000020704700207047DC
:1040000080B513460A46002100F03CFA002080BD2E
:1040100080B513460A46002100F00CFB002080BD4D
:1040200010B58021044600F0D3FA20460021BDE8F7
:10403000104000F0CDBA000080B513460A460321B7
:10404000C0F894120021C0E9563300F01BFA00209A
:1040500080BD000080B50521C0F894120021002227
:10406000002300F00FFA002080BD000080B5134649
:104070000A460221C0F894120021C0E9063300F07C
:10408000D9FA002080BD000080B50421C0F8941248
:1040900000210022002300F0CDFA002080BD0000A6
:1040A00080B5B0F802C003789C4509D8002080BDD7
:1040B00082788A4208BF80BD73449AB262452DD28D
:1040C00090F800E070444278052A02D182788A4252
:1040D00025D073449AB26245E8D290F800E070446B
:1040E0004278052A02D182788A4218D073449AB263
:1040F0006245DBD290F800E070444278052A02D194
:1041000082788A420BD073449AB26245CED290F83C
:1041100000E070444278052ACAD0CDE7002080BD77
:1041200010B5002868D00378B3B100F1020E4FF04B
:10413000000C00BF1EF8013C93B19EF800309BB10B
:104140009EF80130A3B19EF802300CF1040C002B54
:104150000EF1040EEED10DE04FF0000C0AE000BFAE
:104160004CF0010C06E000BF4CF0020C02E000BF76
:104170004CF0030C5FFA8CFC022303EB4C0313801E
:1041800003220B704A7090F800E0BEF1000F33D0AC
:10419000841C02224FF0000C1AE000BF101DC0B2B8
:1041A0000B5440F0010001F800C06378002B08BFF9
:1041B00010BD901DC0B20B5440F0010001F800C0CA
:1041C00094F802E00832BEF1000F04F1040413D0A9
:1041D000D3B201F803E043F0010301F803C014F87F
:1041E000013C4BB1901CC0B20B5440F0010001F8EF
:1041F00000C02378002BD1D110BD0000002804BFDF
:10420000032070470023C0F8B832C0F8C432002938
:10421000C0F8D03218BFC0F8B412012180F89C1247
:10422000027000F0C1B8000080B5D0F8C802FCF7F9
:1042300005FE40F20032C100C0F2013222FA01F163
:10424000032888BF0321C8B280BD000080B5D0F824
:10425000C802FCF7CBFD40F20032C100C0F20132CF
:1042600022FA01F1032888BF0321C8B280BD0000F3
:10427000B0B5044691B194F89C02032851D1D4F80A
:10428000B8024269002A4CD00020C4F8D40220466B
:104290009047002808BF0020B0BD00BFD4F89402AA
:1042A000022837D1D4E9070188420DD9431A2046A4
:1042B00011461A46E361FFF7ABFE204600210022BB
:1042C000002300F0DFF825E010D1A16981420DD371
:1042D000D4F89802814209D220460021002200250C
:1042E000FFF796FEC4F89852E7E700BF94F89C02E7
:1042F000032808D1D4F8B802C16821B10020C4F85D
:10430000D402204688472046802100F061F92046EB
:10431000FFF7A0FE94F8A00200281CBF002084F83C
:10432000A0020020B0BD000010B5044681B194F891
:104330009C0203281FD1D4F8B8028269DAB10020A8
:10434000C4F8D40220469047002808BF002010BDC2
:10435000D4F8940203280ED1D4E9570398420DD91A
:10436000C01AC4F85C01984238BF03462046114683
:104370001A46FFF745FE002010BD00BF94F89C02CE
:10438000032808D1D4F8B802016921B10020C4F88B
:10439000D402204688472046FFF776FE002010BD55
:1043A000D0F8C802FCF77CBDB0B541F69C15C2F24E
:1043B00000050446C5F8F002C0F8C852FDF702FC3B
:1043C00046F60000C4F200000821022285E807003A
:1043D0000020C5E90420C5E9060028622846FDF74B
:1043E000C3FA002818BFFCF7F3F8D4F8C80200217C
:1043F00000221823FCF7C6FCD4F8C8028021002252
:104400005823FCF7BFFCD4F8C80281210022C02346
:10441000FCF7B8FCD4F8C802012100224FF48873DD
:10442000FCF7B0FCD4F8C802822100224FF480735C
:10443000FCF7A8FC0020B0BD4AB2D0F8C80201F0D9
:104440007F0101EB810100EBC10000F5B571002A8D
:1044500048BF00F12A0108787047000080B59446F3
:10446000D0F8C8021A466346FCF724FD40F2003239
:10447000C100C0F2013222FA01F1032888BF0321F2
:10448000C8B280BD80B5D0F8C802FCF743FD40F249
:104490000032C100C0F2013222FA01F1032888BFC4
:1044A0000321C8B280BD0000F0B581B0012600250F
:1044B00080F89C62C0F8945204464560D0F8B80277
:1044C000C4F8A45284F8A05258B1426842B12046C0
:1044D000002190470546002818BF032501E000BFD2
:1044E000002520460021002240234027FFF7B6FF89
:1044F0002046802100224023A4F86461C4F8607142
:10450000FFF7ACFFA6842846276201B0F0BD00008B
:1045100090F89C12042904BF90F89D1280F89C1218
:104520000020704780B590F89C12032906D1D0F87E
:10453000B81219B1C969002918BF8847002080BD89
:10454000024600201174704780B5D0F8C802FDF70C
:10455000F3FA40F20032C100C0F2013222FA01F156
:10456000032888BF0321C8B280BD0000B0B500F2A7
:10457000AA250446284600F06FF80120C4F89402EA
:1045800094F8AA02B4F8B02200F01F010229C4F87E
:10459000982209D001290DD091B920462946BDE8BD
:1045A000B04000F091B800BF20462946BDE8B040B9
:1045B00000F04ABA20462946BDE8B04000F0FEBAF5
:1045C00000F080012046BDE8B04000F001B80000D6
:1045D00080B5D0F8C802FCF7B7FC40F20032C10049
:1045E000C0F2013222FA01F1032888BF0321C8B2C8
:1045F00080BD000080B5D0F8C802FDF7B9FA40F2DE
:104600000032C100C0F2013222FA01F1032888BF52
:104610000321C8B280BD0000014690F89C0204222C
:1046200004281CBF91F89C0281F89D02002081F8AB
:104630009C22704780B5D0F8C802FCF7B9FC40F264
:104640000032C100C0F2013222FA01F1032888BF12
:104650000321C8B280BD00000A7802704A78427017
:104660004A8842808A888280C988C1807047000059
:1046700010B582B004460020ADF80600B1B1D4F800
:10468000D42204F52E70C4F8B81250F82200C16A82
:1046900021B10DF106008847C4F8D002D4F8D80241
:1046A0000130C4F8D802002002B010BD032002B0CF
:1046B00010BD0000D0F8B822002A04BF00207047C7
:1046C00012681047FFF796BFB0B582B00D46097863
:1046D000044611F0600111D0402901D0202933D1C6
:1046E000D4F8D402294604EB8000D0F8B8028268DE
:1046F000204602B0BDE8B040104700BF68780928E6
:1047000000F2D880DFE810F00A002C00D6003E004E
:10471000D6004A006A00D6008400980094F89C02F3
:104720000138022800F2C680E888022840F0C280E2
:10473000D4F8A4020322002808BF0122214641F830
:104740000C2F2046022205E120468021FFF740FF82
:10475000204600210025FFF73BFF284602B0B0BDF0
:1047600094F89C020138022800F2A4806888002591
:104770000128F2D12046C4F8A452FFF785FC284650
:1047800002B0B0BD6888022800F08A80012840F09D
:1047900091800120C4F8A40210E100BFA88800287D
:1047A00040F08880E888002840F0848068887F286E
:1047B00000F2808094F89C12032900F07B80C5B23F
:1047C00084F89E0220462946FFF7BEFE2046FFF7EA
:1047D0005BFC002D0CBF012002201BE168884FF01C
:1047E000FF3101EB102100220E29ADF8062000F266
:1047F000B780DFE801F0096B79B5B5858FB5B5B540
:10480000B5B5B5B59B0000BFD4F8B402026891E01D
:10481000E88801284ED194F89C02411E022943D217
:104820000025214641F8085F20460122FFF71EFCC3
:10483000284602B0B0BD00BF688840F2D115C2F270
:10484000000510F0FE0F28700CD020468021FFF7E5
:10485000BFFE20460021FFF7BBFE0325284602B01D
:10486000B0BD00BF94F89C22C1B2032A00F084803E
:10487000022A40F0AB80002900F0A0802046616051
:10488000FFF718FF002800F0C18005462046802170
:10489000FFF79EFE20460021FFF79AFE87E000BF4B
:1048A000687984F8A00289E0032803D1211D2046FD
:1048B00001224FE020468021FFF78AFE204600219A
:1048C0000025FFF785FE284602B0B0BD217CD4F854
:1048D000B80200290CBF816AC16A0DF10600884741
:1048E0000146022020E000BFC0B2052838D8DFE82A
:1048F00000F003979B9FA3A7D4F8B402426818E086
:10490000207C68BBD4F8B802416B0DF106008847E3
:1049100014E000BF207C18BBD4F8B802016B0DF185
:104920000600884701460720487008E0D4F8B40222
:10493000C269AAB1207C0DF1060190470146EA88C0
:10494000E2B3BDF8060058B1904238BF0246204697
:10495000ADF80620FFF78AFB0025284602B0B0BD5F
:1049600020468021FFF734FE20460021FFF730FE6D
:104970000025284602B0B0BDC1B3606888421DD092
:10498000C1B22046FFF72EFB297820466160FFF771
:1049900091FE98B1054620468021FFF719FE20467A
:1049A0000021FFF715FE21792046FFF71BFB0220AF
:1049B00084F89C02284602B0B0BD00BF2046FFF735
:1049C00063FB0025284602B0B0BD00BF2046802111
:1049D000FFF7FEFD20460021FFF7FAFD297820466B
:1049E000FFF700FB0325284602B0B0BD022084F883
:1049F0009C026160204600210025FFF7F3FA204663
:104A0000FFF742FB284602B0B0BD00BF2046FFF7CB
:104A10003BFB032084F89C020025284602B0B0BD71
:104A2000D4F8B402826884E7D4F8B402C26880E79C
:104A3000D4F8B40202697CE7D4F8B402426978E79A
:104A4000D4F8B402826974E770B50E4609783579F6
:104A500011F0600104460BD0402902D0202940F01B
:104A60007B8020462946FFF7C7FAD8B1002070BDE9
:104A7000707828B301283BD003286DD194F89C02AC
:104A8000032839D1708840B915F07F0005D0F0882F
:104A900018B920462946FFF79BFD2046FFF7F4FA98
:104AA000002070BDD4F8B80282680020002AC4F843
:104AB000D402DBD020463146BDE87040104700BF2D
:104AC00094F89C02032825D0022808BF5FEA4560BD
:104AD00042D115F0800004F114014FF0140004BF1E
:104AE0004FF4AA7004F5AA710022225020465FE01C
:104AF00094F89C02032839D002282DD168062BD0C7
:104B000020462946FFF764FD20468021FFF760FD1F
:104B1000002070BD05F00F0000EB8000802D04EB3D
:104B200080002CBF808CB0F86401A8B105F07F0034
:104B300000EB800004EB800000F11406802D38BFEC
:104B400000F5AA7668062FD020462946FFF774FCA8
:104B5000002818BF012028E020468021FFF738FDFB
:104B600020460021FFF734FD002070BD708800282A
:104B70007FF47CAF680603D020462946FFF754FB3C
:104B80002046FFF781FA20462946FFF735FA00282C
:104B90007FF46CAFD4F8B80282680020002AC4F811
:104BA000D4027FF487AF61E70020306020463146B1
:104BB0000222FFF75BFA002070BD0000B0B50D4681
:104BC0000978044611F0600118BF402914D194F807
:104BD0009C020138022803D8A88810F0FE0F19D0D3
:104BE00020468021FFF7F4FC204600210025FFF736
:104BF000EFFC2846B0BD00BF2029E8D02046802128
:104C0000FFF7E6FC204600210025FFF7E1FC2846DF
:104C1000B0BD00BFC1B22046FFF7F0F910B10320CC
:104C2000B0BD00BFD4F8B8028268002AF7D00020D7
:104C3000C4F8D402204629469047E9880546002951
:104C400008BF002DE3D12046FFF71EFA0020B0BDBB
:104C50007047000040F2D430C2F2000070470000FC
:104C60002DE9F0410D78024691F803E000EB850351
:104C700030F8250047F27067BEF1030F20EA070401
:104C800008D80020DFE80EF002080F0C44F400748E
:104C900008E000BF012006E044F4806402E000BFA9
:104CA00044F4C064002048F28007CFF6FF7744EA5E
:104CB00007061E801E8840F60F7426402E43374399
:104CC0001F800F7B48F2800C002F49D01C8840F6D3
:104CD0000F66344048F28006BEF1020F08BF06F5A9
:104CE000807634431C80B2F850400E8902EBC50533
:104CF0002C4426F00106A4F80064B2F850204C8938
:104D00002A4424F00104A2F8044449781A880029AE
:104D100002F480414AD039B1198840F60F7211402F
:104D20000CF58042114319801988490607D5198866
:104D300040F60F7211400CF140021143198019889E
:104D400040F63F7211400CF120024A40BEF1010FC3
:104D500008BF41EA0C021A80198843F60F7244E03A
:104D60004E78B2F85080CC88EF00002E24F0010677
:104D700042D0D1194144A1F800641988490607D5E9
:104D8000198840F60F7211400CF14002114319804E
:104D9000198840F63F72BEF1010F01EA020125D0E9
:104DA0000CF1200251401980BDE8F08139B1198819
:104DB00040F60F7211400CF580421143198019889A
:104DC000490607D5198840F60F7211400CF14002D0
:104DD00011431980198843F60F7211400CF54052A7
:104DE00051401980198840F63F72114041EA0C0188
:104DF0001980BDE8F08100BFD41904EB0807A7F8BB
:104E00000464B2F850E004F2064434F80E606FF324
:104E10009F2624F80E6009693F290DD3CF063EF87E
:104E200004704FEA51164FF0FF3808BF08EB5116D7
:104E300047EA862112E000BF71B101F001063EF899
:104E4000047006EB510147EA81212EF804101988FD
:104E500049040DD414E000BF3EF8041048F20006E7
:104E6000CFF6FF7631432EF804101988490407D590
:104E7000198840F60F7739400CF58047394319807F
:104E800055B1198843F60F7211400CF5005251408C
:104E90001980BDE8F08100BF118843F60F72114000
:104EA0000CF5405251401980BDE8F081B0B50C7846
:104EB0004B78097B024630F824004CF2800C4CF20F
:104EC000800500294FEA44013AD0002B00F48040CD
:104ED00040D040B132F8110040F60F73184040EA5C
:104EE0000C0022F8110032F8110043F60F7E400644
:104EF00040F63F7009D532F8113040F60F74234068
:104F0000ACF57F54234322F8113032F8113040F6CB
:104F10000F7423402B43ACF5804522F8113032F852
:104F200011301840284322F8110032F81100ACF576
:104F3000804300EA0E000343002022F81130B0BD88
:104F4000F3B1400640F63F7EEFD5ACF57F5540F615
:104F50000F70E4E740B132F8110040F60F731840CB
:104F600040EA0C0022F8110032F81100ACF57F5530
:104F7000400640F63F7E43F60F70BCD4C5E700BF45
:104F8000400443F60F7ED0D540F60F70C7E700000F
:104F90000146B0F8580040F400420020A1F8582023
:104FA0007047000001460120A1F8400000220020C7
:104FB000A1F84020A1F84420A1F85020704700003B
:104FC0000146B0F8400044F27F0202400020A1F800
:104FD0004020704780B50A7B12B1002080BD00BF21
:104FE0000A784B7830F822C04FEA4202B3B15FEA48
:104FF0004C6348F2A00E0BD530F812C040F60F7388
:105000000CEA030C0EF1200343EA0C0320F81230E3
:10501000C9780129E1D040F63F7110E05FEA4C41C8
:105020004BF2800E09D530F8121040F60F7319407C
:105030000EF58053194320F8121043F60F7130F823
:105040001230194081EA0E0120F81210002080BDB4
:1050500002460B78487832F823C040F63F710028AA
:1050600048F2900008BF43F60F71CFF6FF7008BFFB
:1050700000F57F6001EA0C014140002022F8231076
:10508000704700002DE9F04F82B04B78012B5FD1C3
:105090008B690A690F7B934228BF1346002F00F0EB
:1050A0008180CF780C6A022F40F0C4800D7840F6E2
:1050B0000F6630F825704FEA450E944206EA07065F
:1050C00048F2B00C40F2168148F2B007CFF6FF77F5
:1050D000D0373E43A4EB030A20F81E60C1F820A09D
:1050E00030F81E70B0F85060ED007F0600EB050848
:1050F00000F1548108EB0604A4F80234D1F814B08E
:105100009DB2002D00F026830E89064406F58069C5
:105110006E1C4FF0FF3505EB5604C6F34105002D1C
:105120004FEA560700F0E2815E46CDE9004836F8C6
:10513000028B5C46CB46012D2BF8028B40F0DA81C6
:10514000D946DDF80480A346009C013FF1E200BF90
:105150000A7B002A4AD0CA78012A00F0A180022ADC
:1051600040F0C480002B40F0BC82B0F850300A7888
:10517000034403F2024737F832306FF39F2327F8D6
:1051800032300B693F2BC0F04F81DC064FEA5316DB
:1051900037F832404FF0FF3508BF05EB531644EAAD
:1051A0008626C9E11A0400F07381CA88D1F814E098
:1051B000024402F58068012212FA83F24FF0FF37B1
:1051C000C2F3410407EB520C002C4FEA520200F0EC
:1051D0004C81774637F8025B4646012C26F8025B85
:1051E00040F00A81013ABE46B0463EE18E690A6946
:1051F000B31A38BF00238B61B0F850700B780744A6
:1052000007F2064737F8335038BF32466FF39F2511
:105210003F2A27F83350C0F0D481D40637F8334002
:105220004FEA52164FF0FF3508BF05EB521644EA1D
:105230008622D3E1E21A0F780A6230F82720B0F80C
:105240005040FD00520605444FEA470E9AB248F21C
:10525000B00C2C4400F18080002AA4F8023400F045
:10526000D7800B890132496903444FF0FF34C2F300
:10527000410503F5806304EB5208002D4FEA52020A
:1052800000F0CB810E4636F8024B1F46012D27F861
:10529000024B40F00D81013A31463B46BDE100BF73
:1052A0000A698F69BE1A3CBF00263A46002B8E6100
:1052B00040F09881B0F850700B78074407F202472D
:1052C00037F833603F2A6FF39F2627F83360C0F02A
:1052D000B780D4064FEA521637F833404FF0FF3507
:1052E00008BF05EB521644EA862655E1012002B0BC
:1052F000BDE8F08F48F2B002CFF6FF72303A324389
:1053000020F81E20B0F8502000EBC5031A442304F7
:10531000A2F8024400F080800A894969024402F53B
:105320008063012212FA84F24FF0FF34C2F3410588
:1053300004EB5208002D4FEA520200F08E810E4617
:1053400036F8024B1F46012D27F8024B40F0BA8079
:10535000013A31463B4680E1002AA4F806345FD08A
:105360004B890132496903444FF0FF34C2F34105D0
:1053700003F5806304EB5208002D4FEA520200F05F
:105380008C810E4636F8024B1F46012D27F8024B42
:1053900040F0A280013A31463B467EE108EB06052B
:1053A000A5F80634D1F814B09DB2002D00F0268285
:1053B0004E89064406F580696E1C4FF0FF3505EBFB
:1053C0005604C6F34105002D4FEA560700F09080C1
:1053D0005E46CDE9004836F8028B5C46CB46012D8F
:1053E0002BF8028B40F09680D946DDF80480A34666
:1053F000009C013FF1E100BFBEF80250022CA8F86A
:10540000025029D108F104080EF1040E023A2CE0F2
:1054100040F63F71F1E000BF40F63F71EDE000BFA4
:1054200040F63F71E9E000BF002B00F0838003F0FD
:10543000010637F8325006EB530645EA862680E02F
:10544000002A00F0A78002F0010637F8335006EB7F
:10545000520645EA8626A4E0BEF804400EF1060E88
:10546000A8F8044008F10608033ABCF1030F0FD373
:10547000AEF10807A8F1080637F8085F043A26F8E5
:10548000085F7D887580BD88B580FD88F580F3D183
:10549000B0F850200978024402EBC10248F2B00C87
:1054A000A2F802344FEA410E40F63F71A5E000BF7A
:1054B0004C88022D5C8040F0AB8004330431023A0A
:1054C000ABE000BF4C88022D5C8040F0C18004330B
:1054D0000431023AC1E000BF4C88022D5C8040F0EC
:1054E000D78004330431023AD7E000BF5E4620E1A2
:1054F0005E4672E16688A346A9F80260DDF8048082
:10550000009C022D40F00C8109F104090BF1040606
:10551000023F0EE16688A346A9F80260DDF8048028
:10552000009C022D40F0508109F104090BF10406A2
:10553000023F52E137F8326048F20005CFF6FF75BE
:105540002E4327F83260B0F850703F2B074407F223
:10555000064737F832606FF39F2627F832600DD385
:10556000DC0637F832404FEA53164FF0FF3508BFDC
:1055700005EB531644EA8623ACE000BF002B00F095
:10558000A78003F0010637F8325006EB530345EAD3
:105590008323A4E037F8336048F20005CFF6FF75A7
:1055A0002E4327F83360B0F850703F2A074407F2C3
:1055B000064737F833606FF39F2627F83360BFF450
:1055C0002CAE4AB102F0010637F8335006EB520216
:1055D00045EA822204E000BF37F8332042F400425B
:1055E00027F8332009784FEA410E42F6D071A1F531
:1055F000E041A1F5756C43F60F7130F81E201140A3
:1056000081EA0C0120F81E10002002B0BDE8F08FE6
:105610008C8806319C800633033AB8F1030F03D21D
:1056200040F63F71E9E700BFA1F10804083B00BF65
:1056300034F8081F043A23F8081F61885980A188AC
:105640009980E188D98040F63F71F1D1D5E700BF5C
:105650008C8806319C800633033AB8F1030F03D2DD
:1056600040F63F71C9E700BFA1F10804083B00BF45
:1056700034F8081F043A23F8081F61885980A1886C
:105680009980E188D98040F63F71F1D1B5E700BF3C
:105690008C8806319C800633033AB8F1030F03D29D
:1056A00040F63F71A9E700BFA1F10804083B00BF25
:1056B00034F8081F043A23F8081F61885980A1882C
:1056C0009980E188D98040F63F71F1D195E700BF1C
:1056D00037F8323048F20006CFF6FF76334327F82A
:1056E0003230CA69002A3FF47DAF0A7844F240079D
:1056F00030F822303B40BB4202D0002B7FF472AF27
:10570000520030F8123040F60F773B4048F2B007B5
:10571000CFF6FF773B43103320F8123062E700BF2B
:10572000BBF804500BF10606A9F8045009F106096C
:10573000033F032C0ED3083EA9F1080536F8084FA5
:10574000043F25F8084F74886C80B488AC80F488D6
:10575000EC80F3D10BEB030600244E61924588BF29
:10576000AAEB03040C62B0F8502088BF9A4608EBFD
:1057700002031FFA8AF2A3F806A4CAB149890132CA
:1057800001444FF0FF33C2F3410401F5806103EBA4
:105790005203002C4FEA52026DD036F8027B0D46C0
:1057A000012C25F8027B07D1013A294663E000BFAE
:1057B00040F63F7121E700BF36F8025B022C4D80B6
:1057C00054D10431023A56E0BBF804500BF10606FE
:1057D000A9F8045009F10609033F032C0ED3083E33
:1057E000A9F1080536F8084F043F25F8084F7488DA
:1057F0006C80B488AC80F488EC80F3D10BEB0306AA
:1058000000244E61924588BFAAEB03040C62B0F8F5
:10581000502088BF9A4608EB02031FFA8AF2A3F8C9
:1058200002A4BAB10989013201444FF0FF33C2F337
:10583000410401F5806103EB52034FEA5202C4B305
:1058400036F8027B0D46012C25F8027B06D1013A81
:1058500029462EE040F63F71CFE600BF36F8025BE6
:10586000022C4D8020D10431023A22E036F8024B5E
:10587000033A8C800631032B02D240F63F71BCE61E
:10588000A6F10803A1F1080433F8081F043A24F82C
:10589000081F598861809988A180D988E18040F6E5
:1058A0003F71F1D1A9E600BF36F8024B033A8C8074
:1058B0000631032B02D240F63F719EE6A6F10803A3
:1058C000A1F1080433F8081F043A24F8081F598886
:1058D00061809988A180D988E18040F63F71F1D13B
:1058E0008BE6000001460020A1F844004BF68072D0
:1058F0000020A1F84020704741F69C10C2F2000041
:10590000FBF772BBB0F844007047000070B510445C
:10591000022B00F5806440D34FF0FF32C3F3410502
:10592000580802EB530C4DB1224632F8026B8E46FA
:10593000012D2EF8026B07D1013815E02246BCF18B
:10594000030F14462AD315E06288022D4A8005D140
:10595000221D01F1040E023806E000BFA688A21D38
:1059600001F1060E03388E807146BCF1030F144618
:1059700014D300BF32F8086B043821F8086B32F8F2
:10598000066C21F8066C32F8046C21F8046C32F8CD
:10599000026C21F8026CEDD114468E46D8071CBF6C
:1059A00020888EF8000070BD002904BF8021A0F877
:1059B0004C10002070470000B0B5002B3CD01044C4
:1059C00000F5806E581C4FF0FF32C0F3410302EB2C
:1059D000500C4FEA5000E3B10A4632F8025B7446BD
:1059E000012B24F8025B03D101381146A64610E0D2
:1059F0004A88022BAEF8022004D10EF1040E0431C5
:105A0000023806E08A880631AEF804200EF1060E50
:105A10000338BCF1030F38BFB0BD0839AEF108023E
:105A200031F8083F043822F8083F4B8853808B88B0
:105A30009380CB88D380F3D1B0BD000040F230001A
:105A4000C2F2000001210170007870470120704708
:105A50000020704740F23000C2F2000001210170C6
:105A60000078704700207047FEE700009CB0FBF70D
:105A7000BBF8FDF785FE07AC201D4421FAF7CEFBED
:105A80004FF400500790102000261A9020461996D7
:105A9000FCF7BCF820B1EFF3108072B6FEE700BF50
:105AA0004C250B96C5F60005286840F2004440F0EE
:105AB000040028602868C4F6000400F004001B906D
:105AC0001B98286804F5806A40F002002860286866
:105AD00043F2484100F002001B901B982868002206
