:020000040800F2
:10000000E05A02209102000875820008B5750008C8
:1000100071820008A51E000885EC000800000000A1
:1000200000000000000000000000000095A1000892
:100030003121000800000000E989000825A200081D
:10004000AB020008AB020008AB020008AB020008DC
:10005000AB020008AB020008AB0200084121000817
:10006000AB020008AB020008AB020008D91F000871
:10007000E91F0008AB020008AB020008AB02000851
:10008000AB020008AB020008AB020008AB0200089C
:1000900041EB0008AB020008AB0200084D2100084C
:1000A000AB020008AB020008AB02000879A300080D
:1000B00089A30008AB020008AB020008AB020008ED
:1000C000AB020008AB020008AB020008F19A00087E
:1000D000AB020008AB020008AB020008AB0200084C
:1000E00035210008AB020008AB020008AB02000893
:1000F000AB020008AB020008AB020008AB0200082C
:10010000AB020008AB020008AB020008AB0200081B
:10011000AB020008AB020008AB020008AB0200080B
:10012000AB020008AB020008AB020008AB020008FB
:10013000AB020008AB020008F91F000800F002F84B
:1001400000F096F80AA090E8000C82448344AAF1DB
:100150000107DA4501D100F08BF8AFF2090EBAE8D9
:100160000F0013F0010F18BFFB1A43F001031847EB
:10017000F01F010010200100103A24BF78C878C198
:10018000FAD8520724BF30C830C144BF04680C609D
:10019000704700000023002400250026103A28BFE5
:1001A00078C1FBD8520728BF30C148BF0B607047E9
:1001B0006E2900F04782702900F08983662911F0CA
:1001C0006486652911F06186672911F05E866129D0
:1001D00011F05D8603681B0A28BF41F08001692980
:1001E00000F0F481642900F0F181752900F0EE81BE
:1001F0006F2900F01783782900F05583E92900F072
:10020000B182E42900F0AE82F52900F0AB82EF293B
:1002100000F01483F82900F054830368DB0928BF39
:1002200041F08001632901F09580732901F09A80E3
:10023000E32901F0A580F32901F0AA80002070478E
:100240001FB511F015FE9DE8030000F027F901F03D
:10025000FDF804000020002111F0F4FD401C606056
:100260000020002111F0D8FDE0601FBD10B510BDC9
:1002700001F0BEF81146FFF7E3FF10F01FFD01F09B
:100280009BF903B4FFF7F2FF03BC01F0CBF90000C8
:100290000948804709480047FEE7FEE7FEE7FEE71A
:1002A000FEE7FEE7FEE7FEE7FEE7FEE70448054956
:1002B000054A064B70470000F9A200083D010008FE
:1002C000E0FA0120E05A0220E01A0220E01A02209F
:1002D00070B5064600F0C6F8056806F10B0020F080
:1002E0000704B4429CBF002070BD2B466A68BAB1B7
:1002F0001068A04210D304F1080188423CBF506846
:10030000586007D35168101941601168091B0160DA
:1003100058601460101D70BD13465268002AE7D162
:100320002146284600F0A6F80028DED170BD70B541
:100330000446051F00F096F80068002C14BF4468BE
:1003400070BD002C18BFAC423CBF20466468F8D397
:1003500001680A18AA4218BF456003D12A680546F9
:100360001144016028684119A1421CBF6C6070BD36
:100370006168696021680844286070BD0FB41CB5CD
:10038000084B06AA7B4469460090059800F073F973
:1003900004460020694600F081F920461CBC5DF847
:1003A00014FB00001503000002F0FF0343EA0322E0
:1003B00042EA024200F05CBB4FF0000200B5134677
:1003C00094469646203922BFA0E80C50A0E80C5075
:1003D000B1F12001BFF4F7AF090728BFA0E80C5026
:1003E00048BF0CC05DF804EB890028BF40F8042B1F
:1003F00008BF704748BF20F8022B11F0804F18BF8C
:1004000000F8012B704710B5044610F0030F08BF29
:1004100011F0030F40F015804FF0013E121FC0F2A3
:100420000E8051F8043BA3EB0E0C2CEA030C1CEAE3
:10043000CE1C08BF40F8043BF0D0A1F1040102F14A
:100440000402521E08DB11F8013B00F8013B002BAF
:10045000F7D1114600F00AFB204610BD70477047E7
:10046000704700000048704738010020704770470F
:100470007047704738B504460A4600206946AFF316
:100480000080002808BF38BD02460099204600F0D1
:1004900013FB012038BD012000F0A2BFF8B5AFF377
:1004A0000080054600200C46102000BF0646A81913
:1004B000A0420DD9324669460020AFF30080070004
:1004C00008BF00F08DFF0098A04218BF0546C41970
:1004D000FFF7C8FF05600746F01D20F0070046192A
:1004E000284600F00AF8B44208BFF8BDA21B314606
:1004F0003868BDE8F84000F0DFBA00210160C0E9CB
:10050000011070471020704770B504468569006877
:10051000C10601D5302600E02026C00707D070BDF7
:10052000D4E9012130469047206A401C20626D1EAC
:10053000F6D570BD70B5044685690078C00707D14F
:1005400070BDD4E9012120209047206A401C206220
:100550006D1EF6D570BD09684A0501D540B27047D9
:10056000C905FCD500B2704709684A0501D5C0B27B
:100570007047C905FCD580B2704770B50C4605467A
:10058000012A05D02878800600D5EA69002302E018
:10059000012305E05B1C934202D2E05C0028F9D104
:1005A000A869E618C01AA861286A18442862284673
:1005B000FFF7AAFF04E0D5E9012114F8010B9047E9
:1005C000B442F8D32846FFF7B5FF70BD2DE9F041DE
:1005D0000646002410687529314616A510D0FFF78D
:1005E000BAFF002802DA404213A507E031688A0703
:1005F00001D512A502E0490704D511A5012401E0A7
:10060000FFF7B2FF00210A2206F1240709E0B0FB40
:10061000F2FCB0FBF2F302FB1C00303078541846B9
:10062000491C0028F3D123462A463046BDE8F04154
:1006300000F0A1BA000000002D0000002B00000017
:100640002000000011680268006A530501D5087097
:100650000AE0D30501D5088006E0130603D5C217CA
:10066000C1E9000200E008600120704701694A1CEE
:1006700002610878704700B58FB0CDE901310021E3
:10068000059105497944CDE903101146684600F00B
:1006900029F90FB000BD0000E5FFFFFF0A6802F86E
:1006A000010B0A60704700002DE9FF5F15468A467E
:1006B0000446DFF8AC80F8440027D8E900103E4635
:1006C000CDE9001010E03AF816106A4602A800F0D2
:1006D00063FE411C07D02178890603D5E2693918E9
:1006E00091420DD80744761C2078800602D5E06937
:1006F000B84205DDAE42E6DB3AF816000028E2D14A
:10070000A069C01BA0612046FFF7FEFED8E90010DB
:10071000CDE90010002017E03AF818106A4602A848
:1007200000F03AFEB0F1FF3F81460BD000250DF1FD
:10073000080B05E0D4E901211BF8050090476D1C6A
:100740004D45F7D308F10100B0428046E4DB206A52
:10075000384420622046FFF7EDFEBDE8FF9F000011
:10076000DA1701002DE9F0418046D21D22F0070280
:100770000025D2E90002F52915A614D0011E72F158
:10078000000106DA0023D0EB030063EB020211A69E
:1007900008E0D8F800108B0701D50FA602E0490742
:1007A00001D50EA601251146002408F1240704E016
:1007B00000F09CF930323A55641C50EA0102F7D13E
:1007C0002B46324621464046BDE8F04100F0D3B901
:1007D000000000002D0000002B00000020000000A1
:1007E00030B4002100F1240408E002F00705D2082B
:1007F000303542EA4372DB086554491C52EA03056E
:10080000F3D10468002310A2250708D504F02004C2
:100810000C4304D0C46901230CA2641EC46130BC23
:1008200000F0A9B910B5044621461068FFF79CFEF8
:1008300002462046BDE810400023D1E7D21D22F039
:100840000701D1E90023CBE70000000030000000E1
:10085000F0B40D460188090502D5214C7C4402E024
:100860001F4C7C440E34002100F1240608E002F005
:100870000F071209E75D42EA03721B097754491C0E
:1008800052EA0307F3D102780023120704D5702D32
:1008900006D009B1022311342246F0BC00F06BB936
:1008A00001231034F8E770B504460D462146106860
:1008B000FFF75AFE024629462046BDE87040002355
:1008C000C6E7D21D22F00703D3E90023C0E703687F
:1008D000126843F0200303600823C3610023B7E7D5
:1008E0003C1601002DE9F05F894604464FF0000AEE
:1008F000DFF874B1FB44C0F820A02046E1688847C7
:10090000002874D0252806D0D4E901219047206A18
:10091000401C2062F1E700265F462046E1688847D8
:100920002028054607DB312D05D2781910F8200C58
:1009300008B10643F1E7B00701D526F00406C4F874
:100940001CA00027C4F818A02A2D09D0284611F0B1
:100950005BFA38B304EB8708303DC8F8185019E04B
:1009600059F8041B204604EB87029161E16888472F
:10097000012F054618D1E069002820DA26F020066C
:100980001DE0D8F8180000EB800005EB400030387F
:10099000C8F818002046E1688847054611F034FA87
:1009A0000028EED1012F0AD02E2D08D12046E16873
:1009B00088477F1C0546022F46F02006C4DBA0694D
:1009C000002803DA404246F00106A061F00701D09A
:1009D00026F010066C2D0BD0682D09D04C2D39D087
:1009E0006A2D35D0742D35D07A2D33D016E038E00D
:1009F000E1682F4620468847B842054609D16C2F4A
:100A000026D04FF48060E1680643204688470546BB
:100A100004E06C2F1AD04FF4807006430DB3A5F19B
:100A20004100192802D8203546F400664A46294676
:100A3000204626604E46FFF7BBFB80B101280BD055
:100A4000F61D26F0070000F1080956E74020E4E70C
:100A50008020D8E70020D6E706F104094DE72846B4
:100A600052E7206ABDE8F09FCC1501004FF000026C
:100A70000429C0F0128010F0030C3FF49FACCCF1BD
:100A8000040CBCF1020F18BF00F8012BA8BF20F81E
:100A9000022BA1EB0C01FFF791BC5FEAC17C24BFE4
:100AA00000F8012B00F8012B48BF00F8012B70471C
:100AB0000048704730010020034640688C460028FB
:100AC00018BF88423CBF03464068F8D318681844F2
:100AD000884207D00CF1030020F00700001D411AE6
:100AE000521A0146081D0A60FFF721BC30B5B0F16B
:100AF0000A0271F100034FEA900E4EEA817EB0EBDC
:100B00000E0061EB91014FEA101E4EEA017E10EBE0
:100B10000E0041EB11114FEA102E4EEA016E10EB60
:100B20000E0041EB11214FEA104E4EEA014E10EB40
:100B30000E0041EB1141401841F100014FEAD00095
:100B400040EA41704FEAD1014FEA810444EA9074CF
:100B500010EB800544EB01046D1944EB0404521BB7
:100B6000A3414FF0000348BF0A3200D530BD401CFE
:100B700041F1000130BD2DE9F0470D4699469246FE
:100B8000044600F124080168880604D5E06921F0D4
:100B90001001216000E00120A84201DD471B00E0B8
:100BA0000027A1697A1902EB0900081AA0612078D0
:100BB000C00602D42046FFF7A7FC002608E0D4E9CF
:100BC00001211AF806009047206A401C761C20621A
:100BD0004E45F4DB2078C0060AD52046FFF794FC8A
:100BE00006E0D4E9012130209047206A401C2062B1
:100BF000381EA7F10107F4DC07E0D4E9012118F859
:100C000005009047206A401C2062281EA5F10105BE
:100C1000F3DC2046FFF78EFC2078000602D5022088
:100C2000BDE8F0870120FBE72DE9FF4F0C461E468B
:100C30004FF0FF378BB0D2E90001DDF860800A90F9
:100C40008A46C1F30A5505B93D46002108464FF0D2
:100C50000000BAF1000F00F4400005DA00EB80005C
:100C60004FF4400101EA50004FEA9059B9F1010FE9
:100C700000DDB9460A9850EA4A000ED044F61050FA
:100C8000A5F2FF3545432F14B8F1000F1ED0754271
:100C9000291E1EDDC9F100021CE0B8F1010F4FF062
:100CA000000001D0302103E0F24305E02154401C54
:100CB000B042FBDB30460022002121540B99C1F8E1
:100CC0000880C1E900200FB0BDE8F08FBD1B6D1C8E
:100CD000DEE74A4600DA694206A800F0FBFB06ABF5
:100CE00093E8070003AB83E8070050460A9910F029
:100CF000AAFC8DE80700A0F500501F38009003986B
:100D0000002D0ADD42F21F014A460844002303A9D0
:100D10000390684610F014FF09E0A0F500504A4621
:100D20001F38002303A90390684610F01EFF8DE8CA
:100D300007000004000C03D04FF0FF30410800E032
:100D40001046B8F1000F03D00022009215461EE0B5
:100D5000751E05D4FFF7CAFE303262556D1EF9D5F7
:100D6000B3460122084302D000227F1C04E0207811
:100D7000302801D100227F1E002A099784D01DE06F
:100D8000112D07DAFFF7B2FE303262556D1C50EAC2
:100D90000102F5D1084302D00098C8B10EE000214D
:100DA000681E05E0235C625C63542254401E491CAB
:100DB0008142F7DBAB46A81B401E0990002004F8D7
:100DC0000B000B98099AC0F80880C0E9002B7AE75D
:100DD00011264FF0000857E72DE9F04F88460446EA
:100DE000D21D22F0070191B0D1E90001CDE90A013D
:100DF00010F0F2FF02460B98C00F01D02D2007E043
:100E00002068810701D52B2002E0202101EAC000E3
:100E1000032A099001D0072A05DB034641462046F4
:100E200000F018FB0BE12078800601D5E06900E0B6
:100E30000620B8F1650F814606D0B8F1660F18D0CC
:100E4000B8F1670F70D131E00020B9F1110F0090B7
:100E500001DB112301E009F101030AAA01A90CA891
:100E6000FFF7E2FEDDE90C70002609F1010583467B
:100E700047E001204B4600904FF000470AAA01A925
:100E80000CA8FFF7D1FEDDE90DB00C995D460026F8
:100E900010B909F101000D18B9EB050003D4C0F138
:100EA000FF3609F10105A5EB09002BE0B9F1010FAF
:100EB00001DA4FF001090020B9F1110F0090484606
:100EC00001DD112300E003460AAA01A90CA8FFF7DF
:100ED000ABFEDDE90C704D46002683462078000706
:100EE0000AD4AB4500DA5D4601A8012D04DD4119A5
:100EF00011F8011C302907D04F4502DA17F1040F11
:100F000004DA012082460FE06D1EEEE7002F02DCBE
:100F1000ED1B3E4403E0781CA84200DD7D1CB81B9D
:100F200000F1010A4FF000472078000703D4AA45DA
:100F300001DB4FF0FF3A0021B7F1004F0DF14308FC
:100F40008DF8431024D002202B23002F01DA7F429A
:100F50002D230A21021EA0F1010000DC5FB197FBE6
:100F6000F1FC97FBF1F201FB1C7C17460CF1300CF5
:100F700008F801CDEEE7A8F101000370218809050A
:100F800001D5452100E06521A0F1010800F8011C10
:100F900009980FA9A1EB0807FF1D00B10120411915
:100FA00001EBEA70A1693844081A401EA06120785C
:100FB000C00602D42046FFF7A7FA099828B1D4E961
:100FC00001219047206A401C20622078C00622D56B
:100FD0002046FFF799FA1EE0002E04DBB34502DD40
:100FE00001A8805D00E03020D4E901219047206A0B
:100FF000401C2062761CAAF101005FEA000A0AD1B7
:1010000000F024FAC0680168405CD4E901219047EF
:10101000206A401C2062281EA5F10105DCDC07E0E7
:10102000D4E9012118F8010B9047206A401C206286
:10103000381EA7F10107F3DC2046FFF77BFA0320F7
:1010400011B041E62DE9F04F04460D46D21D22F0C5
:10105000070089B0D0E900974846394610F0BCFE39
:101060000246F80F01D02D2307E02068810701D543
:101070002B2302E0202101EAC0038DF820300BB1C0
:10108000012000E00020032A824601D0072A04DB69
:101090002946204600F0DEF93FE12078800601D4A1
:1010A0000D2500E0E569C7F30A560D2D49DA002148
:1010B0004FEA175B08464FF00000002F00F4400095
:1010C00007DA00EB80004FF4400100EBD07001EA3A
:1010D00060008115012901DD4FF0FF3100224FEA48
:1010E000850CBCF1180F06D31346ACF118004FF075
:1010F0008052C24003E04FF4801323FA0CF30CF14A
:101100000C0CBCF1200F04D3ACF1200C09FA0CF04C
:1011100001E007FA0CF000294FF0004801DD18B992
:101120000FE00ED140450CD319EB02095F4121B904
:10113000404502D19F4329EA0209BBEB175F00D06B
:10114000761C2088000502D57B48784402E07A4866
:101150007844193808AA302302F80A30037C0AF1CF
:101160000101002E0AF1020A53546A4602DC4FF0D4
:10117000300101E04FF031014FF001088DF800100F
:1011800002D0A6F2FF3603E059EA470100D06B4EC9
:10119000002D02DC2178090704D54FF002082E212A
:1011A0008DF80110C44600210BE0C7F303433F0153
:1011B000C35C491C6D1E02F80830052908F10108BE
:1011C00001DA002DF1DC00210CE000EB1973491C61
:1011D0001B786D1E082902F808304FEA091908F13A
:1011E000010801DA002DF0DC21688B0602D516E03B
:1011F000A8F10108E04505DD02EB080313F8013C06
:10120000302BF5D0B8F1000F09DD02EB080313F81D
:10121000013C2E2B03D1090701D4A8F10108002DB0
:1012200005DD3E2102F808106D1E08F10108407C22
:10123000002E02F8080008F1010804DA2D20764299
:1012400002F8080002E02B2002F808000A214FF4FF
:101250007A70864208F101080BDB96FBF0F330331D
:1012600002F8083096FBF0F308F1010800FB136662
:1012700001E0642E0CDB642096FBF0F3303302F8BF
:10128000083096FBF0F308F1010800FB136601E05B
:101290000A2E06DB96FBF1F0303002F8080008F168
:1012A000010896FBF1F001FB1060303002F80800F5
:1012B000A16908F1010808EB050202EB0A00081A0F
:1012C000A0612078C00602D42046FFF71DF9216AEC
:1012D00008AE01EB0A00206204E0D4E9012116F80F
:1012E000010B9047BAF1010AF7D22078C00602D567
:1012F0002046FFF709F96E4609E016F8010B3E2873
:101300000FD0D4E901219047206A401C2062B8F137
:101310000108F2D22046FFF70DF909B00320BDE81D
:10132000F08F206A2844206203E0D4E901213020B4
:1013300090476D1EEBD3F8E79A0D010002FCFFFF0A
:1013400010B5436913B1AFF3008001E0FFF715F961
:10135000012010BD127800F124010A7000224A70A9
:101360000122EDE711684FF0FF32E9E710B543695C
:1013700013B1AFF3008001E0FFF796F9012010BD33
:10138000128800F1240182840022C2840122EDE748
:1013900011684FF0FF32E9E72DE9F04116460C469F
:1013A000054600F04BF8036893F80101012807D0C7
:1013B000FF2C12D8185D80B101202C70BDE8F0819F
:1013C000D3F807013246214603F20713C71828460F
:1013D000BC46BDE8F041002360474FF0FF30EDE729
:1013E00010B500F0F7F8BDE8104000F0EEB8704717
:1013F0007546FFF75DFBAE4605006946534620F093
:101400000700854618B020B5FEF750FFBDE8204024
:101410004FF000064FF000074FF000084FF0000BB0
:10142000AC46ACE8C009ACE8C009ACE8C009ACE81F
:10143000C00921F007018D467047000010B500F08B
:1014400005F8001D10BD00BFFD09010000487047F0
:10145000500100202DE9F0411F4604460326016893
:10146000072A01F4006004DB08B116A505E016A503
:1014700003E008B115A500E015A521F010002060DB
:10148000A069C01EA0610FB1401EA0612046FFF7F9
:101490003BF84FB1D4E9012138469047206A401CFF
:1014A0002062C01C206206E0206AFAE7D4E901212C
:1014B00015F8010B9047761EF8D22046FFF73AF850
:1014C000BDE8F0814E414E006E616E00494E46000F
:1014D000696E66002DE9F047814616468AB03548A8
:1014E00078440DC88DE80D0032487844801C03AC68
:1014F0000DC884E80D0041F69B300844372190FB6D
:10150000F1F290FBF1F5A5F1800501FB12041B3C03
:1015100002D56442012000E00020DFF898A0804658
:101520000027FA44AAF1BE0A0EE0E0070AD03246CC
:10153000684607EB470101230AEB810110F015FB18
:101540008DE8070064107F1C002CEED1194F7F44FA
:10155000AE3F19E0E80715D007EB04100DF1180AAB
:1015600090E80E008AE80E00C068F04201D1981998
:1015700008903246012306A903A810F0F6FA03AB3F
:1015800083E807006D10641C002DE3D14FF00103C8
:1015900032466946B8F1000F03A802D010F0D0FA25
:1015A00001E010F0E2FAC9E90001C9F808200AB028
:1015B000BDE8F087940A010010B50446AFF300803F
:1015C0002046BDE81040FEF75CBE002801D000F0C8
:1015D00029B8704710B5012805D0002103A000F0FC
:1015E00027F8012010BD09A1F8E700005349475230
:1015F000544D454D3A204F7574206F6620686561E3
:1016000070206D656D6F7279000000003A204865AA
:101610006170206D656D6F727920636F7272757085
:101620007465640001491820ABBEFEE72600020085
:1016300070B505460C460A2000E06D1C00F052F81B
:1016400035B128780028F8D102E0641C00F04AF88F
:1016500014B120780028F8D1BDE870400A2000F0CD
:1016600041B800000000000030B44FF0013C50F8D9
:10167000042B51F8043BCCFA52F4D51A20D1FCB912
:1016800050F8042B51F8043BCCFA52F4D51A17D178
:10169000B4B950F8042B51F8043BCCFA52F4D51AE3
:1016A0000ED16CB950F8042B51F8043BCCFA52F42B
:1016B000D51A05D1002CDAD030BC4FF000007047AD
:1016C00029BAB1FA81F111F01801D1F1200084405A
:1016D000F2D1CA40CB4012F0FF0213F0FF0330BC3E
:1016E000D01A704708B569468DF800000320ABBEDC
:1016F00008BD000083B00290019100200090FFE738
:101700000098072828DCFFE70299009A02EB4200C4
:10171000014408794B79897900F07F00000440EAA0
:1017200003200844019941F822000299009800EB37
:10173000400008440079802809DBFFE70199009AFE
:1017400051F82200A0F5000041F82200FFE7FFE772
:10175000009801300090D3E703B0704770B598B09F
:101760009C4696460C460546219820991F991E9A3C
:101770001D9A1C9B17951694ADF856E0CDF850C0F5
:10178000ADF84E308DF84D20ADF84A10ADF8480058
:1017900017984FF2B071C2F20101086016984FF627
:1017A000C421C2F201010860BDF856004FF6C22103
:1017B000C2F2010108809DF84D00C00738B1FFE773
:1017C0001498BDF84E10002201F046FA06E0149875
:1017D000BDF84E10012201F03FFAFFE7142001F09E
:1017E00011F81E98BDF84A1001220F9201F034FA48
:1017F0000F9A2098BDF8481001F02EFAC8200690E4
:1018000001F000F82098BDF848100022019201F084
:1018100023FA0220039000F0F5FF0F9A2098BDF8FC
:10182000481001F019FA039800F0ECFF019A4FF606
:10183000A121C2F201010291112008704FF6C420CB
:10184000C2F2010000684FF6C221C2F2010109880C
:1018500001F002FA02990F9A4FF2B070C2F2010041
:10186000006804F019FE0320FC2100F0E9F8642070
:10187000049000F0C7FF0398D02100F0E1F80F9822
:10188000F42100F0DDF8049800F0BCFF052007907B
:101890006021059100F0D4F805990620089000F029
:1018A000CFF805990720099000F0CAF8059908209B
:1018B0000A9000F0C5F8059909200B9000F0C0F8D7
:1018C00005990A200C9000F0BBF805990B200D90AB
:1018D00000F0B6F805990C200E9000F0B1F80F99C1
:1018E0000D2000F0ADF80F990E2000F0A9F8069831
:1018F00000F088FF079800F06FF8014608984EF650
:101900000452C2F201021192116000F065F8119ABE
:1019100001460998516000F05FF8119A01460A9853
:10192000916000F059F8119A01460B98D16000F0CF
:1019300053F8119A01460C98116100F04DF8119A74
:1019400001460D98516100F047F8119A01460E9832
:10195000916100F041F8119A01460F98D16100F0B1
:101960003BF8119908621520109000F035F8119A93
:1019700001461098516200F02FF81199886218B052
:1019800070BD000080B582B04FF6A120C2F2010008
:101990000090122101700022427082704FF6C42024
:1019A000C2F2010000684FF6C221C2F201010988AB
:1019B00001F052F900994FF2B070C2F201000068D4
:1019C0004FF67C22C2F2010201921D2304F0E4FBD7
:1019D000019802B080BD000080B584B08DF80F0082
:1019E0009DF80F0040F020014FF6A120C2F2010047
:1019F00001900170002242708270C2704FF6C420C4
:101A0000C2F2010000684FF6C221C2F2010109884A
:101A100001F022F901994FF2B070C2F201000068A2
:101A20004FF67C22C2F201020292042304F0B4FBBE
:101A3000642000F0E7FE0298807804B080BD0000CA
:101A400080B582B08DF807008DF806109DF807006C
:101A500040F040004FF6A121C2F201010091087050
:101A600000224A709DF8060088704FF6C420C2F22A
:101A7000010000684FF6C221C2F20101098801F09D
:101A8000EBF800994FF2B070C2F201000068032237
:101A900004F002FD642000F0B5FE02B080BD00003D
:101AA00080B582B00190019807F0C0FA8DF803006C
:101AB0000198183007F00AFA01469DF80300084320
:101AC0008DF803004FF23000C2F2010000880128B7
:101AD00016D1FFE701994FF40070C863019948637C
:101AE00001998B68CA6B012000EB93105043800270
:101AF00008630199086BCA6BB0FBF2F0886325E0BC
:101B000001990889C0F38B0001300863019A107BAA
:101B100000F00700811C012000FA01F3116B59430A
:101B20001163019A4FF40071D16301998A88120BF5
:101B3000904048630199086B4A6B504308630199D0
:101B4000086BCA6BB0FBF2F08863FFE79DF80300F7
:101B500002B080BD80B586B069460220086002A848
:101B60000D210022FF23019307F04CFE9DF80C008D
:101B70008DF8140002980490012007F0BBFD019835
:101B800007F0FAFD9DF8100040B9FFE79DF811003D
:101B900020B9FFE700208DF8170003E001208DF841
:101BA0001700FFE79DF8170006B080BD80B507F06D
:101BB000BFFD40F2F031C2F200010120087007F0D1
:101BC00065FC80BD80B596B0159014911392129368
:101BD00000201190012106918DF83F100E904FF4D6
:101BE0000071ADF82E10BDF82E20694608600AA8D5
:101BF0001021FF23079307F005FE06989DF82C108F
:101C00008DF834100A990C9107F074FD079807F0CD
:101C1000B3FD9DF8300008B1FFE778E0BDF82E0075
:101C2000FEF756FB0E900E9808B9FFE76FE00E988E
:101C3000BDF82E10FF22FEF7B7FB149805904FF267
:101C40003000C2F201000088012803D1FFE7012023
:101C5000049003E0BDF82E000490FFE70598049976
:101C600048431090FFE71398411E139100284AD073
:101C7000FFE7109A69460020086008A81121FF2399
:101C800007F0C0FD9DF824008DF8340008980C90F2
:101C90009DF8300008B1FFE739E0FE2007F040FE74
:101CA00048BBFFE70E981599119A1144BDF82E20F4
:101CB00007F072FDBDF82E101198084411904FF2F4
:101CC0003000C2F201000088012804D1FFE710981B
:101CD0000130039005E01098BDF82E1008440390E1
:101CE000FFE703981090FF20029007F045FD02984F
:101CF00007F042FD00E00AE0012007F0FBFCFF20B6
:101D000007F03AFDAFE700208DF83F00FFE7012024
:101D100007F0F0FCFF2007F02FFD0E9820B1FFE741
:101D20000E98FEF704FBFFE79DF83F0016B080BD5C
:101D300080B596B0159014911392129300201190D3
:101D4000012106918DF83F100E904FF40071ADF80F
:101D50002E10BDF82E20694608600AA81021FF2326
:101D6000079307F04FFD06989DF82C108DF834105E
:101D70000A990C9107F0BEFC079807F0FDFC9DF84E
:101D8000300008B1FFE77BE0BDF82E00FEF7A0FAB7
:101D90000E900E9808B9FFE772E0149805904FF284
:101DA0003000C2F201000088012803D1FFE70120C2
:101DB000049003E0BDF82E000490FFE70598049915
:101DC00048431090FFE71398411E1391002853D009
:101DD000FFE7109A69460020086008A81821FF2331
:101DE00007F010FD9DF824008DF8340008980C9041
:101DF0009DF8300008B1FFE742E0FF20039007F0B4
:101E0000BBFC039807F0B8FCFE2007F0B5FC159862
:101E1000119908440E99BDF82E2007F0BDFCBDF8BD
:101E20002E101198084411904FF23000C2F20100B8
:101E30000088012804D1FFE710980130029005E0E6
:101E40001098BDF82E1008440290FFE702981090F9
:101E5000FF20019007F090FC019807F08DFC07F03F
:101E6000D7FA052801D0FFE70AE0012007F042FC7D
:101E7000FF2007F081FCA6E700208DF83F00FFE778
:101E80000E9820B1FFE70E98FEF751FAFFE7012008
:101E900007F030FCFF2007F06FFC9DF83F0016B004
:101EA00080BD0000FFE7FEE784B08DF80F000291CF
:101EB000ADF806209DF80F000146009123281DD89B
:101EC0000099DFE801F012131415161B1B1B1B1BD6
:101ED0001B1B1B1B1B1B1B1B1B1B1B1B1B1B1B1B52
:101EE0001B1B1B1B1B1B1718191A08E007E006E039
:101EF00005E004E003E002E001E000E0FFE700208D
:101F000004B070470020704780B582B04FF23400B3
:101F1000C2F20100009041F21401C2F2000100225D
:101F2000019209F001FB009840F61401C2F2000191
:101F300009F0DCFA019802B080BD000080B584B0E1
:101F40000390029103994FF23400C2F20100019014
:101F500009F0CCFA019809F05FFA002004B080BDC6
:101F600083B0029001918DF8032000208DF80200CB
:101F70009DF9020003B0704780B586B00490ADF8BB
:101F80000E1000208DF80D004FF23400C2F2010057
:101F9000D0F8BC0202900298D0F8140220B1FFE7FA
:101FA00001208DF8170013E00499BDF80E204FF2C0
:101FB0003400C2F20100019009F0B6FA019809F06C
:101FC000BDFB8DF80D009DF80D008DF81700FFE7A3
:101FD0009DF8170006B080BD80B54FF27030C2F298
:101FE000010000F037FA80BD80B54FF21030C2F228
:101FF000010000F02FFA80BD80B54FF21030C2F220
:10200000010000F085F980BD82B001900198006860
:1020100040F20741C4F2020188420BD8FFE7019960
:10202000486C20F0030040F60002C4F202021044A3
:1020300088640AE00199486C20F0030040F61C0215
:10204000C4F2020210448864FFE70198007808385F
:102050004CF6CD41CCF6CC41A0FB0110000900901C
:10206000019940F68000C4F20200C864009800F0B4
:102070001F01012088400199086502B070470000E7
:1020800082B001900198406800F03F0000900099F4
:1020900040F6FC00C4F2020000EB810001994865A3
:1020A000019940F64010C4F202008865009801389A
:1020B00000F00301012088400199C86502B0704713
:1020C00084B003900291019200930398C16C006D5B
:1020D00048600398406D28B1FFE70398816DC06D9B
:1020E0004860FFE70398016C406C00F01C0201207F
:1020F0009040486000980399096848600398806898
:10210000102809D1FFE701980399096888600298AF
:1021100003990968C86008E0029803990968886013
:10212000019803990968C860FFE704B07047000090
:102130007047000080B54FF4006000F0ADFB80BD3B
:1021400080B5022000F0A8FB80BD000080B52020F3
:1021500000F0A2FB80BD000081B0EFF3108072B6EA
:102160000090FFE7FEE7000080B582B0019000918B
:1021700001980099002200F003F802B080BD000031
:1021800084B0039002918DF8072001208DF806009D
:1021900000208DF805004FF22400C2F20100407AC1
:1021A000002827DCFFE74FF22403C2F2010300936B
:1021B000597A0020585403995A7A03EB82025160ED
:1021C0009DF807105A7A1A441172597A4A1C5A72A9
:1021D0008DF805109DF805103031029A1170029AA1
:1021E0003A215170029A2F2191700299C8708DF88E
:1021F0000600FFE79DF8060004B0704780B582B086
:10220000019001984FF64C01C2F201010DF07EFEE3
:10221000ADF80000BDF80000404200B202B080BD41
:1022200080B584B047F29050C1F6FF70006803900B
:1022300047F29450C1F6FF700068029047F2985040
:10224000C1F6FF700068019001990398084403905B
:10225000039888B1FFE7039840F2E801C2F2000159
:1022600000910231082205F0A7F900990298123175
:10227000042205F0A1F9FFE704B080BD83B001900E
:102280000091019890F82500012839D1FFE7FFE778
:10229000019890F82400012804D1FFE702208DF86E
:1022A0000B0031E00199012081F82400FFE7FFE7EE
:1022B0000198806C00684FF6FF51CEF20001084093
:1022C000009AD3680021CFF6F87101EBC34C116876
:1022D000536841EA0C011943137A41EA0341527AE7
:1022E00041EA422108430199896C0860FFE701999E
:1022F000002081F82400FFE700208DF80B0003E0A8
:1023000001208DF80B00FFE79DF80B0003B070472C
:1023100080B582B001900198C06C00680199096D88
:10232000084218D0FFE70198816C086820F480709B
:1023300008600198C16C006D48600199C86B40F459
:102340000070C8630198406B20B1FFE70198416BB2
:102350008847FFE7FFE70198406D08B3FFE7019862
:10236000806D00680199C96D084218D0FFE7019897
:10237000416D086820F4807008600198816DC06D1F
:1023800048600199C86B40F48060C8630198406B55
:1023900020B1FFE70198416B8847FFE7FFE7FFE7C0
:1023A00002B080BD80B582B0019000208DF803009E
:1023B000019890F82500022807D0FFE70199042032
:1023C000C86301208DF803003FE0019801680868A8
:1023D00020F00E00086001980168086820F00100F4
:1023E00008600198816C086820F48070086001988A
:1023F000016C406C00F01C02012090404860019884
:10240000C16C006D48600198406D58B1FFE70198BC
:10241000416D086820F4807008600198816DC06D7E
:102420004860FFE70199012081F82500FFE7019945
:10243000002081F82400FFE70198806B20B1FFE7BE
:102440000198816B8847FFE7FFE79DF8030002B022
:1024500080BD000080B584B003900398006C0068D4
:102460000290039800680068019002980399496CF3
:1024700001F01C01C8404007002825D5FFE79DF862
:102480000400400700281FD5FFE703980068006894
:102490008006002807D4FFE703980168086820F049
:1024A00004000860FFE70398016C406C00F01C0218
:1024B0000420904048600398006B20B1FFE7039828
:1024C000016B8847FFE76EE002980399496C01F0C1
:1024D0001C01C840800700282FD5FFE79DF80400A5
:1024E0008007002829D5FFE7039800680068800668
:1024F00000280BD4FFE703980168086820F00A0061
:1025000008600399012081F82500FFE70398016C1A
:10251000406C00F01C02022090404860FFE70399E5
:10252000002081F82400FFE70398C06A20B1FFE78C
:102530000398C16A8847FFE734E002980399496C21
:1025400001F01C01C8400007002829D5FFE79DF8CD
:1025500004000007002823D5FFE7039801680868F6
:1025600020F00E0008600398026C406C00F01C0123
:10257000012000FA01F151600399C863039981F8C1
:102580002500FFE70399002081F82400FFE7039866
:10259000406B20B1FFE70398416B8847FFE700E0FD
:1025A000FFE7FFE7FFE704B080BD000080B584B01F
:1025B0000290029820B9FFE701208DF80F009EE0FD
:1025C0000298006840F20741C4F20201884218D81C
:1025D000FFE7029908684FF6F872CBF6FD721044D7
:1025E0004CF6CD42CCF6CC42A0FB02026FF00300C9
:1025F00000EA9200486402990020C4F202000864D4
:1026000018E0029908684FF6F832CBF6FD721044D4
:102610004CF6CD42CCF6CC42A0FB02026FF0030098
:1026200000EA92004864029940F20040C4F20200BD
:102630000864FFE70299022081F8250002980068EB
:1026400000680190019847F6F07188430190029963
:102650008868D1F80CC00B694A6940EA0C0018433D
:1026600010438A691043CA691043096A01430198FB
:102670000843019001980299096808600298FFF7E1
:10268000C3FC02988068B0F5804F04D1FFE702993F
:1026900000204860FFE702994868896C00F03F001D
:1026A00008600298C16C006D48600298406888B16B
:1026B000FFE70298406804280CD8FFE70298FFF76C
:1026C000DFFC0298416D002008600298816DC06DAA
:1026D000486007E0029900204865029988650299E0
:1026E000C865FFE702990020C863029A012182F8B9
:1026F0002510029981F824008DF80F00FFE79DF85E
:102700000F0004B080BD000080B586B00490039136
:102710000292019300208DF80300FFE7049890F8DF
:102720002400012804D1FFE702208DF8170065E09E
:102730000499012081F82400FFE7FFE7049890F84E
:10274000250001284BD1FFE70499022081F82500DC
:1027500004990020C86304980168086820F001000B
:10276000086004980399029A019BFFF7A9FC04985A
:10277000006B38B1FFE704980168086840F00E006C
:1027800008600CE004980168086820F00400086004
:1027900004980168086840F00A000860FFE70498A0
:1027A000806C0068C003002807D5FFE70498816C9F
:1027B000086840F480700860FFE70498406D38B105
:1027C000FFE70498416D086840F480700860FFE7F7
:1027D00004980168086840F00100086009E0FFE71C
:1027E0000499002081F82400FFE702208DF80300FF
:1027F000FFE79DF803008DF81700FFE79DF817002D
:1028000006B080BD80B584B0039000F03BFA029022
:10281000039801900198013048B1FFE740F2281079
:10282000C2F200000178019808440190FFE7FFE739
:1028300000F028FA0299401A0199884201D2FFE774
:10284000F6E704B080BD000080B582B0ADF80600A8
:10285000BDF8060001460091022811D0FFE700985C
:10286000202812D0FFE70098B0F5006F10D1FFE7E5
:10287000FFF788F84EF60051C2F20101086008E047
:102880001420F021FFF7DCF803E00CF05DFA00E023
:10289000FFE702B080BD000080B582B0ADF8060051
:1028A00040F60C00C5F600000068BDF806100842AE
:1028B0000CD0FFE7BDF8060040F60C01C5F600019C
:1028C0000860BDF80600FFF7BFFFFFE702B080BD5C
:1028D00089B00890079100200690FFE707980068EC
:1028E0000699C840002800F08881FFE70798006833
:1028F000069A01219140084005900598002800F0B3
:102900007881FFE70798406800F00300012807D0AE
:10291000FFE70798406800F0030002282FD1FFE787
:1029200008988068049006984100032000FA01F19D
:102930000498884304900798C0680699490000FAF3
:1029400001F1049808430490049808998860089855
:10295000406804900699012000FA01F10498884328
:10296000049007984068C0F30010069900FA01F13E
:10297000049808430490049808994860FFE7079872
:10298000406800F00300032818D0FFE70898C068EB
:10299000049006984100032000FA01F1049888434E
:1029A0000490079880680699490000FA01F104989C
:1029B0000843049004980899C860FFE707984068A6
:1029C00000F00300022826D1FFE7089806996FF06F
:1029D000030202EA51010844006A0490069800F0DC
:1029E000070081000F2000FA01F104988843049049
:1029F00007980069069901F00701890000FA01F1C2
:102A000004980843049004980899069B02EA53022C
:102A100011440862FFE70898006804900698410096
:102A2000032000FA01F10498884304900798406855
:102A300000F003000699490000FA01F104980843E8
:102A40000490049808990860079880798007002806
:102A500000F0CE80FFE7069820F003000821C4F2C2
:102A6000010140580490069800F0030081000F20F7
:102A700000FA01F10498884304900898B0F1904F4F
:102A800003D1FFE70020039034E0089840F20041B2
:102A9000C4F60001884203D1FFE70120029026E03E
:102AA000089840F60001C4F60001884203D1FFE710
:102AB0000220019018E0089840F60041C4F6000199
:102AC000884203D1FFE7032000900AE0089941F211
:102AD0000002C4F600020720914208BF04200090C3
:102AE000FFE700980190FFE701980290FFE7029846
:102AF0000390FFE70398069901F00301890000FAAB
:102B000001F10498084304900498069921F0030108
:102B10000822C4F20102885040F60000C5F6000009
:102B20000068049005990498884304900798807978
:102B3000C006002805D5FFE70599049808430490CE
:102B4000FFE7049840F60001C5F60001086040F672
:102B50000400C5F6000000680490059904988843B5
:102B60000490079880798006002805D5FFE705992D
:102B7000049808430490FFE7049840F60401C5F662
:102B80000001086040F68000C5F60000006804906F
:102B9000059904988843049007988079C00728B164
:102BA000FFE70599049808430490FFE7049840F66E
:102BB0008001C5F60001086040F68400C5F60000FB
:102BC00000680490059904988843049007988079D8
:102BD0008007002805D5FFE705990498084304906D
:102BE000FFE7049840F68401C5F600010860FFE79E
:102BF000FFE706980130069070E609B070470000C4
:102C000082B00190ADF8021001980069BDF8021081
:102C1000084204D0FFE701208DF8010003E0002006
:102C20008DF80100FFE79DF8010002B07047000039
:102C300083B00290ADF80610029840690090009AA7
:102C4000BDF8060002EA0001904340EA0140029903
:102C5000886103B07047000082B00190ADF80210A7
:102C60008DF801209DF8010028B1FFE7BDF80200B2
:102C70000199886104E0BDF8020001998862FFE7CC
:102C800002B070474FF6DC20C2F2010000687047C6
:102C900040F22C10C2F200000068704740F2281089
:102CA000C2F2000002784FF6DC21C2F2010108688E
:102CB000104408607047000080B582B000208DF895
:102CC000070044F20001C5F60001086840F4807076
:102CD0000860032000F076F80E2000F00DF820B117
:102CE000FFE701208DF8070002E000F047F8FFE75A
:102CF0009DF8070002B080BD80B582B00190002031
:102D00008DF8030040F22810C2F20000007860B392
:102D1000FFE701F0D1FD40F22811C2F200010A786C
:102D20004FF47A71B1FBF2F1B0FBF1F003F05CFE0D
:102D3000B0B9FFE701980F280DD8FFE701994FF0D0
:102D4000FF30002200F026F8019840F22C11C2F268
:102D50000001086003E001208DF80300FFE703E0B5
:102D600001208DF80300FFE703E001208DF8030048
:102D7000FFE79DF8030002B080BD0000704700002F
:102D800080B582B08DF807009DF907000BF07CFF3D
:102D900002B080BD80B586B08DF817000491039213
:102DA0000BF08AFF02909DF9170001900298049998
:102DB000039A05F061FA014601980BF085FF06B011
:102DC00080BD000080B582B0019001980BF09EFF9D
:102DD00002B080BD82B00190019800680090019916
:102DE0000120C1F8E8020199002081F8E002009A70
:102DF000B2F8541041F00101A2F85410009AB2F850
:102E0000541041F00201A2F8541002B070470000C3
:102E100080B584B003908DF80B109DF80B0001462F
:102E2000019120B1FFE70198012815D027E0039810
:102E3000806958B1FFE707F0F9F94EF61051CEF26C
:102E40000001086820F006000860FFE70398D0F84A
:102E5000F00209F099FB12E00398D0F8F00209F0B3
:102E600071FC0398806948B1FFE74EF61051CEF22D
:102E70000001086840F006000860FFE7FFE704B0C3
:102E800080BD000084B00390ADF80A10ADF80820B2
:102E90000193BDF80A00000600280CD5FFE703984F
:102EA000BDF80A1001F0070101EB810100EBC10040
:102EB000283000900AE00398BDF80A1001EB810168
:102EC00000EBC10000F5B4700090FFE7BDF808000A
:102ED00038B9FFE700990020087301980099C8806D
:102EE0000AE0009901200873019800990881BDF853
:102EF000060000994881FFE7002004B070470000F9
:102F000080B582B001908DF80310019AD2F8F002DA
:102F10009DF8031001EB810302EBC302D26B09F0B1
:102F200069F802B080BD000080B582B001908DF8D4
:102F30000310019AD2F8F0029DF8031001EB81030F
:102F400002EBC302D2F87C2109F01CF902B080BD6B
:102F500080B584B002908DF807109DF80700000638
:102F600000280FD5FFE702989DF8071001F0070130
:102F700001EB810100EBC100283000900099012095
:102F800048700FE002989DF8071001F0070101EB6F
:102F9000810100EBC10000F5B470009000990020A1
:102FA0004870FFE79DF8070000F0070000990870DF
:102FB000FFE7029890F8A802012804D1FFE7022059
:102FC0008DF80F0014E00299012081F8A802FFE7B4
:102FD000FFE70298006800990AF0BEFBFFE702993C
:102FE000002081F8A802FFE700208DF80F00FFE71E
:102FF0009DF80F0004B080BD80B584B002908DF8BC
:1030000007109DF8070000F00F00029949688842F8
:1030100004D9FFE701208DF80F004DE09DF807006F
:10302000000600280FD5FFE702989DF8071001F071
:10303000070101EB810100EBC100283000900099ED
:10304000012048700FE002989DF8071001F0070179
:1030500001EB810100EBC10000F5B4700090009914
:1030600000204870FFE70099002088709DF8070055
:1030700000F0070000990870FFE7029890F8A80296
:10308000012804D1FFE702208DF80F0014E0029917
:10309000012081F8A802FFE7FFE702980068009985
:1030A0000AF04AFDFFE70299002081F8A802FFE735
:1030B00000208DF80F00FFE79DF80F0004B080BDE1
:1030C00080B586B005900491ADF80E20BDF80E00D5
:1030D0004004002876D5FFE705980068B0F8500056
:1030E0000499097800EBC100059909680844B0F813
:1030F00002046FF39F20ADF80C0004988069BDF8BE
:103100000C10884207D3FFE7BDF80C2004998869AA
:10311000801A886103E0049900208861FFE7049821
:103120008069F8B9FFE7FFE7059800680499097816
:1031300030F821004BF68F710840ADF80A00BDF859
:103140000A0080F40050ADF80A00BDF80A0048F209
:103150008001084305990968049A127821F8220031
:10316000FFE7FFE7BDF80E00400600281BD5FFE78C
:10317000FFE7FFE7059800680499097830F8210017
:1031800048F68F710840ADF80800BDF8080048F215
:10319000C001084305990968049A127821F82200B1
:1031A000FFE7FFE7FFE7BDF80C0050B1FFE7059828
:1031B0000068049A51691289BDF80C300BF0D2FCFA
:1031C000FFE775E005980068B0F8500004990978A9
:1031D00000EBC100059909680844B0F806046FF3D4
:1031E0009F20ADF80C0004988069BDF80C1088424F
:1031F00007D3FFE7BDF80C2004998869801A88611D
:1032000003E0049900208861FFE704988069F8B919
:10321000FFE7FFE7059800680499097830F8210076
:103220004BF68F710840ADF80600BDF8060080F43B
:103230000050ADF80600BDF8060048F280010843D2
:1032400005990968049A127821F82200FFE7FFE740
:10325000BDF80E00400600281BD4FFE7FFE7FFE79C
:10326000059800680499097830F8210048F68F71B4
:103270000840ADF80400BDF8040048F2C00108435E
:1032800005990968049A127821F82200FFE7FFE700
:10329000FFE7BDF80C0050B1FFE705980068049AFD
:1032A00051695289BDF80C300BF05CFCFFE7FFE779
:1032B000BDF80C0006B080BD80B5A6B02590249165
:1032C000ADF88E20BDF88E004006002840F1BA818E
:1032D000FFE725980068B0F850002499097800EBC2
:1032E000C100259909680844B0F802046FF39F20D3
:1032F000ADF8860024988069BDF88610884207D909
:10330000FFE7BDF8862024998869801A886103E068
:10331000249900208861FFE724988069002840F004
:10332000B080FFE7FFE72498407808BBFFE7FFE79E
:1033300025980068209025980068B0F850102098D3
:103340000844209020982499097800EBC10000F2ED
:1033500002401F90FFE71F9908886FF39F200880A5
:103360001F99088840F400400880FFE7FFE71DE050
:1033700024984078012818D1FFE7FFE725980068D6
:103380001D9025980068B0F850101D9808441D90B5
:103390001D982499097800EBC10000F202401C90AE
:1033A0001C9900200880FFE7FFE7FFE7FFE7FFE742
:1033B000259800681B902498407808BBFFE7FFE73A
:1033C00025980068199025980068B0F85010199851
:1033D0000844199019982499097800EBC10000F26B
:1033E00006401890FFE7189908886FF39F2008801F
:1033F0001899088840F400400880FFE7FFE718E0CC
:1034000024984078012813D1FFE725980068B0F888
:1034100050101B9808441B901B982499097800EBC6
:10342000C10000F206401A901A9900200880FFE7B8
:10343000FFE7FFE7259824990978FFF761FDBDF8BC
:103440008E00400400281BD5FFE7FFE7FFE7259823
:1034500000682499097830F8210048F68F710840F7
:10346000ADF85A00BDF85A004CF280010843259986
:103470000968249A127821F82200FFE7FFE7FFE7A6
:10348000DFE0BDF88E00400400281BD5FFE7FFE712
:10349000FFE7259800682499097830F8210048F65C
:1034A0008F710840ADF85800BDF858004CF280010B
:1034B000084325990968249A127821F82200FFE729
:1034C000FFE7FFE7249890F82400012840F0B88037
:1034D000FFE7BDF886202499486910444861BDF88B
:1034E00086202499C8691044C86124980169006A3B
:1034F000884209D3FFE7249800692290229A2499F0
:10350000086A801A086216E02498006A40B9FFE74A
:10351000BDF8860022902499002081F8240009E05B
:103520002499002081F824002499096A2291249981
:103530000862FFE7FFE7FFE724984078002856D1AC
:10354000FFE7FFE725980068159025980068B0F818
:10355000501015980844159015982499097800EB97
:10356000C10000F202401490FFE7149908886FF33D
:103570009F20088022983F2817D3FFE7FFE7229873
:10358000400913909DF88800C00620B9FFE7139802
:1035900001381390FFE7139A1499088840EA8220B3
:1035A00040F400400880FFE71EE0229830B9FFE7B2
:1035B0001499088840F40040088014E0FFE722983E
:1035C000400813909DF88800C00720B1FFE71398CA
:1035D00001301390FFE7139A1499088840EA82207B
:1035E0000880FFE7FFE7FFE7FFE7FFE71DE024981C
:1035F0004078012818D1FFE7FFE72598006812906E
:1036000025980068B0F8501012980844129012984B
:103610002499097800EBC10000F202401190229831
:1036200011990880FFE7FFE7FFE7FFE725980068AB
:10363000249A51691289BDF888300BF0E5FAFFE74A
:10364000FFE7B6E125980068B0F8500024990978A2
:1036500000EBC100259909680844B0F806046FF32F
:103660009F20ADF8860024988069BDF886108842B6
:1036700007D3FFE7BDF8862024998869801A8861FE
:1036800003E0249900208861FFE7249880690028DE
:1036900040F0B080FFE7FFE72498407808BBFFE7E1
:1036A000FFE725980068109025980068B0F8501042
:1036B00010980844109010982499097800EBC100E4
:1036C00000F202400F90FFE70F9908886FF39F20E8
:1036D00008800F99088840F400400880FFE7FFE762
:1036E0001DE024984078012818D1FFE7FFE72598CE
:1036F00000680D9025980068B0F850100D980844A7
:103700000D900D982499097800EBC10000F2024059
:103710000C900C9900200880FFE7FFE7FFE7FFE728
:10372000FFE7259800680B902498407808BBFFE7D6
:10373000FFE725980068099025980068B0F85010B8
:1037400009980844099009982499097800EBC10068
:1037500000F206400890FFE7089908886FF39F2061
:1037600008800899088840F400400880FFE7FFE7D8
:1037700018E024984078012813D1FFE725980068C5
:10378000B0F850100B9808440B900B9824990978C6
:1037900000EBC10000F206400A900A990020088060
:1037A000FFE7FFE7FFE7259824990978FFF7A8FBD3
:1037B000BDF88E00400400281BD4FFE7FFE7FFE7B9
:1037C000259800682499097830F8210048F68F710F
:1037D0000840ADF81A00BDF81A004CF28001084309
:1037E00025990968249A127821F82200FFE7FFE75B
:1037F000FFE7DDE0BDF88E00400400281BD4FFE7A2
:10380000FFE7FFE7259800682499097830F8210040
:1038100048F68F710840ADF81800BDF818004CF25A
:103820008001084325990968249A127821F822001A
:10383000FFE7FFE7FFE7249890F82400012840F015
:10384000B680FFE7BDF88620249948691044486196
:10385000BDF886202499C8691044C861249801697C
:10386000006A884209D3FFE7249800692290229ACF
:103870002499086A801A086216E02498006A40B900
:10388000FFE7BDF8860022902499002081F82400EB
:1038900009E02498006A2290249900200862249963
:1038A00081F82400FFE7FFE7FFE72598006805900F
:1038B00024984078002856D1FFE7FFE72598006854
:1038C000039025980068B0F85010039808440390BE
:1038D00003982499097800EBC10000F20640029099
:1038E000FFE7029908886FF39F20088022983F28FD
:1038F00017D3FFE7FFE72298400901909DF8880061
:10390000C00620B9FFE7019801380190FFE7019A4E
:103910000299088840EA822040F400400880FFE7CE
:103920001EE0229830B9FFE70299088840F4004071
:10393000088014E0FFE72298400801909DF8880075
:10394000C00720B1FFE7019801300190FFE7019A1D
:103950000299088840EA82200880FFE7FFE7FFE736
:10396000FFE7FFE718E024984078012813D1FFE72C
:1039700025980068B0F850100598084405900598FF
:103980002499097800EBC10000F2064004902298C7
:1039900004990880FFE7FFE7FFE725980068249A6D
:1039A00051695289BDF888300BF02EF9FFE7FFE727
:1039B000FFE7FFE7259800682499097830F821008F
:1039C00048F6BF710840ADF80200BDF8020080F073
:1039D0001000ADF80200BDF8020080F02000ADF844
:1039E0000200BDF8020048F28001084325990968E9
:1039F000249A127821F82200FFE7002026B080BD2B
:103A000082B001908DF8031001989DF8031001F029
:103A1000070101EB810100EBC100D0F8840102B085
:103A20007047000080B586B004908DF80F10ADF897
:103A30000C208DF80B3000208DF80A009DF80F0047
:103A4000000600280FD5FFE704989DF80F1001F03D
:103A5000070101EB810100EBC100283001900199C1
:103A6000012048700FE004989DF80F1001F0070145
:103A700001EB810100EBC10000F5B47001900199E8
:103A800000204870FFE79DF80F0000F00700019943
:103A90000870BDF80C00019908619DF80B000199B0
:103AA000C8709DF80B00022804D1FFE7019900209F
:103AB0000871FFE7FFE7049890F8A802012804D1F5
:103AC000FFE702208DF8170015E00499012081F826
:103AD000A802FFE7FFE704980068019909F0F0FAEF
:103AE000FFE70499002081F8A802FFE79DF80A008B
:103AF0008DF81700FFE79DF8170006B080BD0000A5
:103B000080B586B005908DF8131003920293059846
:103B10009DF8131001F0070101EB810100EBC100DA
:103B200000F5B470019003980199486102980199D9
:103B30008861019900200090C861019948709DF842
:103B4000130000F0070001990870059800680199BA
:103B50000AF0DAF8009806B080BD000080B584B0A5
:103B600002908DF807109DF8070000F007000299F9
:103B70004968884204D9FFE701208DF80F004BE027
:103B80009DF80700000600280FD5FFE702989DF872
:103B9000071001F0070101EB810100EBC1002830A3
:103BA00000900099012048700DE002989DF80710E0
:103BB00001EB810100EBC10000F5B47000900099A9
:103BC00000204870FFE70099012088709DF80700E9
:103BD00000F0070000990870FFE7029890F8A8022B
:103BE000012804D1FFE702208DF80F0014E00299AC
:103BF000012081F8A802FFE7FFE70298006800991A
:103C00000AF03EF8FFE70299002081F8A802FFE7DA
:103C100000208DF80F00FFE79DF80F0004B080BD75
:103C200080B586B005908DF8131003920293059825
:103C30009DF8131001F0070101EB810100EBC100B9
:103C40002830019003980199486102980199886190
:103C50000199012081F824000299019A1162019AC8
:103C600000210091D161019948709DF8130000F086
:103C70000700019908700598006801990AF044F856
:103C8000009806B080BD000080B582B00190019818
:103C900000680AF05DFF00909DF801000006002812
:103CA00004D5FFE7019804F01DFBDFE09DF801005B
:103CB0004007002810D5FFE701980168B1F84400DB
:103CC00020F48060A1F84400019800F013FA0198F4
:103CD000002100F04FFAC9E09DF8010040060028DD
:103CE00009D5FFE701980168B1F8440020F480404D
:103CF000A1F84400BAE09DF801008006002809D52B
:103D0000FFE701980168B1F8440020F40050A1F8E1
:103D10004400ABE09DF80100C00600282AD5FFE76B
:103D200001980168B1F8400020F00400A1F84000BB
:103D300001980168B1F8400020F00800A1F84000A7
:103D4000019890F8E002012808D1FFE701980021CE
:103D500080F8E0120198FFF75BF8FFE7019800F0A8
:103D6000E5F901980168B1F8440020F48050A1F809
:103D700044007BE09DF80100000700281CD5FFE708
:103D800001980168B1F8400040F00800A1F8400037
:103D900001980168B1F8440020F40060A1F84400E3
:103DA00001980168B1F8400040F00400A1F840001B
:103DB000019800F045FA59E09DF80000000600283F
:103DC00034D5FFE701980168B1F8440020F0800085
:103DD000A1F84400019890F8E00210BBFFE70198B9
:103DE0000168B1F8400040F00400A1F840000198DB
:103DF0000168B1F8400040F00800A1F840000198C7
:103E0000012180F8E01201980068B0F8540000F039
:103E1000F0008008019AC2F8E4020198FEF7F8FF6A
:103E200003E0019800F00CFAFFE71FE09DF80100A5
:103E3000800700280CD5FFE701980168B1F844001D
:103E400020F40070A1F84400019800F089F90DE019
:103E50009DF80100C00748B1FFE701980168B1F87B
:103E6000440020F48070A1F84400FFE702B080BD58
:103E7000F0B589B00790079820B9FFE701208DF8C9
:103E80002300DCE0079890F8A90240B9FFE7079902
:103E9000002081F8A802079800F0D6F8FFE70799FC
:103EA000032081F8A9020798006809F035FE002078
:103EB0008DF81B00FFE79DF81B00079949688842B1
:103EC0003CD2FFE707989DF81B1001EB810100EB46
:103ED000C101012081F829009DF81B00079900EB22
:103EE000800201EBC20181F8280007989DF81B10A1
:103EF00001EB810100EBC101002081F82B00079943
:103F00009DF81B2002EB820201EBC2018863079936
:103F10009DF81B2002EB820201EBC201C8630799E6
:103F20009DF81B2002EB820201EBC2010864FFE74F
:103F30009DF81B0001308DF81B00BCE700208DF8B8
:103F40001B00FFE79DF81B000799496888423ED295
:103F5000FFE707989DF81B1001EB810100EBC10101
:103F6000002081F869019DF81B10079A01EB81037D
:103F700002EBC30282F8681107999DF81B2002EB3F
:103F8000820201EBC20181F86B0107999DF81B20A9
:103F900002EB820201EBC201C1F8780107999DF89A
:103FA0001B2002EB820201EBC201C1F87C010799E0
:103FB0009DF81B2002EB820201EBC201C1F88001D7
:103FC000FFE79DF81B0001308DF81B00BAE7DDF814
:103FD0001CE0CDF814E0DEF80000DEF80410DEF896
:103FE0000820DEF80C30DEF810C0DEF81440DEF8F1
:103FF0001850DEF81C60DEF82070EE46CEF8107027
:10400000CEF80C60CEF80850CEF80440CEF800C0D0
:1040100009F05EFD0799002081F82400079901202E
:1040200081F8A9020798C069012804D1FFE7079821
:10403000FEF7D0FEFFE700208DF82300FFE79DF894
:10404000230009B0F0BD000080B59CB01B9000209B
:104050001A90199018901790169002A85021FCF70A
:10406000ABF91B98006846F60001C4F200018842D3
:104070003DD1FFE74FF480700290182003904FF479
:10408000003004904FF0007005904FF00050069003
:104090004FF0807007904FF080600F9002A800F002
:1040A00007F918B1FFE7FEF757F8FFE7012003F023
:1040B000F1FA4FF4C05016900220179000200090A3
:1040C000189019900A201A904FF0904016A9FEF708
:1040D000FFFB4FF0806003F0FDFA009A142001907E
:1040E0001146FEF757FE0198FEF74AFEFFE71CB0A7
:1040F00080BD000080B582B0019001208DF80300E2
:1041000001988068022803D0FFE7FEF725F8FFE753
:104110000198D0F8F0029DF8031008F067FA0198B2
:10412000D0F8F00208F0E2F902B080BD80B582B0AC
:1041300001900198806958B1FFE74EF61051CEF218
:104140000001086820F00600086006F06FF8FFE73D
:104150000198D0F8F00208F017FA02B080BD000014
:1041600080B582B001900198D0F8F00208F01EFAF4
:1041700002B080BD80B584B002908DF80710FFE7D3
:10418000029890F8A802012804D1FFE702208DF8D8
:104190000F001AE00299012081F8A802FFE7FFE76B
:1041A0009DF80700029981F82400029800689DF8A4
:1041B00007100AF019FDFFE70299002081F8A80214
:1041C000FFE700208DF80F00FFE79DF80F0004B017
:1041D00080BD000080B582B001900199D1F8F00255
:1041E00001F52C7108F02CFA02B080BD80B582B0C8
:1041F0000090FFE7009890F8A802012804D1FFE79B
:1042000002208DF8070017E00099012081F8A8022C
:10421000FFE7FFE7009800680AF082FC009800685A
:1042200009F04AFCFFE70099002081F8A802FFE7A7
:1042300000208DF80700FFE79DF8070002B080BD61
:1042400080B582B001900198D0F8F00208F07AFAB7
:104250000198806948B1FFE74EF61051CEF2000197
:10426000086840F006000860FFE702B080BD00006B
:1042700040F20441C5F60001086840F4806008601F
:104280007047000040F20040C5F60000006800F4EE
:10429000C060704740F20041C5F60001086840F474
:1042A000807008607047000080B503F087FB80BD18
:1042B00080B588B0079000208DF817008DF81600A3
:1042C000079800784006002838D5FFE70798006B6C
:1042D0000190B8B1FFE70198B0F5800F0AD0FFE771
:1042E0000198B0F5000F15D0FFE70198B0F5400F29
:1042F0000FD010E00C21C5F60001086840F48030B2
:1043000008600CE00798043004F088FB8DF8170073
:1043100005E004E003E001208DF81700FFE79DF8B9
:10432000170028B9FFE70798006B03F089FC04E049
:104330009DF817008DF81600FFE7FFE70798407813
:104340000007002850D5FFE703F014FA0490049802
:104350000799096C884241D0FFE7FFF79BFF04985B
:1043600028B9FFE70798006C03F05CFC31E090206F
:10437000C5F6000000900068039003F0E1F903F037
:10438000A3FB0099039820F44070079A126C104325
:1043900003900398086003F09DFA012818D1FFE705
:1043A000FEF770FC0690FFE703F0A4FA01280ED098
:1043B000FFE7FEF767FC0699401A41F2893188420F
:1043C00004D3FFE703208DF8170000E0ECE7FFE7D8
:1043D000FFE79DF817008DF8160004E09DF8170020
:1043E0008DF81600FFE7FFE707980078C00728B1AF
:1043F000FFE70798806903F05BFCFFE70798007808
:104400008007002805D5FFE70798C06903F0E0FBA7
:10441000FFE707980078C006002805D5FFE7079852
:10442000806A03F0C3FBFFE7079800788006002846
:1044300005D5FFE70798C06A03F0B8FBFFE70798C8
:1044400000784007002805D5FFE70798006A03F0C9
:1044500099FBFFE7079800780007002805D5FFE7DC
:104460000798406A03F08EFBFFE707984078C00783
:1044700048B3FFE70798406B03F028FC0798406BB0
:10448000B0F1006F08D1FFE70C21C5F60001086804
:1044900040F080700860FFE70798406BB0F1806FD4
:1044A00010D1FFE70798043004F014FB8DF81700D3
:1044B0009DF8170028B1FFE79DF817008DF816004A
:1044C000FFE7FFE7FFE7079840788007002832D52D
:1044D000FFE7FFE70798806BB0F1804F0AD0FFE756
:1044E0000798806BB0F1004F04D0FFE70798806B0E
:1044F00028B9FFE70798806B03F086FB0BE007986D
:10450000806B20F080500290002003F07DFB029829
:1045100003F02AFBFFE7FFE70798806BB0F1C05F6D
:1045200008D1FFE70C21C5F60001086840F0807053
:104530000860FFE7FFE7079840784007002829D583
:10454000FFE70798C06B03F0C7FA0798C06BB0F19C
:10455000005F08D1FFE70C21C5F60001086840F4B0
:1045600080300860FFE70798C06BB0F1805F10D122
:10457000FFE70798043004F009FB8DF817009DF859
:10458000170028B1FFE79DF817008DF81600FFE728
:10459000FFE7FFE707984078C006002805D5FFE74A
:1045A0000798406C03F022FBFFE7079840788006ED
:1045B000002809D5FFE70798C06C03F05DFB07985A
:1045C000806C03F04BFBFFE79DF8160008B080BD40
:1045D00080B584B002900191029820B9FFE70120D4
:1045E0008DF80F0064E1019844F20001C5F6000166
:1045F000096801F00701884226D9FFE744F200016B
:10460000C5F60001086820F00700019A1043086011
:10461000FEF738FB0090FFE744F20000C5F600000B
:10462000006800F00700019988420CD0FFE7FEF710
:1046300029FB0099401A032804D3FFE703208DF8D3
:104640000F0035E1E8E7FFE70298007880070028CF
:1046500019D5FFE70298806803F05CFAFEF712FBB9
:104660000090FFE703F0F6F860B9FFE7FEF70AFBFA
:104670000099401A032804D3FFE703208DF80F00A8
:1046800016E1EFE7FFE7029800788006002819D5C9
:10469000FFE70298406903F03DF8FEF7F3FA009057
:1046A000FFE703F0CFF860B9FFE7FEF7EBFA0099F8
:1046B000401A032804D3FFE703208DF80F00F7E02A
:1046C000EFE7FFE7029800784006002819D5FFE7DA
:1046D0000298806903F00EFAFEF7D4FA0090FFE723
:1046E00003F0D0F860B9FFE7FEF7CCFA0099401A62
:1046F000032804D3FFE703208DF80F00D8E0EFE78D
:10470000FFE7029800784007002819D5FFE70298D4
:10471000C06803F00DFAFEF7B5FA0090FFE703F06A
:10472000A1F860B9FFE7FEF7ADFA0099401A032837
:1047300004D3FFE703208DF80F00B9E0EFE7FFE7B0
:1047400002980078000700281AD5FFE70298006950
:10475000C00003F0FBF9FEF795FA0090FFE703F0C5
:1047600089F860B9FFE7FEF78DFA0099401A03282F
:1047700004D3FFE703208DF80F0099E0EFE7FFE790
:1047800002980078C007002853D0FFE702984068DD
:10479000022809D1FFE703F013F820B9FFE7012051
:1047A0008DF80F0084E025E002984068032809D1C5
:1047B000FFE703F083F920B9FFE701208DF80F0030
:1047C00076E016E00298406848B9FFE703F010F978
:1047D00020B9FFE701208DF80F0069E008E003F041
:1047E0001DF820B9FFE701208DF80F0060E0FFE71A
:1047F000FFE7FFE70298406803F04CFAFEF742FA41
:104800000090FFE702F0BEFF02994968B0EB810F0C
:104810000ED0FFE7FEF736FA0099401A41F28931CF
:10482000884204D3FFE703208DF80F0040E0E9E75A
:10483000FFE7019844F20001C5F60001096801F0A4
:104840000701884226D2FFE744F20001C5F60001C5
:10485000086820F00700019A10430860FEF712FA7A
:104860000090FFE744F20000C5F60000006800F089
:104870000700019988420CD0FFE7FEF703FA009980
:10488000401A032804D3FFE703208DF80F000FE040
:10489000E8E7FFE700F010F840F23001C2F2000153
:1048A0000860FEF7F5F9FEF727FA8DF80F00FFE72D
:1048B0009DF80F0004B080BD80B582B000F012F802
:1048C000019002F04FFF0146019801F0F0018A08C3
:1048D00041F69071C0F601018958B0FBF1F002B0C9
:1048E00080BD000080B58AB002F04CFF06900698AB
:1048F00060B9FFE703F06AF800F0F000810842F2C7
:104900005000C0F601004058089074E00698042852
:1049100006D1FFE742F20040C0F2F400089069E0DF
:104920000698082812D1FFE702F044FF012806D1BB
:10493000FFE740F60010C0F23D00089005E041F2AC
:104940000020C0F27A000890FFE752E003F09EF8E2
:10495000099009980590012820D0FFE705980228C2
:1049600004D0FFE70598032806D018E042F2004083
:10497000C0F2F40007901EE002F01CFF012806D1EF
:10498000FFE740F60010C0F23D00079005E041F25D
:104990000020C0F27A000790FFE70CE0FFE703F089
:1049A00015F800F0F000810842F25000C0F6010056
:1049B00040580790FFE70798019003F06FF8014611
:1049C00001984843029003F059F8024602980121E9
:1049D000039101EB1211B0FBF1F0049003F066F8C3
:1049E00003990246049801EB5271B0FBF1F0089074
:1049F000FFE7FFE7FFE708980AB080BD10B58EB06B
:104A00000C900C9820B9FFE701208DF83700D9E30E
:104A10000C9800788006002840F19C80FFE702F0A7
:104A2000B1FE0A9003F032F809900A9840B1FFE70E
:104A30000A980C2852D1FFE7099801284ED1FFE7C8
:104A40000C98C06920B9FFE701208DF83700B9E361
:104A50000C98406A029002F0B9FF01460298884221
:104A600013D9FFE70C98406A04F070F920B1FFE712
:104A700001208DF83700A5E30C98406A02F0CCFFC6
:104A80000C98006A02F0BAFF12E00C98406A02F03B
:104A9000C3FF0C98006A02F0B1FF0C98406A04F062
:104AA00055F920B1FFE701208DF837008AE3FFE7D1
:104AB000FFF702FF40F23001C2F20001086040F24D
:104AC0002C10C2F200000068FEF716F920B1FFE7D3
:104AD00001208DF8370075E3FFE73AE00C98C069D4
:104AE000F8B1FFE702F062FFFEF7CCF80B90FFE7AA
:104AF00002F07EFF60B9FFE7FEF7C4F80B99401A99
:104B0000032804D3FFE703208DF837005AE3EFE7CB
:104B10000C98406A02F080FF0C98006A02F06EFF69
:104B200016E002F03BFFFEF7ADF80B90FFE702F056
:104B30005FFF60B1FFE7FEF7A5F80B99401A032865
:104B400004D3FFE703208DF837003BE3EFE7FFE7EF
:104B5000FFE7FFE70C980078C007002859D0FFE76F
:104B600002F010FE089002F091FF079008980828C4
:104B700008D0FFE708980C280DD1FFE70798032815
:104B800009D1FFE70C98406820B9FFE701208DF8B4
:104B9000370017E33CE0FFE70C984068B0F5803F32
:104BA00003D1FFE702F0FEFD02E002F0F3FDFFE7B4
:104BB000FFE70C984068A8B1FFE7FEF763F80B9099
:104BC000FFE702F0FDFD60B9FFE7FEF75BF80B9928
:104BD000401A652804D3FFE703208DF83700F1E27F
:104BE000EFE714E0FEF74EF80B90FFE702F0E8FD68
:104BF00060B1FFE7FEF746F80B99401A652804D329
:104C0000FFE703208DF83700DCE2EFE7FFE7FFE77F
:104C1000FFE70C9800788007002858D5FFE702F0DE
:104C2000B1FD069002F032FF05900698042808D0E6
:104C3000FFE706980C2812D1FFE7059802280ED14D
:104C4000FFE70C98C06820B9FFE701208DF8370016
:104C5000B8E20C98006902F0E7FDFFE736E00C9837
:104C6000C068D8B1FFE702F0D1FDFEF70BF80B905A
:104C7000FFE702F0D3FD60B9FFE7FEF703F80B99F9
:104C8000401A032804D3FFE703208DF8370099E288
:104C9000EFE70C98006902F0C7FD16E002F0AEFDE8
:104CA000FDF7F0FF0B90FFE702F0B8FD60B1FFE702
:104CB000FDF7E8FF0B99401A032804D3FFE7032010
:104CC0008DF837007EE2EFE7FFE7FFE7FFE70C989C
:104CD000006800F00800082807D0FFE70C9800786B
:104CE000C006002840F1B180FFE70C984069002819
:104CF0007DD0FFE70C980078C00600284CD5FFE770
:104D000002F01EFEB8B9FFE702F012FEFDF7BAFF8F
:104D10000B90FFE702F014FE60B9FFE7FDF7B2FF6A
:104D20000B99401A032804D3FFE703208DF83700BE
:104D300048E2EFE7FFE702F013FEFDF7A3FF0B9059
:104D4000FFE702F015FE60B9FFE7FDF79BFF0B9947
:104D5000401A042804D3FFE703208DF8370031E21E
:104D6000EFE70C98806902F00BFE02F0D9FDFDF729
:104D700089FF0B90FFE702F0E3FD60B1FFE7FDF76D
:104D800081FF0B99401A032804D3FFE703208DF815
:104D9000370017E2EFE729E002F0CAFDFDF772FFE6
:104DA0000B90FFE702F0CCFD60B9FFE7FDF76AFF6B
:104DB0000B99401A032804D3FFE703208DF837002E
:104DC00000E2EFE702F0C4FDFFE702F0D1FD60B1C1
:104DD000FFE7FDF757FF0B99401A042804D3FFE7BC
:104DE00003208DF83700EDE1EFE7FFE72CE002F05C
:104DF000AFFDFDF747FF0B90FFE702F0B9FD60B193
:104E0000FFE7FDF73FFF0B99401A042804D3FFE7A3
:104E100003208DF83700D5E1EFE702F081FDFDF7C3
:104E200031FF0B90FFE702F08BFD60B1FFE7FDF76C
:104E300029FF0B99401A032804D3FFE703208DF8BC
:104E40003700BFE1EFE7FFE7FFE70C980078400786
:104E5000002872D5FFE740F20040C5F60000006868
:104E6000C00500281CD4FFE7FFF714FAFDF70AFF7E
:104E70000B90FFE740F20040C5F600000068C00557
:104E800000280CD4FFE7FDF7FDFE0B99401A03281C
:104E900004D3FFE703208DF8370093E1EAE7FFE74B
:104EA000FFE70C988068012803D1FFE702F002FDBC
:104EB0000FE00C988068052805D1FFE702F002FD9D
:104EC00002F0F8FC04E002F0E5FC02F0EBFCFFE786
:104ED000FFE7FFE70C988068B8B1FFE7FDF7D2FE67
:104EE0000B90FFE702F0FEFC70B9FFE7FDF7CAFE8A
:104EF0000B99401A41F28931884204D3FFE703201D
:104F00008DF837005EE1EDE716E0FDF7BBFE0B9094
:104F1000FFE702F0E7FC70B1FFE7FDF7B3FE0B9986
:104F2000401A41F28931884204D3FFE703208DF80B
:104F3000370047E1EDE7FFE7FFE70C980078400610
:104F4000002833D5FFE70C98806AB8B1FFE702F07C
:104F500045FCFDF797FE0B90FFE702F047FC60B9B8
:104F6000FFE7FDF78FFE0B99401A032804D3FFE7F4
:104F700003208DF8370025E1EFE716E002F026FC6C
:104F8000FDF780FE0B90FFE702F030FC60B1FFE719
:104F9000FDF778FE0B99401A032804D3FFE703209E
:104FA0008DF837000EE1EFE7FFE7FFE70C98C06AE6
:104FB000002800F00381FFE702F0E4FB04900C20DE
:104FC000C5F60000006803900C98C06A022840F003
:104FD000C780FFE7039800F003000C99096B884233
:104FE00029D1FFE7039800F070000C99496B8842C3
:104FF00021D1FFE7039800F4FE410C98806BB0EBE1
:10500000112F18D1FFE7039800F478100C99C96BA1
:10501000884210D1FFE7039800F060600C99096C9A
:10502000884208D1FFE7039800F060400C99496C72
:1050300088426BD0FFE704980C2862D0FFE74FF05E
:10504000B04000684001002804D5FFE701208DF83A
:105050003700B7E002F002FDFDF714FE0B90FFE70A
:105060004FF0B0400068800100280CD5FFE7FDF745
:1050700009FE0B99401A032804D3FFE703208DF89B
:1050800037009FE0ECE70C21C5F6000101910868AC
:1050900048F28C02C1F2C11210400C9B1A6B5C6B7F
:1050A000D3F838E0D3F83CC0224342EA0E2242EA69
:1050B0000C02D3F840C042EA0C025B6C1A43104366
:1050C000086002F0D3FC0199086840F08050086045
:1050D000FDF7D8FD0B90FFE74FF0B040006880016E
:1050E00000280CD4FFE7FDF7CDFD0B99401A0328EB
:1050F00004D3FFE703208DF8370063E0ECE7FFE718
:1051000003E001208DF837005CE028E04FF0B0406C
:1051100000688001002821D4FFE702F0A7FC0C21E1
:10512000C5F60001086840F080500860FDF7AAFD50
:105130000B90FFE74FF0B0400068800100280CD4CE
:10514000FFE7FDF79FFD0B99401A032804D3FFE703
:1051500003208DF8370035E0ECE7FFE7FFE72CE0B0
:1051600004980C2824D0FFE702F078FCFDF78AFDB4
:105170000B90FFE74FF0B0400068800100280CD58D
:10518000FFE7FDF77FFD0B99401A032804D3FFE7E3
:1051900003208DF8370015E0ECE70C21C5F600017F
:1051A00008684FF6FC72CEF6FE621040086003E01D
:1051B00001208DF8370005E0FFE7FFE700208DF8BC
:1051C0003700FFE79DF837000EB010BD80B584B002
:1051D0000390029101920398006840684FF63F7176
:1051E000C0F2FF0108400090BDF802000299C870AB
:1051F0000098C0F3042002994870009800F03F0026
:1052000002998870BDF80000400B0299087001985F
:1052100098B9FFE70298C07803F0D4FD0299C870EE
:105220000298407803F0CEFD029948700298807889
:1052300003F0C8FD02998870FFE7002004B080BD2C
:1052400080B584B003900291019203980068806A4F
:10525000029948600398006800696FF3DF30029993
:10526000886003980068006847F67F71C0F27F018C
:10527000084000900098C0F305400299087000981B
:10528000C0F3062002994870009800F07F00029950
:105290008870009800F48000000C0299C870019892
:1052A00098B9FFE70298007803F08CFD0299087026
:1052B0000298407803F086FD029948700298807841
:1052C00003F080FD02998870FFE7002004B080BDE4
:1052D00080B584B00290029820B9FFE701208DF8D4
:1052E0000F00A9E0029890F8210040B9FFE7029969
:1052F000002081F82000029800F0A2F8FFE7029950
:10530000022081F8210042F60C00C4F2000000687F
:1053100000F010010020B0EB111F7BD1FFE7FFE789
:1053200002980168CA2048620298016853204862C6
:10533000FFE7029803F07CFD70B1FFE7FFE70298FA
:105340000168FF204862FFE70299042081F82100EC
:1053500001208DF807005CE00298016888684FF62C
:10536000BF72CFF68F7210408860029A1168506841
:105370001369926918430243886810438860029851
:105380000168C0680861029801688268086940EA9B
:105390000240086102980168C86820F08000C86077
:1053A00002980168C86C20F00300C8640298016884
:1053B0004269C0690243C86C1043C864029800681F
:1053C0008068800600281AD4FFE7029800F0FCF9F4
:1053D000A0B1FFE7FFE702980168FF204862FFE7FE
:1053E0000299042081F82100FFE70299002081F84A
:1053F0002000FFE701208DF80F001DE0FFE7FFE729
:1054000002980168FF204862FFE700208DF807003E
:10541000FFE703E000208DF80700FFE79DF8070095
:1054200028B9FFE70299012081F82100FFE79DF8E4
:1054300007008DF80F00FFE79DF80F0004B080BD56
:1054400080B596B0159001A85021FAF7B5FF1598D0
:10545000006842F60001C4F20001884215D1FFE75E
:105460004FF4006001904FF48070119001A8FEF796
:105470001FFF18B1FFE7FCF76FFEFFE702F058F9D6
:105480004FF4806002F016F9FFE716B080BD00000F
:1054900080B588B0069005910492FFE7069890F8D1
:1054A0002000012804D1FFE702208DF81F00ACE0A6
:1054B0000699012081F82000FFE7FFE70699022006
:1054C00081F82100049868B9FFE705984078C00684
:1054D000002807D5FFE70599487800F0EF000A306B
:1054E0004870FFE70498E0B9FFE70598C07803F03B
:1054F0007DFC000401900598407803F077FC01469C
:10550000019840EA012002900598807803F06EFC33
:105510000146029808440599097840EA4130039011
:105520000CE00598017843788278C078000440EA5E
:105530000320104440EA41300390FFE7FFE706985C
:105540000168CA2048620698016853204862FFE754
:10555000069803F06DFCA0B1FFE7FFE7069801682D
:10556000FF204862FFE70699042081F82100FFE749
:105570000699002081F82000FFE701208DF81F0028
:1055800043E003984FF63F71C0F2FF0108400699CF
:105590000968486006980168C86820F08000C86003
:1055A000069800688068800600281AD4FFE70698ED
:1055B00000F00AF9A0B1FFE7FFE706980168FF20B5
:1055C0004862FFE70699042081F82100FFE7069969
:1055D000002081F82000FFE701208DF81F0014E073
:1055E000FFE7FFE706980168FF204862FFE706999A
:1055F000012081F82100FFE70699002081F82000B2
:10560000FFE700208DF81F00FFE79DF81F0008B09E
:1056100080BD000080B588B0069005910492FFE738
:10562000069890F82000012804D1FFE702208DF8A9
:105630001F00C4E00699012081F82000FFE7FFE782
:105640000699022081F82100049840BBFFE70698E4
:10565000006880684006002801D5FFE703E005994F
:105660000020C870FFE70598007803F0BFFB000436
:1056700001900598407803F0B9FB0146019840EA93
:10568000012002900598807803F0B0FB0146029853
:1056900008440599C97840EA0140039018E006984B
:1056A000006880684006002801D5FFE703E00599FF
:1056B0000020C870FFE7059908784B788A78C97888
:1056C000000440EA0320104440EA01400390FFE751
:1056D000FFE706980168CA204862069801685320CF
:1056E0004862FFE7069803F0A3FBA0B1FFE7FFE7DE
:1056F00006980168FF204862FFE70699042081F8B8
:105700002100FFE70699002081F82000FFE7012033
:105710008DF81F0053E0039847F67F71C0F27F01B8
:10572000084006990968086006980168886820F4AE
:10573000802088600599C868096940EA01020698D6
:10574000016888681043886006980168C86820F07E
:105750008000C860069800688068800600281AD417
:10576000FFE7069800F030F8A0B1FFE7FFE70698E2
:105770000168FF204862FFE70699042081F82100B4
:10578000FFE70699002081F82000FFE701208DF84F
:105790001F0014E0FFE7FFE706980168FF2048625A
:1057A000FFE70699012081F82100FFE70699002014
:1057B00081F82000FFE700208DF81F00FFE79DF82B
:1057C0001F0008B080BD000080B584B00290029830
:1057D0000168C86820F0A000C860FDF753FA019086
:1057E000FFE702980068C068800600280DD4FFE734
:1057F000FDF748FA0199401AB0F57A7F04D9FFE71E
:1058000003208DF80F0004E0EBE700208DF80F0077
:10581000FFE79DF80F0004B080BD000081B000904C
:1058200001B0704780B588B007900798006840685D
:10583000069007980068806805909DF8140000F0B5
:1058400040010020B0EB911F11D1FFE70598C00780
:1058500068B1FFE79DF8180000F040010020B0EBB0
:10586000911F04D0FFE70798C16C8847F0E09DF8CE
:10587000140000F002010020B0EB510F0BD0FFE745
:105880009DF818100020B0EBD11F04D0FFE7079857
:10589000016D8847DCE09DF8140000F02001002035
:1058A000B0EB511F10D1FFE79DF8140000F040014C
:1058B0000020B0EB911F07D1FFE79DF81500C0074E
:1058C000002800F0C580FFE79DF8180000F02001D7
:1058D0000020B0EB511F00F0BB80FFE79DF81400E3
:1058E00000F040010020B0EB911F28D0FFE707989F
:1058F00090F85D00032813D0FFE70799086E40F089
:1059000004000866FFE70020049007980068C0685C
:10591000049007980068806804900498FFE70DE001
:10592000FFE70020039007980068C068039007987D
:105930000068806803900398FFE789E0FFE79DF81F
:10594000140000F020010020B0EB511F15D0FFE73C
:105950000799086E40F001000866FFE700200290FA
:10596000079800688068029007980168086820F02E
:10597000400008600298FFE7FFE79DF81500C007A8
:1059800078B1FFE70799086E40F008000866FFE766
:105990000020019007980068806801900198FFE757
:1059A000FFE70798006E002851D0FFE707980168CD
:1059B000486820F0E00048600799012081F85D0008
:1059C000069800F00200022805D0FFE79DF81800B5
:1059D000C007B8B3FFE707980168486820F00300E4
:1059E00048600798806DA0B1FFE70798816D49F680
:1059F0000130C0F6000088630798806DFCF7D2FC88
:105A000030B1FFE70799086E40F040000866FFE7F5
:105A1000FFE70798406DA0B1FFE70798416D49F691
:105A20000130C0F6000088630798406DFCF7BAFCAF
:105A300030B1FFE70799086E40F040000866FFE7C5
:105A4000FFE703E00798FFF7E9FEFFE7FFE7FFE75F
:105A500008B080BD80B584B00290029820B9FFE7FD
:105A600001208DF80F0091E00298406A60B9FFE7CD
:105A700002984068B0F5827F01D1FFE703E0029908
:105A80000020C861FFE705E0029900200861029943
:105A90004861FFE7029900208862029890F85D0053
:105AA00040B9FFE70299002081F85C00029800F0FD
:105AB00071F8FFE70299022081F85D000298016801
:105AC000086820F0400008600298C068B0F5E06FF8
:105AD00003D9FFE70020019003E04FF480500190CC
