:020000040800F2
:1000000098230020DD0100088D4B00086D41000899
:10001000894B000881060008519F0008000000007D
:10002000000000000000000000000000FD5C00086F
:100030000D09000800000000015300088D5D000854
:10004000F7010008F7010008F7010008F7010008B0
:10005000F7010008F7010008F70100081D09000872
:10006000F7010008F7010008F7010008B5070008CC
:10007000C5070008F7010008F7010008F7010008AC
:10008000F7010008F7010008F7010008F701000870
:10009000999D0008F7010008F7010008F701000822
:1000A000F7010008F7010008F7010008F701000850
:1000B000F7010008F7010008F7010008F701000840
:1000C000F7010008F7010008F7010008F701000830
:1000D000F7010008F7010008F7010008F701000820
:1000E00011090008F7010008F7010008F7010008EE
:1000F000F7010008F7010008F7010008F701000800
:10010000F7010008F7010008F7010008F7010008EF
:10011000F7010008F7010008F7010008F7010008DF
:10012000F7010008F7010008F7010008F7010008CF
:10013000F7010008F7010008D507000800F002F8F1
:1001400000F03CF80AA090E8000C82448344AAF135
:100150000107DA4501D100F031F8AFF2090EBAE833
:100160000F0013F0010F18BFFB1A43F001031847EB
:1001700020A0000040A00000103A24BF78C878C139
:10018000FAD8520724BF30C830C144BF04680C609D
:10019000704700000023002400250026103A28BFE5
:1001A00078C1FBD8520728BF30C148BF0B607047E9
:1001B0001FB509F07DFF1FBD10B510BD00F058F848
:1001C0001146FFF7F5FF09F025FF00F076F803B4BC
:1001D000FFF7F2FF03BC00F07DF8000009488047FC
:1001E00009480047FEE7FEE7FEE7FEE7FEE7FEE719
:1001F000FEE7FEE7FEE7FEE704480549054A064B31
:1002000070470000615E00083D010008981D002055
:1002100098230020981F0020981F00204FF0000214
:1002200000B5134694469646203922BFA0E80C50EC
:10023000A0E80C50B1F12001BFF4F7AF090728BFC7
:10024000A0E80C5048BF0CC05DF804EB890028BF43
:1002500040F8042B08BF704748BF20F8022B11F06C
:10026000804F18BF00F8012B7047704770477047E8
:10027000754600F02BF8AE4605006946534620F05F
:100280000700854618B020B5FFF7B6FFBDE820404F
:100290004FF000064FF000074FF000084FF0000B42
:1002A000AC46ACE8C009ACE8C009ACE8C009ACE8B1
:1002B000C00921F007018D46704710B50446AFF321
:1002C00000802046BDE81040FFF781BF004870471E
:1002D0002001002001491820ABBEFEE726000200E5
:1002E0007047000083B00290019100200090FFE76A
:1002F0000098072828DCFFE70299009A02EB4200E9
:10030000014408794B79897900F07F00000440EAC4
:1003100003200844019941F822000299009800EB5B
:10032000400008440079F02809DBFFE70199009AB2
:1003300051F82200A0F5000041F82200FFE7FFE796
:10034000009801300090D3E703B0704770B596B0C5
:100350009C4696460C4605461F981E991D991C9A68
:100360001B9A1A9B15951494ADF84EE0CDF848C031
:10037000ADF846308DF84520ADF84210ADF840009C
:10038000159841F64451C2F200010860149841F6F4
:100390008C51C2F200010860BDF84E0041F6885150
:1003A000C2F2000108809DF84500C00738B1FFE7A0
:1003B0001298BDF84610002200F0ACFF06E012983B
:1003C000BDF84610012200F0A5FFFFE7142000F061
:1003D00097FD1C98BDF8421001220C9200F09AFF84
:1003E0000C9A1E98BDF8401000F094FFC8200390AE
:1003F00000F086FD1E98BDF840100022029200F029
:1004000089FF02200D9000F07BFD0C9A1E98BDF82C
:10041000401000F07FFF0D9800F072FD029A41F647
:100420006851C2F2000100911120087041F68C5011
:10043000C2F20000006841F68851C2F2000109884A
:1004400000F068FF00990C9A41F64450C2F2000097
:10045000006803F01DFD03200E90E02100F0E0F89D
:100460006420019000F04CFD0C98F42100F0D8F8C5
:100470000D98C42100F0D4F8019800F041FD05204A
:100480000490602100F0CCF806200590502100F087
:10049000C7F807200690402100F0C2F80299082012
:1004A000079000F0BDF802990920089000F0B8F814
:1004B00002990A20099000F0B3F802990B200A90E3
:1004C00000F0AEF802990C200B9000F0A9F8039808
:1004D00000F016FD049800F06FF80146059841F20F
:1004E000CC52C2F200020F92117000F065F80F9A20
:1004F00001460698517000F05FF80F9A0146079880
:10050000917000F059F80F9A01460898D17000F0E8
:1005100053F80F9A01460998117100F04DF80F9A9F
:1005200001460A98517100F047F80F9A01460B985E
:10053000917100F041F80F9A01460C98D17100F0CA
:100540003BF80F9A01460D98117200F035F80F9A9A
:1005500001460E98517200F02FF80F99887216B06C
:1005600070BD000080B582B041F66850C2F2000054
:1005700000901221017000224270827041F68C506E
:10058000C2F20000006841F68851C2F200010988F9
:1005900000F0C0FE009941F64450C2F2000000682D
:1005A00041F64852C2F2000201921D2303F0F0FA14
:1005B000019802B080BD000080B584B08DF80F00B6
:1005C0009DF80F0040F0200141F66850C2F2000093
:1005D00001900170002242708270C27041F68C500E
:1005E000C2F20000006841F68851C2F20001098899
:1005F00000F090FE019941F64450C2F200000068FC
:1006000041F64852C2F200020292042303F0C0FAFB
:10061000642000F075FC0298807804B080BD000072
:1006200080B582B08DF807008DF806109DF80700A0
:1006300040F0400041F66851C2F20001009108709C
:1006400000224A709DF80600887041F68C50C2F274
:100650000000006841F68851C2F20001098800F0EC
:1006600059FE009941F64450C2F20000006803228E
:1006700003F00EFC642000F043FC02B080BD0000DB
:10068000FFE7FEE784B08DF80F000291ADF8062079
:100690009DF80F000146009123281DD80099DFE83E
:1006A00001F012131415161B1B1B1B1B1B1B1B1B02
:1006B0001B1B1B1B1B1B1B1B1B1B1B1B1B1B1B1B8A
:1006C0001B1B1718191A08E007E006E005E004E014
:1006D00003E002E001E000E0FFE7002004B0704723
:1006E0000020704780B582B041F2EC50C2F20000A9
:1006F000009040F6A851C2F200010022019206F0DB
:100700003FF8009840F2A851C2F2000106F01AF832
:10071000019802B080BD000080B584B003900291C2
:10072000039941F2EC50C2F20000019006F00AF881
:10073000019805F09DFF002004B080BD83B00290B9
:1007400001918DF8032000208DF802009DF9020030
:1007500003B0704780B586B00490ADF80E1000204D
:100760008DF80D0041F2EC50C2F20000D0F8BC024E
:1007700002900298D0F8140220B1FFE701208DF812
:10078000170013E00499BDF80E2041F2EC50C2F2BC
:100790000000019005F0F4FF019806F0FBF88DF8D9
:1007A0000D009DF80D008DF81700FFE79DF817006C
:1007B00006B080BD80B541F62810C2F2000000F0FE
:1007C000C7F980BD80B541F6C800C2F2000000F054
:1007D000BFF980BD80B541F6C800C2F2000000F04C
:1007E0006DF980BD82B001900198006840F2074128
:1007F000C4F2020188420BD8FFE70199486C20F04F
:10080000030040F60002C4F20202104488640AE0C9
:100810000199486C20F0030040F61C02C4F2020269
:1008200010448864FFE70198007808384CF6CD4101
:10083000CCF6CC41A0FB011000090090019940F6D4
:100840008000C4F20200C864009800F01F0101207B
:1008500088400199086502B07047000082B001909D
:100860000198406800F03F000090009940F6FC00BD
:10087000C4F2020000EB810001994865019940F63D
:100880004010C4F2020088650098013800F00301AE
:10089000012088400199C86502B0704784B0039078
:1008A0000291019200930398C16C006D4860039817
:1008B000406D28B1FFE70398816DC06D4860FFE788
:1008C0000398016C406C00F01C02012090404860CD
:1008D000009803990968486003988068102809D136
:1008E000FFE70198039909688860029803990968ED
:1008F000C86008E002980399096888600198039924
:100900000968C860FFE704B0704700007047000046
:1009100080B54FF4006000F035FB80BD80B502204B
:1009200000F030FB80BD000081B0EFF3108072B6A4
:100930000090FFE7FEE7000080B582B001900091D3
:1009400001980099002200F003F802B080BD000079
:1009500084B0039002918DF8072001208DF80600E5
:1009600000208DF8050041F2E050C2F20000407A0C
:10097000002827DCFFE741F2E053C2F200030093B6
:10098000597A0020585403995A7A03EB8202516035
:100990009DF807105A7A1A441172597A4A1C5A72F1
:1009A0008DF805109DF805103031029A1170029AE9
:1009B0003A215170029A2F2191700299C8708DF8D6
:1009C0000600FFE79DF8060004B0704780B584B0CC
:1009D00047F29050C1F6FF700068039047F29450C0
:1009E000C1F6FF700068029047F29850C1F6FF70A0
:1009F000006801900199039808440390039888B116
:100A0000FFE7039840F2E801C2F2000100910231D1
:100A1000082203F0ADFB009902981231042203F082
:100A2000A7FBFFE704B080BD83B00190009101985F
:100A300090F82500012839D1FFE7FFE7019890F8E9
:100A40002400012804D1FFE702208DF80B0031E0DB
:100A50000199012081F82400FFE7FFE70198806CED
:100A600000684FF6FF51CEF200010840009AD368AB
:100A70000021CFF6F87101EBC34C1168536841EACD
:100A80000C011943137A41EA0341527A41EA4221A7
:100A900008430199896C0860FFE70199002081F8FB
:100AA0002400FFE700208DF80B0003E001208DF803
:100AB0000B00FFE79DF80B0003B0704780B582B0D4
:100AC00001900198C06C00680199096D084218D026
:100AD000FFE70198816C086820F480700860019835
:100AE000C16C006D48600199C86B40F40070C86328
:100AF0000198406B20B1FFE70198416B8847FFE701
:100B0000FFE70198406D08B3FFE70198806D00682A
:100B10000199C96D084218D0FFE70198416D086836
:100B200020F4807008600198816DC06D4860019963
:100B3000C86B40F48060C8630198406B20B1FFE748
:100B40000198416B8847FFE7FFE7FFE702B080BDF0
:100B500080B584B003900398006C006802900398FD
:100B600000680068019002980399496C01F01C012B
:100B7000C8404007002825D5FFE79DF8040040073E
:100B800000281FD5FFE7039800680068800600284A
:100B900007D4FFE703980168086820F004000860A4
:100BA000FFE70398016C406C00F01C0204209040A9
:100BB00048600398006B20B1FFE70398016B8847FA
:100BC000FFE76EE002980399496C01F01C01C840F0
:100BD000800700282FD5FFE79DF804008007002834
:100BE00029D5FFE7039800680068800600280BD429
:100BF000FFE703980168086820F00A00086003997D
:100C0000012081F82500FFE70398016C406C00F09B
:100C10001C02022090404860FFE70399002081F801
:100C20002400FFE70398C06A20B1FFE70398C16A78
:100C30008847FFE734E002980399496C01F01C01F2
:100C4000C8400007002829D5FFE79DF804000007E9
:100C5000002823D5FFE703980168086820F00E00FC
:100C600008600398026C406C00F01C01012000FA3F
:100C700001F151600399C863039981F82500FFE7EA
:100C80000399002081F82400FFE70398406B20B10E
:100C9000FFE70398416B8847FFE700E0FFE7FFE7C6
:100CA000FFE704B080BD000080B584B002900298D8
:100CB00020B9FFE701208DF80F009EE00298006840
:100CC00040F20741C4F20201884218D8FFE70299B6
:100CD00008684FF6F872CBF6FD7210444CF6CD4220
:100CE000CCF6CC42A0FB02026FF0030000EA9200B7
:100CF000486402990020C4F20200086418E00299D6
:100D000008684FF6F832CBF6FD7210444CF6CD422F
:100D1000CCF6CC42A0FB02026FF0030000EA920086
:100D20004864029940F20040C4F202000864FFE700
:100D30000299022081F8250002980068006801905D
:100D4000019847F6F0718843019002998868D1F8BC
:100D50000CC00B694A6940EA0C00184310438A69C9
:100D60001043CA691043096A01430198084301907E
:100D700001980299096808600298FFF733FD02980C
:100D80008068B0F5804F04D1FFE7029900204860E9
:100D9000FFE702994868896C00F03F0008600298FC
:100DA000C16C006D48600298406888B1FFE7029806
:100DB000406804280CD8FFE70298FFF74FFD02981F
:100DC000416D002008600298816DC06D486007E0A9
:100DD000029900204865029988650299C865FFE775
:100DE00002990020C863029A012182F82510029915
:100DF00081F824008DF80F00FFE79DF80F0004B084
:100E000080BD000080B586B00490039102920193EA
:100E100000208DF80300FFE7049890F824000128D3
:100E200004D1FFE702208DF8170065E00499012046
:100E300081F82400FFE7FFE7049890F825000128D7
:100E40004BD1FFE70499022081F825000499002086
:100E5000C86304980168086820F0010008600498DD
:100E60000399029A019BFFF719FD0498006B38B1B2
:100E7000FFE704980168086840F00E0008600CE085
:100E800004980168086820F004000860049801686C
:100E9000086840F00A000860FFE70498806C00686A
:100EA000C003002807D5FFE70498816C086840F468
:100EB00080700860FFE70498406D38B1FFE7049840
:100EC000416D086840F480700860FFE7049801688D
:100ED000086840F00100086009E0FFE7049900207D
:100EE00081F82400FFE702208DF80300FFE79DF85A
:100EF00003008DF81700FFE79DF8170006B080BDCE
:100F000080B584B0039000F01BFA02900398019022
:100F10000198013048B1FFE740F21810C2F200001A
:100F20000178019808440190FFE7FFE700F008FA14
:100F30000299401A0199884201D2FFE7F6E704B00E
:100F400080BD000080B582B0ADF80600BDF8060097
:100F50000146009102280DD0FFE70098B0F5006F20
:100F60000DD1FFE7FFF7FEFA41F2C851C2F20001CE
:100F7000086005E01420F021FFF752FB00E0FFE7D6
:100F800002B080BD80B582B0ADF8060040F60C001E
:100F9000C5F600000068BDF8061008420CD0FFE757
:100FA000BDF8060040F60C01C5F600010860BDF86A
:100FB0000600FFF7C7FFFFE702B080BD89B00890C9
:100FC000079100200690FFE7079800680699C8403F
:100FD000002800F08881FFE707980068069A012141
:100FE0009140084005900598002800F07881FFE7BF
:100FF0000798406800F00300012807D0FFE7079832
:10100000406800F0030002282FD1FFE708988068AD
:10101000049006984100032000FA01F104988843E7
:1010200004900798C0680699490000FA01F10498F5
:1010300008430490049808998860089840680490D0
:101040000699012000FA01F104988843049007985A
:101050004068C0F30010069900FA01F104980843B3
:101060000490049808994860FFE70798406800F0EA
:101070000300032818D0FFE70898C068049006987A
:101080004100032000FA01F1049888430490079876
:1010900080680699490000FA01F104980843049019
:1010A00004980899C860FFE70798406800F00300BB
:1010B000022826D1FFE7089806996FF0030202EA9A
:1010C00051010844006A0490069800F0070081006E
:1010D0000F2000FA01F104988843049007980069F2
:1010E000069901F00701890000FA01F1049808430C
:1010F000049004980899069B02EA5302114408627E
:10110000FFE708980068049006984100032000FA61
:1011100001F10498884304900798406800F00300A8
:101120000699490000FA01F10498084304900498D4
:1011300008990860079880798007002800F0CE8021
:10114000FFE7069820F003000821C4F2010140588F
:101150000490069800F0030081000F2000FA01F1CE
:101160000498884304900898B0F1904F03D1FFE7AA
:101170000020039034E0089840F20041C4F60001DA
:10118000884203D1FFE70120029026E0089840F64C
:101190000001C4F60001884203D1FFE7022001905C
:1011A00018E0089840F60041C4F60001884203D1D7
:1011B000FFE7032000900AE0089941F20002C4F61C
:1011C00000020720914208BF04200090FFE700982A
:1011D0000190FFE701980290FFE702980390FFE774
:1011E0000398069901F00301890000FA01F10498BF
:1011F000084304900498069921F003010822C4F2E0
:101200000102885040F60000C5F600000068049016
:10121000059904988843049007988079C0060028AF
:1012200005D5FFE70599049808430490FFE7049863
:1012300040F60001C5F60001086040F60400C5F65E
:10124000000000680490059904988843049007986A
:1012500080798006002805D5FFE7059904980843A2
:101260000490FFE7049840F60401C5F60001086009
:1012700040F68000C5F600000068049005990498C7
:101280008843049007988079C00728B1FFE7059943
:10129000049808430490FFE7049840F68001C5F6DF
:1012A0000001086040F68400C5F600000068049064
:1012B000059904988843049007988079800700284E
:1012C00005D5FFE70599049808430490FFE70498C3
:1012D00040F68401C5F600010860FFE7FFE70698C5
:1012E0000130069070E609B07047000083B00290AC
:1012F000ADF80610029840690090009ABDF806000B
:1013000002EA0001904340EA01400299886103B07B
:101310007047000082B00190ADF802108DF80120F6
:101320009DF8010028B1FFE7BDF80200019988612E
:1013300004E0BDF8020001998862FFE702B070473F
:1013400041F69050C2F200000068704740F21C1055
:10135000C2F200000068704740F21810C2F20000AC
:10136000027841F69051C2F200010868104408600A
:101370007047000080B582B000208DF8070044F26D
:101380000001C5F60001086840F480700860032081
:1013900000F076F80F2000F00DF820B1FFE70120F3
:1013A0008DF8070002E000F047F8FFE79DF807001E
:1013B00002B080BD80B582B0019000208DF803009E
:1013C00040F21810C2F20000007860B3FFE701F0AD
:1013D000D1FD40F21811C2F200010A784FF47A717F
:1013E000B1FBF2F1B0FBF1F002F0B8FEB0B9FFE7EB
:1013F00001980F280DD8FFE701994FF0FF30002228
:1014000000F026F8019840F21C11C2F200010860B9
:1014100003E001208DF80300FFE703E001208DF8D1
:101420000300FFE703E001208DF80300FFE79DF8CC
:10143000030002B080BD00007047000080B582B09C
:101440008DF807009DF9070008F084FD02B080BD0B
:1014500080B586B08DF817000491039208F092FDD4
:1014600002909DF91700019002980499039A03F0E5
:101470008FFB0146019808F08DFD06B080BD00008D
:1014800080B582B00190019808F0A6FD02B080BD41
:1014900082B0019001980068009001990120C1F884
:1014A000E8020199002081F8E002009AB2F8541095
:1014B00041F00101A2F85410009AB2F8541041F022
:1014C0000201A2F8541002B07047000080B584B049
:1014D00003908DF80B109DF80B000146019120B18F
:1014E000FFE70198012815D027E00398806958B1DB
:1014F000FFE704F04FFC4EF61051CEF200010868F1
:1015000020F006000860FFE70398D0F8F00206F02C
:1015100067F912E00398D0F8F00206F03FFA03985A
:10152000806948B1FFE74EF61051CEF2000108681D
:1015300040F006000860FFE7FFE704B080BD000050
:1015400084B00390ADF80A10ADF808200193BDF8FF
:101550000A00000600280CD5FFE70398BDF80A1022
:1015600001F0070101EB810100EBC1002830009080
:101570000AE00398BDF80A1001EB810100EBC100FD
:1015800000F5B4700090FFE7BDF8080038B9FFE738
:1015900000990020087301980099C8800AE000991A
:1015A00001200873019800990881BDF80600009990
:1015B0004881FFE7002004B07047000080B582B08A
:1015C00001908DF80310019AD2F8F0029DF80310F3
:1015D00001EB810302EBC302D26B05F037FE02B0D0
:1015E00080BD000080B582B001908DF80310019A93
:1015F000D2F8F0029DF8031001EB810302EBC30265
:10160000D2F87C2105F0EAFE02B080BD80B584B03E
:1016100002908DF807109DF80700000600280FD5EE
:10162000FFE702989DF8071001F0070101EB810127
:1016300000EBC100283000900099012048700FE0B5
:1016400002989DF8071001F0070101EB810100EB02
:10165000C10000F5B4700090009900204870FFE7C9
:101660009DF8070000F0070000990870FFE7029856
:1016700090F8A802012804D1FFE702208DF80F009E
:1016800014E00299012081F8A802FFE7FFE7029821
:101690000068009907F08CF9FFE70299002081F8B3
:1016A000A802FFE700208DF80F00FFE79DF80F006C
:1016B00004B080BD80B584B002908DF807109DF80D
:1016C000070000F00F0002994968884204D9FFE73B
:1016D00001208DF80F004DE09DF80700000600285E
:1016E0000FD5FFE702989DF8071001F0070101EB05
:1016F000810100EBC1002830009000990120487062
:101700000FE002989DF8071001F0070101EB81013D
:1017100000EBC10000F5B470009000990020487003
:10172000FFE70099002088709DF8070000F007008F
:1017300000990870FFE7029890F8A802012804D1E8
:10174000FFE702208DF80F0014E00299012081F8D4
:10175000A802FFE7FFE702980068009907F018FB6E
:10176000FFE70299002081F8A802FFE700208DF82A
:101770000F00FFE79DF80F0004B080BD80B586B074
:1017800005900491ADF80E20BDF80E00400400282D
:1017900076D5FFE705980068B0F8500004990978FD
:1017A00000EBC100059909680844B0F802046FF322
:1017B0009F20ADF80C0004988069BDF80C10884299
:1017C00007D3FFE7BDF80C2004998869801A886167
:1017D00003E0049900208861FFE704988069F8B964
:1017E000FFE7FFE7059800680499097830F82100C1
:1017F0004BF68F710840ADF80A00BDF80A0080F47E
:101800000050ADF80A00BDF80A0048F28001084314
:1018100005990968049A127821F82200FFE7FFE78A
:10182000BDF80E00400600281BD5FFE7FFE7FFE7E5
:10183000059800680499097830F8210048F68F71FE
:101840000840ADF80800BDF8080048F2C0010843A0
:1018500005990968049A127821F82200FFE7FFE74A
:10186000FFE7BDF80C0050B1FFE705980068049A47
:1018700051691289BDF80C3008F0A0FAFFE775E055
:1018800005980068B0F850000499097800EBC10091
:10189000059909680844B0F806046FF39F20ADF875
:1018A0000C0004988069BDF80C10884207D3FFE74C
:1018B000BDF80C2004998869801A886103E00499B6
:1018C00000208861FFE704988069F8B9FFE7FFE727
:1018D000059800680499097830F821004BF68F715B
:1018E0000840ADF80600BDF8060080F40050ADF8E1
:1018F0000600BDF8060048F2800108430599096812
:10190000049A127821F82200FFE7FFE7BDF80E00E5
:10191000400600281BD4FFE7FFE7FFE705980068B3
:101920000499097830F8210048F68F710840ADF825
:101930000400BDF8040048F2C00108430599096895
:10194000049A127821F82200FFE7FFE7FFE7BDF8CD
:101950000C0050B1FFE705980068049A516952895C
:10196000BDF80C3008F02AFAFFE7FFE7BDF80C00DD
:1019700006B080BD80B5A6B025902491ADF88E202C
:10198000BDF88E004006002840F1BA81FFE7259897
:101990000068B0F850002499097800EBC10025993F
:1019A00009680844B0F802046FF39F20ADF8860080
:1019B00024988069BDF88610884207D9FFE7BDF8F2
:1019C000862024998869801A886103E02499002080
:1019D0008861FFE724988069002840F0B080FFE725
:1019E000FFE72498407808BBFFE7FFE725980068E9
:1019F000209025980068B0F8501020980844209056
:101A000020982499097800EBC10000F202401F9051
:101A1000FFE71F9908886FF39F2008801F990888A7
:101A200040F400400880FFE7FFE71DE0249840787D
:101A3000012818D1FFE7FFE7259800681D90259839
:101A40000068B0F850101D9808441D901D98249906
:101A5000097800EBC10000F202401C901C990020A4
:101A60000880FFE7FFE7FFE7FFE7FFE7259800684B
:101A70001B902498407808BBFFE7FFE72598006893
:101A8000199025980068B0F85010199808441990DA
:101A900019982499097800EBC10000F206401890CB
:101AA000FFE7189908886FF39F2008801899088825
:101AB00040F400400880FFE7FFE718E024984078F2
:101AC000012813D1FFE725980068B0F850101B9843
:101AD00008441B901B982499097800EBC10000F280
:101AE00006401A901A9900200880FFE7FFE7FFE7F9
:101AF000259824990978FFF761FDBDF88E00400410
:101B000000281BD5FFE7FFE7FFE725980068249929
:101B1000097830F8210048F68F710840ADF85A0076
:101B2000BDF85A004CF28001084325990968249AAF
:101B3000127821F82200FFE7FFE7FFE7DFE0BDF8BA
:101B40008E00400400281BD5FFE7FFE7FFE725983C
:101B500000682499097830F8210048F68F71084010
:101B6000ADF85800BDF858004CF2800108432599A3
:101B70000968249A127821F82200FFE7FFE7FFE7BF
:101B8000249890F82400012840F0B880FFE7BDF8C1
:101B900086202499486910444861BDF8862024991C
:101BA000C8691044C86124980169006A884209D351
:101BB000FFE7249800692290229A2499086A801AE3
:101BC000086216E02498006A40B9FFE7BDF8860075
:101BD00022902499002081F8240009E02499002013
:101BE00081F824002499096A229124990862FFE768
:101BF000FFE7FFE724984078002856D1FFE7FFE78A
:101C000025980068159025980068B0F85010159830
:101C10000844159015982499097800EBC10000F24A
:101C200002401490FFE7149908886FF39F20088002
:101C300022983F2817D3FFE7FFE722984009139027
:101C40009DF88800C00620B9FFE71398013813906B
:101C5000FFE7139A1499088840EA822040F4004074
:101C60000880FFE71EE0229830B9FFE71499088842
:101C700040F40040088014E0FFE7229840081390E9
:101C80009DF88800C00720B1FFE71398013013903A
:101C9000FFE7139A1499088840EA82200880FFE73A
:101CA000FFE7FFE7FFE7FFE71DE024984078012802
:101CB00018D1FFE7FFE72598006812902598006883
:101CC000B0F850101298084412901298249909788C
:101CD00000EBC10000F20240119022981199088097
:101CE000FFE7FFE7FFE7FFE725980068249A5169BF
:101CF0001289BDF8883008F0B3F8FFE7FFE7B6E1D6
:101D000025980068B0F850002499097800EBC100CC
:101D1000259909680844B0F806046FF39F20ADF8D0
:101D2000860024988069BDF88610884207D3FFE7B3
:101D3000BDF8862024998869801A886103E0249977
:101D400000208861FFE724988069002840F0B08077
:101D5000FFE7FFE72498407808BBFFE7FFE72598F7
:101D60000068109025980068B0F85010109808444A
:101D7000109010982499097800EBC10000F20240FD
:101D80000F90FFE70F9908886FF39F2008800F9945
:101D9000088840F400400880FFE7FFE71DE0249832
:101DA0004078012818D1FFE7FFE7259800680D90DB
:101DB00025980068B0F850100D9808440D900D98C3
:101DC0002499097800EBC10000F202400C900C99B4
:101DD00000200880FFE7FFE7FFE7FFE7FFE7259820
:101DE00000680B902498407808BBFFE7FFE7259830
:101DF0000068099025980068B0F8501009980844C8
:101E0000099009982499097800EBC10000F2064076
:101E10000890FFE7089908886FF39F2008800899C9
:101E2000088840F400400880FFE7FFE718E02498A6
:101E30004078012813D1FFE725980068B0F85010CA
:101E40000B9808440B900B982499097800EBC1007B
:101E500000F206400A900A9900200880FFE7FFE799
:101E6000FFE7259824990978FFF7A8FBBDF88E00B5
:101E7000400400281BD4FFE7FFE7FFE72598006830
:101E80002499097830F8210048F68F710840ADF8A0
:101E90001A00BDF81A004CF2800108432599096820
:101EA000249A127821F82200FFE7FFE7FFE7DDE040
:101EB000BDF88E00400400281BD4FFE7FFE7FFE7D2
:101EC000259800682499097830F8210048F68F7128
:101ED0000840ADF81800BDF818004CF28001084326
:101EE00025990968249A127821F82200FFE7FFE774
:101EF000FFE7249890F82400012840F0B680FFE71F
:101F0000BDF886202499486910444861BDF88620B0
:101F10002499C8691044C86124980169006A8842FC
:101F200009D3FFE7249800692290229A2499086A2D
:101F3000801A086216E02498006A40B9FFE7BDF8ED
:101F4000860022902499002081F8240009E024983A
:101F5000006A2290249900200862249981F82400C4
:101F6000FFE7FFE7FFE72598006805902498407891
:101F7000002856D1FFE7FFE72598006803902598D1
:101F80000068B0F85010039808440390039824990F
:101F9000097800EBC10000F206400290FFE70299C9
:101FA00008886FF39F20088022983F2817D3FFE707
:101FB000FFE72298400901909DF88800C00620B9EB
:101FC000FFE7019801380190FFE7019A029908881C
:101FD00040EA822040F400400880FFE71EE022989B
:101FE00030B9FFE70299088840F40040088014E007
:101FF000FFE72298400801909DF88800C00720B1B3
:10200000FFE7019801300190FFE7019A02990888E3
:1020100040EA82200880FFE7FFE7FFE7FFE7FFE7EE
:1020200018E024984078012813D1FFE7259800682C
:10203000B0F850100598084405900598249909783F
:1020400000EBC10000F20640049022980499088039
:10205000FFE7FFE7FFE725980068249A5169528956
:10206000BDF8883007F0FCFEFFE7FFE7FFE7FFE77A
:10207000259800682499097830F8210048F6BF7146
:102080000840ADF80200BDF8020080F01000ADF885
:102090000200BDF8020080F02000ADF80200BDF89B
:1020A000020048F28001084325990968249A1278B1
:1020B00021F82200FFE7002026B080BD82B0019009
:1020C0008DF8031001989DF8031001F0070101EB52
:1020D000810100EBC100D0F8840102B0704700001C
:1020E00080B586B004908DF80F10ADF80C208DF8F7
:1020F0000B3000208DF80A009DF80F000006002824
:102100000FD5FFE704989DF80F1001F0070101EBD0
:10211000810100EBC1002830019001990120487035
:102120000FE004989DF80F1001F0070101EB810109
:1021300000EBC10000F5B4700190019900204870D7
:10214000FFE79DF80F0000F0070001990870BDF847
:102150000C00019908619DF80B000199C8709DF869
:102160000B00022804D1FFE7019900200871FFE766
:10217000FFE7049890F8A802012804D1FFE70220A5
:102180008DF8170015E00499012081F8A802FFE7F7
:10219000FFE704980068019906F0BEF8FFE704998C
:1021A000002081F8A802FFE79DF80A008DF81700CB
:1021B000FFE79DF8170006B080BD000080B586B02F
:1021C00005908DF813100392029305989DF8131053
:1021D00001F0070101EB810100EBC10000F5B470D3
:1021E00001900398019948610298019988610199C9
:1021F00000200090C861019948709DF8130000F01C
:1022000007000199087005980068019906F0A8FE7A
:10221000009806B080BD000080B584B002908DF8B3
:1022200007109DF8070000F00700029949688842EE
:1022300004D9FFE701208DF80F004BE09DF807005F
:10224000000600280FD5FFE702989DF8071001F05F
:10225000070101EB810100EBC100283000900099DB
:10226000012048700DE002989DF8071001EB8101F4
:1022700000EBC10000F5B470009000990020487098
:10228000FFE70099012088709DF8070000F0070023
:1022900000990870FFE7029890F8A802012804D17D
:1022A000FFE702208DF80F0014E00299012081F869
:1022B000A802FFE7FFE702980068009906F00CFE0D
:1022C000FFE70299002081F8A802FFE700208DF8BF
:1022D0000F00FFE79DF80F0004B080BD80B586B009
:1022E00005908DF813100392029305989DF8131032
:1022F00001F0070101EB810100EBC10028300190E2
:102300000398019948610298019988610199012017
:1023100081F824000299019A1162019A002100912A
:10232000D161019948709DF8130000F007000199F0
:10233000087005980068019906F012FE009806B032
:1023400080BD000080B582B001900198006807F060
:102350002BFD00909DF801000006002804D5FFE742
:10236000019802F04BFCDFE09DF8010040070028D7
:1023700010D5FFE701980168B1F8440020F48060AF
:10238000A1F84400019800F013FA0198002100F030
:102390004FFAC9E09DF801004006002809D5FFE783
:1023A00001980168B1F8440020F48040A1F844008D
:1023B000BAE09DF801008006002809D5FFE70198E2
:1023C0000168B1F8440020F40050A1F84400ABE0EB
:1023D0009DF80100C00600282AD5FFE70198016892
:1023E000B1F8400020F00400A1F840000198016815
:1023F000B1F8400020F00800A1F84000019890F8E2
:10240000E002012808D1FFE70198002180F8E012DE
:102410000198FFF75BF8FFE7019800F0E5F90198F4
:102420000168B1F8440020F48050A1F844007BE03A
:102430009DF80100000700281CD5FFE701980168FE
:10244000B1F8400040F00800A1F840000198016890
:10245000B1F8440020F40060A1F84400019801683C
:10246000B1F8400040F00400A1F84000019800F0ED
:1024700045FA59E09DF800000006002834D5FFE732
:1024800001980168B1F8440020F08000A1F84400F0
:10249000019890F8E00210BBFFE701980168B1F8DD
:1024A000400040F00400A1F8400001980168B1F834
:1024B000400040F00800A1F840000198012180F898
:1024C000E01201980068B0F8540000F0F0008008B5
:1024D000019AC2F8E4020198FEF7F8FF03E00198C0
:1024E00000F00CFAFFE71FE09DF8010080070028CC
:1024F0000CD5FFE701980168B1F8440020F40070A2
:10250000A1F84400019800F089F90DE09DF8010060
:10251000C00748B1FFE701980168B1F8440020F412
:102520008070A1F84400FFE702B080BDF0B589B02B
:102530000790079820B9FFE701208DF82300DCE021
:10254000079890F8A90240B9FFE70799002081F8A1
:10255000A802079800F0D6F8FFE70799032081F852
:10256000A9020798006806F003FC00208DF81B0004
:10257000FFE79DF81B000799496888423CD2FFE7B6
:1025800007989DF81B1001EB810100EBC1010120B0
:1025900081F829009DF81B00079900EB800201EBF0
:1025A000C20181F8280007989DF81B1001EB8101FA
:1025B00000EBC101002081F82B0007999DF81B203A
:1025C00002EB820201EBC201886307999DF81B2090
:1025D00002EB820201EBC201C86307999DF81B2040
:1025E00002EB820201EBC2010864FFE79DF81B00C9
:1025F00001308DF81B00BCE700208DF81B00FFE7C1
:102600009DF81B000799496888423ED2FFE707986A
:102610009DF81B1001EB810100EBC101002081F846
:1026200069019DF81B10079A01EB810302EBC302BD
:1026300082F8681107999DF81B2002EB820201EBDA
:10264000C20181F86B0107999DF81B2002EB820201
:1026500001EBC201C1F8780107999DF81B2002EB3C
:10266000820201EBC201C1F87C0107999DF81B2091
:1026700002EB820201EBC201C1F88001FFE79DF885
:102680001B0001308DF81B00BAE7DDF81CE0CDF827
:1026900014E0DEF80000DEF80410DEF80820DEF8B2
:1026A0000C30DEF810C0DEF81440DEF81850DEF80A
:1026B0001C60DEF82070EE46CEF81070CEF80C608C
:1026C000CEF80850CEF80440CEF800C006F02CFB3F
:1026D0000799002081F824000799012081F8A902B8
:1026E0000798C069012804D1FFE70798FEF7D0FEDC
:1026F000FFE700208DF82300FFE79DF8230009B0D5
:10270000F0BD000080B59CB01B9000201A9019907D
:1027100018901790169002A85021FDF77FFD1B9886
:10272000006846F60001C4F2000188423DD1FFE78F
:102730004FF480700290182003904FF40030049002
:102740004FF0007005904FF0005006904FF08070F1
:1027500007904FF080600F9002A800F007F918B1C1
:10276000FFE7FEF7E1F8FFE7012001F06FFD4FF40E
:10277000C0501690022017900020009018901990D9
:102780000A201A904FF0904016A9FEF717FC4FF060
:10279000806001F07BFD009A142001901146FEF745
:1027A00057FE0198FEF74AFEFFE71CB080BD00000F
:1027B00080B582B0019001208DF8030001988068F7
:1027C000022803D0FFE7FEF7AFF8FFE70198D0F843
:1027D000F0029DF8031005F035F80198D0F8F002EA
:1027E00004F0B0FF02B080BD80B582B001900198C6
:1027F000806958B1FFE74EF61051CEF2000108682B
:1028000020F00600086003F0C5FAFFE70198D0F851
:10281000F00204F0E5FF02B080BD000080B582B098
:1028200001900198D0F8F00204F0ECFF02B080BDF6
:1028300080B584B002908DF80710FFE7029890F8F9
:10284000A802012804D1FFE702208DF80F001AE04A
:102850000299012081F8A802FFE7FFE79DF8070031
:10286000029981F82400029800689DF8071007F08B
:10287000E7FAFFE70299002081F8A802FFE70020AD
:102880008DF80F00FFE79DF80F0004B080BD000039
:1028900080B582B001900199D1F8F00201F52C7158
:1028A00004F0FAFF02B080BD80B582B00090FFE76F
:1028B000009890F8A802012804D1FFE702208DF8C3
:1028C000070017E00099012081F8A802FFE7FFE761
:1028D0000098006807F050FA0098006806F018FAAF
:1028E000FFE70099002081F8A802FFE700208DF89B
:1028F0000700FFE79DF8070002B080BD80B582B0F9
:1029000001900198D0F8F00205F048F8019880692C
:1029100048B1FFE74EF61051CEF20001086840F0D2
:1029200006000860FFE702B080BD000040F20441ED
:10293000C5F60001086840F4806008607047000038
:1029400040F20040C5F60000006800F4C060704727
:1029500040F20041C5F60001086840F4807008604C
:102960007047000080B501F0FDFD80BD80B588B0E6
:10297000079000208DF817008DF816000798007852
:102980004006002838D5FFE70798006B0190B8B1E2
:10299000FFE70198B0F5800F0AD0FFE70198B0F586
:1029A000000F15D0FFE70198B0F5400F0FD010E0F1
:1029B0000C21C5F60001086840F4803008600CE086
:1029C0000798043002F0B6FC8DF8170005E004E02B
:1029D00003E001208DF81700FFE79DF8170028B9E4
:1029E000FFE70798006B01F0FFFE04E09DF8170079
:1029F0008DF81600FFE7FFE70798407800070028EA
:102A000050D5FFE701F08AFC049004980799096CFF
:102A1000884241D0FFE7FFF79BFF049828B9FFE702
:102A20000798006C01F0D2FE31E09020C5F600005E
:102A300000900068039001F057FC01F019FE009926
:102A4000039820F44070079A126C10430390039887
:102A5000086001F013FD012818D1FFE7FEF770FCB4
:102A60000690FFE701F01AFD01280ED0FFE7FEF700
:102A700067FC0699401A41F28931884204D3FFE786
:102A800003208DF8170000E0ECE7FFE7FFE79DF873
:102A900017008DF8160004E09DF817008DF8160059
:102AA000FFE7FFE707980078C00728B1FFE707981E
:102AB000806901F0D1FEFFE70798007880070028C1
:102AC00005D5FFE70798C06901F056FEFFE70798B4
:102AD0000078C006002805D5FFE70798806A01F056
:102AE00039FEFFE7079800788006002805D5FFE744
:102AF0000798C06A01F02EFEFFE7079800784007AC
:102B0000002805D5FFE70798006A01F00FFEFFE7F0
:102B1000079800780007002805D5FFE70798406A66
:102B200001F004FEFFE707984078C00748B3FFE7CD
:102B30000798406B01F09EFE0798406BB0F1006F64
:102B400008D1FFE70C21C5F60001086840F080704D
:102B50000860FFE70798406BB0F1806F10D1FFE786
:102B60000798043002F042FC8DF817009DF817001A
:102B700028B1FFE79DF817008DF81600FFE7FFE783
:102B8000FFE7079840788007002832D5FFE7FFE786
:102B90000798806BB0F1804F0AD0FFE70798806BF1
:102BA000B0F1004F04D0FFE70798806B28B9FFE72A
:102BB0000798806B01F0FCFD0BE00798806B20F01C
:102BC00080500290002001F0F3FD029801F0A0FD7A
:102BD000FFE7FFE70798806BB0F1C05F08D1FFE720
:102BE0000C21C5F60001086840F080700860FFE71E
:102BF000FFE7079840784007002829D5FFE70798A6
:102C0000C06B01F03DFD0798C06BB0F1005F08D1CB
:102C1000FFE70C21C5F60001086840F48030086029
:102C2000FFE70798C06BB0F1805F10D1FFE707980E
:102C3000043002F037FC8DF817009DF8170028B11A
:102C4000FFE79DF817008DF81600FFE7FFE7FFE7A5
:102C500007984078C006002805D5FFE70798406C24
:102C600001F098FDFFE7079840788006002809D515
:102C7000FFE70798C06C01F0D3FD0798806C01F066
:102C8000C1FDFFE79DF8160008B080BD80B584B097
:102C900002900191029820B9FFE701208DF80F0002
:102CA00064E1019844F20001C5F60001096801F0F1
:102CB0000701884226D9FFE744F20001C5F600016A
:102CC000086820F00700019A10430860FEF738FBFF
:102CD0000090FFE744F20000C5F60000006800F035
:102CE0000700019988420CD0FFE7FEF729FB009905
:102CF000401A032804D3FFE703208DF80F0035E1C5
:102D0000E8E7FFE7029800788007002819D5FFE779
:102D10000298806801F0D2FCFEF712FB0090FFE7FA
:102D200001F06CFB60B9FFE7FEF70AFB0099401A5F
:102D3000032804D3FFE703208DF80F0016E1EFE727
:102D4000FFE7029800788006002819D5FFE702986F
:102D5000406901F0BBFAFEF7F3FA0090FFE701F0DB
:102D600045FB60B9FFE7FEF7EBFA0099401A03282C
:102D700004D3FFE703208DF80F00F7E0EFE7FFE74C
:102D8000029800784006002819D5FFE7029880696C
:102D900001F084FCFEF7D4FA0090FFE701F046FB57
:102DA00060B9FFE7FEF7CCFA0099401A032804D374
:102DB000FFE703208DF80F00D8E0EFE7FFE7029868
:102DC00000784007002819D5FFE70298C06801F095
:102DD00083FCFEF7B5FA0090FFE701F017FB60B93E
:102DE000FFE7FEF7ADFA0099401A032804D3FFE786
:102DF00003208DF80F00B9E0EFE7FFE702980078B5
:102E0000000700281AD5FFE702980069C00001F00A
:102E100071FCFEF795FA0090FFE701F0FFFA60B948
:102E2000FFE7FEF78DFA0099401A032804D3FFE765
:102E300003208DF80F0099E0EFE7FFE70298007894
:102E4000C007002853D0FFE702984068022809D144
:102E5000FFE701F089FA20B9FFE701208DF80F00A4
:102E600084E025E002984068032809D1FFE701F0DB
:102E7000F9FB20B9FFE701208DF80F0076E016E09E
:102E80000298406848B9FFE701F086FB20B9FFE7E8
:102E900001208DF80F0069E008E001F093FA20B9F5
:102EA000FFE701208DF80F0060E0FFE7FFE7FFE795
:102EB0000298406801F0C2FCFEF742FA0090FFE77A
:102EC00001F034FA02994968B0EB810F0ED0FFE7A8
:102ED000FEF736FA0099401A41F28931884204D34C
:102EE000FFE703208DF80F0040E0E9E7FFE70198D6
:102EF00044F20001C5F60001096801F007018842AB
:102F000026D2FFE744F20001C5F60001086820F070
:102F10000700019A10430860FEF712FA0090FFE7DD
:102F200044F20000C5F60000006800F007000199B7
:102F300088420CD0FFE7FEF703FA0099401A0328F5
:102F400004D3FFE703208DF80F000FE0E8E7FFE769
:102F500000F010F840F23001C2F200010860FEF704
:102F6000F5F9FEF727FA8DF80F00FFE79DF80F003F
:102F700004B080BD80B582B000F012F8019001F07D
:102F8000C5F90146019801F0F0018A084AF2CC0126
:102F9000C0F600018958B0FBF1F002B080BD00001E
:102FA00080B58AB001F0C2F90690069860B9FFE7D3
:102FB00001F0E0FA00F0F00081084AF20C10C0F6CF
:102FC00000004058089074E00698042806D1FFE7F6
:102FD00042F20040C0F2F400089069E00698082828
:102FE00012D1FFE701F0BAF9012806D1FFE740F658
:102FF0000010C0F23D00089005E041F20020C0F250
:103000007A000890FFE752E001F014FB099009985C
:103010000590012820D0FFE70598022804D0FFE79B
:103020000598032806D018E042F20040C0F2F400F0
:1030300007901EE001F092F9012806D1FFE740F663
:103040000010C0F23D00079005E041F20020C0F200
:103050007A000790FFE70CE0FFE701F08BFA00F041
:10306000F00081084AF20C10C0F6000040580790AA
:10307000FFE70798019001F0E5FA014601984843FF
:10308000029001F0CFFA024602980121039101EB70
:103090001211B0FBF1F0049001F0DCFA0399024642
:1030A000049801EB5271B0FBF1F00890FFE7FFE7E5
:1030B000FFE708980AB080BD10B58EB00C900C9850
:1030C00020B9FFE701208DF83700D9E30C9800788C
:1030D0008006002840F19C80FFE701F027F90A9064
:1030E00001F0A8FA09900A9840B1FFE70A980C2865
:1030F00052D1FFE7099801284ED1FFE70C98C0692B
:1031000020B9FFE701208DF83700B9E30C98406A39
:10311000029001F02FFA01460298884213D9FFE786
:103120000C98406A02F09EFA20B1FFE701208DF86A
:103130003700A5E30C98406A01F042FA0C98006A47
:1031400001F030FA12E00C98406A01F039FA0C985C
:10315000006A01F027FA0C98406A02F083FA20B165
:10316000FFE701208DF837008AE3FFE7FFF702FF52
:1031700040F23001C2F20001086040F21C10C2F2BD
:1031800000000068FEF716F920B1FFE701208DF876
:10319000370075E3FFE73AE00C98C069F8B1FFE744
:1031A00001F0D8F9FEF7CCF80B90FFE701F0F4F945
:1031B00060B9FFE7FEF7C4F80B99401A032804D35F
:1031C000FFE703208DF837005AE3EFE70C98406AD9
:1031D00001F0F6F90C98006A01F0E4F916E001F04C
:1031E000B1F9FEF7ADF80B90FFE701F0D5F960B14A
:1031F000FFE7FEF7A5F80B99401A032804D3FFE771
:1032000003208DF837003BE3EFE7FFE7FFE7FFE739
:103210000C980078C007002859D0FFE701F086F825
:10322000089001F007FA07900898082808D0FFE7EF
:1032300008980C280DD1FFE70798032809D1FFE76C
:103240000C98406820B9FFE701208DF8370017E39C
:103250003CE0FFE70C984068B0F5803F03D1FFE702
:1032600001F074F802E001F069F8FFE7FFE70C985D
:103270004068A8B1FFE7FEF763F80B90FFE701F0A5
:1032800073F860B9FFE7FEF75BF80B99401A652801
:1032900004D3FFE703208DF83700F1E2EFE714E0F5
:1032A000FEF74EF80B90FFE701F05EF860B1FFE724
:1032B000FEF746F80B99401A652804D3FFE7032070
:1032C0008DF83700DCE2EFE7FFE7FFE7FFE70C9858
:1032D00000788007002858D5FFE701F027F806900E
:1032E00001F0A8F905900698042808D0FFE7069891
:1032F0000C2812D1FFE7059802280ED1FFE70C98A1
:10330000C06820B9FFE701208DF83700B8E20C98BB
:10331000006901F05DF8FFE736E00C98C068D8B1AD
:10332000FFE701F047F8FEF70BF80B90FFE701F01D
:1033300049F860B9FFE7FEF703F80B99401A032834
:1033400004D3FFE703208DF8370099E2EFE70C98EC
:10335000006901F03DF816E001F024F8FDF7F0FFF8
:103360000B90FFE701F02EF860B1FFE7FDF7E8FFF3
:103370000B99401A032804D3FFE703208DF8370088
:103380007EE2EFE7FFE7FFE7FFE70C98006800F059
:103390000800082807D0FFE70C980078C00600282E
:1033A00040F1B180FFE70C98406900287DD0FFE72D
:1033B0000C980078C00600284CD5FFE701F094F87F
:1033C000B8B9FFE701F088F8FDF7BAFF0B90FFE707
:1033D00001F08AF860B9FFE7FDF7B2FF0B99401AD8
:1033E000032804D3FFE703208DF8370048E2EFE716
:1033F000FFE701F089F8FDF7A3FF0B90FFE701F06D
:103400008BF860B9FFE7FDF79BFF0B99401A042882
:1034100004D3FFE703208DF8370031E2EFE70C9883
:10342000806901F081F801F04FF8FDF789FF0B90FA
:10343000FFE701F059F860B1FFE7FDF781FF0B9955
:10344000401A032804D3FFE703208DF8370017E262
:10345000EFE729E001F040F8FDF772FF0B90FFE77E
:1034600001F042F860B9FFE7FDF76AFF0B99401AD7
:10347000032804D3FFE703208DF8370000E2EFE7CD
:1034800001F03AF8FFE701F047F860B1FFE7FDF718
:1034900057FF0B99401A042804D3FFE703208DF847
:1034A0003700EDE1EFE7FFE72CE001F025F8FDF74D
:1034B00047FF0B90FFE701F02FF860B1FFE7FDF742
:1034C0003FFF0B99401A042804D3FFE703208DF82F
:1034D0003700D5E1EFE700F0F7FFFDF731FF0B9084
:1034E000FFE701F001F860B1FFE7FDF729FF0B9955
:1034F000401A032804D3FFE703208DF83700BFE10B
:10350000EFE7FFE7FFE70C9800784007002872D547
:10351000FFE740F20040C5F600000068C005002843
:103520001CD4FFE7FFF714FAFDF70AFF0B90FFE743
:1035300040F20040C5F600000068C00500280CD429
:10354000FFE7FDF7FDFE0B99401A032804D3FFE7C0
:1035500003208DF8370093E1EAE7FFE7FFE70C98D7
:103560008068012803D1FFE700F078FF0FE00C9896
:103570008068052805D1FFE700F078FF00F06EFFB6
:1035800004E000F05BFF00F061FFFFE7FFE7FFE70B
:103590000C988068B8B1FFE7FDF7D2FE0B90FFE70B
:1035A00000F074FF70B9FFE7FDF7CAFE0B99401AEF
:1035B00041F28931884204D3FFE703208DF83700B8
:1035C0005EE1EDE716E0FDF7BBFE0B90FFE700F0D4
:1035D0005DFF70B1FFE7FDF7B3FE0B99401A41F2B2
:1035E0008931884204D3FFE703208DF8370047E193
:1035F000EDE7FFE7FFE70C9800784006002833D599
:10360000FFE70C98806AB8B1FFE700F0BBFEFDF75A
:1036100097FE0B90FFE700F0BDFE60B9FFE7FDF7F6
:103620008FFE0B99401A032804D3FFE703208DF87F
:10363000370025E1EFE716E000F09CFEFDF780FE85
:103640000B90FFE700F0A6FE60B1FFE7FDF778FE04
:103650000B99401A032804D3FFE703208DF83700A5
:103660000EE1EFE7FFE7FFE70C98C06A002800F0E3
:103670000381FFE700F05AFE04900C20C5F600001D
:10368000006803900C98C06A022840F0C780FFE7EA
:10369000039800F003000C99096B884229D1FFE7D9
:1036A000039800F070000C99496B884221D1FFE724
:1036B000039800F4FE410C98806BB0EB112F18D1E9
:1036C000FFE7039800F478100C99C96B884210D179
:1036D000FFE7039800F060600C99096C884208D1FC
:1036E000FFE7039800F060400C99496C88426BD06A
:1036F000FFE704980C2862D0FFE74FF0B040006865
:103700004001002804D5FFE701208DF83700B7E01D
:1037100000F078FFFDF714FE0B90FFE74FF0B0408C
:103720000068800100280CD5FFE7FDF709FE0B9922
:10373000401A032804D3FFE703208DF837009FE0E9
:10374000ECE70C21C5F600010191086848F28C02F3
:10375000C1F2C11210400C9B1A6B5C6BD3F838E0BD
:10376000D3F83CC0224342EA0E2242EA0C02D3F8CC
:1037700040C042EA0C025B6C1A431043086000F040
:1037800049FF0199086840F080500860FDF7D8FDB6
:103790000B90FFE74FF0B0400068800100280CD488
:1037A000FFE7FDF7CDFD0B99401A032804D3FFE78F
:1037B00003208DF8370063E0ECE7FFE703E001202A
:1037C0008DF837005CE028E04FF0B04000688001E1
:1037D000002821D4FFE700F01DFF0C21C5F60001F1
:1037E000086840F080500860FDF7AAFD0B90FFE7E5
:1037F0004FF0B0400068800100280CD4FFE7FDF7CF
:103800009FFD0B99401A032804D3FFE703208DF88E
:10381000370035E0ECE7FFE7FFE72CE004980C28E1
:1038200024D0FFE700F0EEFEFDF78AFD0B90FFE7E6
:103830004FF0B0400068800100280CD5FFE7FDF78D
:103840007FFD0B99401A032804D3FFE703208DF86E
:10385000370015E0ECE70C21C5F6000108684FF6CB
:10386000FC72CEF6FE621040086003E001208DF885
:10387000370005E0FFE7FFE700208DF83700FFE79E
:103880009DF837000EB010BD81B0009001B07047B8
:1038900080B584B00290029820B9FFE701208DF82E
:1038A0000F0091E00298406A60B9FFE70298406813
:1038B000B0F5827F01D1FFE703E002990020C861E3
:1038C000FFE705E002990020086102994861FFE7DF
:1038D000029900208862029890F85D0040B9FFE7E5
:1038E0000299002081F85C00029800F071F8FFE76F
:1038F0000299022081F85D0002980168086820F0B2
:10390000400008600298C068B0F5E06F03D9FFE797
:103910000020019003E04FF480500190FFE70298EF
:10392000C068B0F5706F0AD0FFE70298C068B0F5C4
:10393000E06F04D0FFE7029900208862FFE7029A57
:10394000009211685068D2F808C0136900F48270C0
:103950000CF4044C604403F002031844536903F070
:1039600001031844936903F400731844D36903F006
:1039700038031844136A03F080031844926A02F46F
:10398000005210430860029B588B00F00400196835
:10399000DA68D3F824C05B6B0CF0100C604403F0C1
:1039A0000803184402F470621044019A02F4805231
:1039B00010444860029900200866029A012182F8AA
:1039C0005D108DF80F00FFE79DF80F0004B080BD7B
:1039D00080B594B0139000201290119010900F9029
:1039E0000E901398006843F20001C4F2010188426E
:1039F0007AD1FFE74FF4805000F058FC0220079086
:103A000000F014FC079838210E910F9000200890C8
:103A1000109011900520129040F20040C4F6000072
:103A20000EA9FDF7CBFA089941F62810C2F2000062
:103A300009900822C4F202020260072242601022AA
:103A40008260C1608022026141618161C161016265
:103A5000FDF72AF918B1FFE7FCF766FFFFE7FFE77C
:103A6000139841F62811C2F200014165139888624B
:103A7000FFE741F6C800C2F2000006901C21C4F224
:103A8000020101600621416000218160C160802245
:103A9000026141618161C1610162FDF705F918B1FF
:103AA000FFE7FCF741FFFFE700200A900B908DF83D
:103AB000300001208DF831000D9041F6C800C2F2AF
:103AC00000000AA9FCF7B0FF18B1FFE7FCF72CFFD4
:103AD000FFE7FFE7139841F6C801C2F200018165D4
:103AE00013988862FFE748E01398006843F60001E6
:103AF000C4F2000188423FD1FFE74FF4804000F05C
:103B0000B5FB0420009000F091FB012000F08EFB3B
:103B1000022002900E900F900020039010901190C0
:103B20000320129040F60000C4F6000001900EA998
:103B30000591FDF743FADDF800C00198029B039A56
:103B40000599CDF838C00F93109211920522049276
:103B50001292FDF733FA029B039A049805994FF4E9
:103B6000007CCDF838C00F931092119212904FF054
:103B70009040FDF723FAFFE7FFE714B080BD000097
:103B800081B0009001B0704781B0009001B07047E3
:103B900080B588B0069005910492ADF80E300020F3
:103BA0008DF80600FFE7069890F85C00012804D124
:103BB000FFE702208DF81F0065E10699012081F8DA
:103BC0005C00FFE7FFE7069890F85D008DF80700BE
:103BD0000698406802909DF80700012812D0FFE780
:103BE0000298B0F5827F09D1FFE70698806828B96E
:103BF000FFE79DF80700042804D0FFE702208DF8B6
:103C0000060035E1059838B1FFE7049820B1FFE7D9
:103C1000BDF80E0020B9FFE701208DF8060027E16E
:103C2000069890F85D00042805D0FFE70699052066
:103C300081F85D00FFE70699002008660599069A5D
:103C40009163BDF80E10069A9187BDF80E10069A82
:103C5000D1870499069A1164BDF80E10069AA2F84D
:103C60004410BDF80E10069AA2F846100699C864D2
:103C70000699086506980168486820F4C0404860C5
:103C80000698C068B0F5E06F07D9FFE706980168AD
:103C9000486820F4805048605FE0069801684868F2
:103CA00040F4805048600698406D8069B0F5806FA0
:103CB00020D1FFE70698808FC00760B9FFE706981C
:103CC0000168486820F4804048600698C08F40082A
:103CD0000699C8870DE006980168486840F480405E
:103CE00048600698C18F012000EB51000699C887F3
:103CF000FFE7FFE70698806D8069B0F5806F2BD1F4
:103D0000FFE706980168486820F4805048600698EC
:103D1000B0F84600C00770B9FFE706980168486828
:103D200020F4005048600698B0F846004008069914
:103D3000A1F846000FE006980168486840F400507A
:103D400048600698B0F84610012000EB5100069933
:103D5000A1F84600FFE7FFE7FFE7069890F85D004F
:103D600004280FD1FFE70698816D45F21170C0F667
:103D7000000008630698816D45F25970C0F6000096
:103D8000C8620EE00698816D45F24170C0F60000F1
:103D900008630698816D45F6A100C0F60000C86270
:103DA000FFE70698816D45F2DD60C0F600004863CC
:103DB0000698816D00208863069B19681A6C986DBF
:103DC0000C31B3F84630FDF71DF860B1FFE70699F6
:103DD000086E40F01000086601208DF80600069974
:103DE00081F85D0044E006980168486840F00100F1
:103DF00048600698416D002008630699496DC862C5
:103E00000699496D48630699496D8863069B1A684F
:103E1000996B586D0C32DB8FFCF7F4FF60B1FFE754
:103E20000699086E40F01000086601208DF8060023
:103E3000069981F85D001BE006980068006800F0B4
:103E40004000402807D0FFE706980168086840F066
:103E500040000860FFE706980168486840F02000CD
:103E6000486006980168486840F002004860FFE733
:103E7000FFE70699002081F85C00FFE79DF8060047
:103E80008DF81F00FFE79DF81F0008B080BD0000FF
:103E900080B584B002900191ADF8022000208DF829
:103EA0000100FFE7029890F85C00012804D1FFE7C9
:103EB00002208DF80F00D4E00299012081F85C0007
:103EC000FFE7FFE7029890F85D00012804D0FFE7C4
:103ED00002208DF80100B9E0019820B1FFE7BDF89C
:103EE000020020B9FFE701208DF80100AEE0029941
:103EF000032081F85D000299002008660199029A6A
:103F00009163BDF80210029A9187BDF80210029ADF
:103F1000D18702990864029908650299C8640299D8
:103F2000A1F844000299A1F8460002988068B0F513
:103F3000004F0DD1FFE702980168086820F04000AB
:103F4000086002980168086840F480400860FFE754
:103F50000298416D45F22970C0F60000086302988E
:103F6000416D45F2FD70C0F60000C8620298416DD7
:103F700045F2DD60C0F6000048630298416D002004
:103F8000886302980168486820F48040486002987D
:103F9000C068B0F5E06F27D8FFE70298406D8069F0
:103FA000B0F5806F20D1FFE70298C08FC00760B9DD
:103FB000FFE702980168486820F480404860029852
:103FC000C08F40080299C8870DE0029801684868D0
:103FD00040F4804048600298C18F012000EB5100FE
:103FE0000299C887FFE7FFE7029B1A68996B586D33
:103FF0000C32DB8FFCF706FF60B1FFE70299086E19
:1040000040F01000086601208DF80100029981F847
:104010005D001BE002980068006800F04000402846
:1040200007D0FFE702980168086840F04000086088
:10403000FFE702980168486840F020004860029855
:104040000168486840F002004860FFE7FFE7029916
:10405000002081F85C00FFE79DF801008DF80F005B
:10406000FFE79DF80F0004B080BD000080B582B06E
:104070000190019841F67C41C2F20001884212D1C0
:10408000FFE740F60040C4F6000002210122009242
:10409000FDF740F9009A40F20040C4F600004021CC
:1040A000FDF738F9FFE7019841F6E041C2F200015F
:1040B000884209D1FFE740F60000C4F6000008215D
:1040C0000122FDF727F9FFE702B080BD81B0009023
:1040D00001B0704780B584B00390039841F67C41ED
:1040E000C2F20001884222D1FFE740F60040C4F648
:1040F0000000022101220192FDF70CF9019A40F221
:104100000040C4F600004021FDF704F941F2C85018
:10411000C2F20000006841F2A851C2F2000102910F
:10412000FCF7E0F802982021FCF714FBFFE7039866
:1041300041F6E041C2F20001884209D1FFE740F6B2
:104140000000C4F6000008210122FDF7E3F8FFE7B4
:1041500004B080BD81B0009001B0704780B582B0DE
:104160000190019801F0E8FD02B080BDFFE7FEE795
:1041700083B0029001918DF8032000208DF8020099
:104180008DF80200FFE79DF802009DF803108842B9
:1041900029DAFFE70298000F092809D8FFE70298FB
:1041A000000F303001999DF8022001F8120009E05B
:1041B0000299372000EB117001999DF8022001F857
:1041C0001200FFE702980001029001989DF802108A
:1041D00000EB410100204870FFE79DF8020001302C
:1041E0008DF80200CFE703B07047000082B0019065
:1041F000019A4820C5F6000001681143016000687B
:10420000019908400090009802B0704782B0019078
:10421000019A4C20C5F60000016811430160006856
:10422000019908400090009802B0704782B0019058
:10423000019A4C20C5F60000016811430160006836
:10424000019908400090009802B0704782B0019038
:10425000019A4C20C5F60000016811430160006816
:10426000019908400090009802B0704782B0019018
:10427000019A5820C5F600000168114301600068EA
:10428000019908400090009802B0704782B00190F8
:10429000019A5820C5F600000168114301600068CA
:1042A000019908400090009802B0704782B00190D8
:1042B000019A6020C5F600000168114301600068A2
:1042C000019908400090009802B0704781B00090BA
:1042D00040F20811C5F60001086820F0F000009ACD
:1042E0001043086001B070479021C5F600010868CE
:1042F00040F480300860704740F20810C5F60000B6
:10430000006800F00F000001704700000820C5F6AB
:104310000000006800F0F000704700009020C5F633
:104320000000006800F44070704700000820C5F6E7
:104330000000006800F00C00704700004FF0B04132
:10434000086820F480300860704700004FF0B041EA
:10435000086840F480300860704700004FF0B040BB
:104360000068C0F3005070474FF0B0400068C0F3E1
:10437000404070479821C5F60001086820F0010010
:10438000086070479821C5F60001086840F00100F8
:10439000086070479820C5F600000068C0F3400030
:1043A000704700004FF0B041086820F4807008604A
:1043B000704700004FF0B041086840F4807008601A
:1043C000704700004FF0B0400068C0F38020704795
:1043D00081B000900421C5F60001086820F0FE407D
:1043E000009A40EA0260086001B0704740F208108D
:1043F000C5F600000068C0F3404070470820C5F6CD
:1044000000000068C0F30040704700000820C5F6B7
:1044100000000068C0F34040704700000820C5F667
:1044200000000068C0F380407047000040F20810B0
:10443000C5F600000068C0F3004070479021C5F643
:104440000001086820F00100086070479021C5F65F
:104450000001086820F00400086070479021C5F64C
:104460000001086840F00100086070479021C5F61F
:104470000001086840F00400086070479020C5F60D
:104480000000006800F00100704700009020C5F6B1
:1044900000000068C0F34000704700009020C5F69F
:1044A00000000068C0F340007047000081B0009039
:1044B0009021C5F60001086820F01800009A10430A
:1044C000086001B0704700009421C5F6000108683B
:1044D00020F00100086070479421C5F600010868CB
:1044E00040F00100086070479420C5F600000068A5
:1044F000C0F34000704700009421C5F60001086831
:1045000020F00400086070479421C5F60001086897
:1045100040F00400086070479420C5F60000006871
:10452000C0F3C0007047000081B000909421C5F630
:104530000001086820F47060009A40EA02200860D8
:1045400001B070474FF0B041086820F001000860EA
:10455000704700004FF0B041086840F0010008606B
:10456000704700004FF0B041086840F00400086058
:104570007047000081B04FF0B040006800F0F000DC
:1045800000900098B12803D3FFE7B0200090FFE728
:10459000009801B0704700004FF0B0400068C0F3D1
:1045A0004000704781B000900421C5F60001086802
:1045B00020F47F40009A40EA0220086001B0704772
:1045C00081B000904FF0B041086820F0F000009AF0
:1045D0001043086001B070474FF0B041086820F008
:1045E00080600860704700004FF0B041086840F0FC
:1045F00080600860704700004FF0B0400068C0F372
:10460000C06070474FF0B041086820F080700860CB
:10461000704700004FF0B041086840F080700860BB
:10462000704700000C20C5F60000006800F0700024
:10463000704700000C20C5F60000006800F0030081
:10464000704700000C20C5F600000068C0F306208B
:10465000704700000C20C5F60000006800F06040C4
:10466000704700004FF0B0400068C0F340607047F2
:104670009021C5F60001086820F48030086070477A
:1046800081B000908821C5F60001086820F04050F4
:10469000009A1043086001B07047000081B000909C
:1046A00040F20811C5F60001086820F00F00009ADA
:1046B00040EA1210086001B07047000081B000901D
:1046C0000821C5F60001086820F0F000009A1043A8
:1046D000086001B07047000081B000900821C5F665
:1046E0000001086820F4E060009A1043086001B0FF
:1046F0007047000081B000900821C5F600010868ED
:1047000020F46050009A1043086001B07047000028
:1047100081B000908821C5F60001086820F0406053
:10472000009A1043086001B07047000081B000900B
:104730008821C5F600010868009A6FF47F2363EAB8
:104740001213184002F47F4240EA0210086001B0E0
:104750007047000081B000908821C5F6000108680C
:10476000009A4FF6FF7363EA0203184040EA0240E2
:10477000086001B07047000081B000908821C5F644
:104780000001086820F44060009A1043086001B0FE
:104790007047000081B000909421C5F600010868C0
:1047A00020F44040009A1043086001B070470000B8
:1047B00081B000908821C5F60001086820F04040D3
:1047C000009A1043086001B07047000081B000906B
:1047D0009021C5F60001086820F44070009A10434B
:1047E000086001B07047000081B000908821C5F6D4
:1047F0000001086820F44000009A1043086001B0EE
:104800007047000081B000902421C5F600010868BF
:1048100020F00300009A1043086001B070470000C8
:1048200081B000902421C5F60001086820F0300016
:10483000009A1043086001B07047000081B00090FA
:104840000821C5F60001086820F00300009A104313
:10485000086001B07047000081B000908821C5F663
:104860000001086820F00300009A1043086001B0BE
:104870007047000080B582B001900198FFF748FFB3
:1048800002B080BD80B584B00420FFF7AFFC0120EA
:10489000FFF7ACFC0B200090002202921146FCF7BF
:1048A000D7FD0098FCF7CAFD029A0C200190114632
:1048B000FCF7CEFD0198FCF7C1FD029A3E20039063
:1048C0001146FCF7C5FD0398FCF7B8FD04B080BDA8
:1048D00080B582B040F20410C2F2000040F2A45150
:1048E000C2F20001FCF728F820B1FFE74FF0FF30DB
:1048F000019008E040F28011C2F20001012008702E
:1049000000200190FFE7019802B080BD80B594B00F
:1049100000200D9013901290119010900F90042091
:10492000FFF774FC02200290FFF770FC0120099051
:10493000FFF76CFC0820FFF769FC0D9A40F60000B9
:10494000C4F60000079043F248410091FCF7E2FCF6
:104950000D9A40F20040C4F60000059040F6C351A5
:104960000191FCF7D7FC0D9A4FF09040049040F273
:104970001C410391FCF7CEFC0D9A40F60040C4F6B2
:1049800000000A9003210891FCF7C4FC009B0798E3
:10499000099A0D990F931092119112910FA90B91F1
:1049A000FCF70CFBDDF804C00598099B0B990D9AE8
:1049B000CDF83CC0109311921292FCF7FFFA029BC3
:1049C0000498099A0B990F934FF4041306931093CC
:1049D0001192FCF7F3FADDF80CC00498099B0B99CF
:1049E0000D9ACDF83CC0109311921292FCF7E6FAA2
:1049F00005980B990D9A4FF480530F9310921192D2
:104A0000FCF7DCFA069B0798099A0B994FF4006CA7
:104A1000CDF83CC010931192FCF7D0FADDF820C01D
:104A2000099B0A980B990D9ACDF83CC010931192EE
:104A30001292FCF7C3FA0D9A07200C901146FCF76E
:104A400007FD0C98FCF7FAFC0D9A28200E901146F1
:104A5000FCF7FEFC0E98FCF7F1FC14B080BD0000E2
:104A600080B582B041F67C40C2F20000019043F272
:104A70000001C4F2010101604FF482714160002124
:104A800081604FF4E062C2600161012242614FF433
:104A9000007282611822C261016241628162072252
:104AA000C26201634163FEF7F3FE18B1FFE7FBF753
:104AB0003BFFFFE702B080BD80B582B041F6E04029
:104AC000C2F20000019043F60001C4F2000101604F
:104AD0004FF482714160002282604FF44071C160E6
:104AE000026142614FF4007181610821C16102627B
:104AF000426282620723C36202634163FEF7C8FE1B
:104B000018B1FFE7FBF710FFFFE702B080BD000020
:104B100080B541F2EC50C2F2000040F20C01C2F24A
:104B20000001002202F020FB18B1FFE7FBF7FCFEBA
:104B3000FFE741F2EC50C2F2000040F23401C2F251
:104B4000000102F095FF18B1FFE7FBF7EDFEFFE76C
:104B500041F2EC50C2F2000040F2D001C2F200017A
:104B600001F0C6FD18B1FFE7FBF7DEFEFFE741F2FB
:104B7000EC50C2F2000003F005F918B1FFE7FBF7B3
:104B8000D3FEFFE780BD0000FFE7FEE7FFE7FEE79B
:104B900088B0079006910592079800F007000490EE
:104BA0000498C0F10700052803D3FFE70420019013
:104BB00004E00498C0F107000190FFE7019803901A
:104BC00004980430062803D8FFE70020009003E093
:104BD000049803380090FFE7009802900698039924
:104BE000012202FA01F101390840029B984005991F
:104BF0009A40013A1140084308B0704780B596B01A
:104C00001590FFE715980068B0F8440000040028EC
:104C100040F17383FFE715980068B0F84400ADF8E1
:104C20004C00BDF84C0000F00F008DF847009DF8D7
:104C30004700002840F05681FFE7BDF84C00C00651
:104C4000002845D4FFE7FFE715980068008848F67C
:104C50000F710840ADF84400BDF8440040F4004036
:104C6000159909680880FFE7159828301490159861
:104C70000068B0F8500014990A7800EBC200159A49
:104C800012681044B0F802046FF39F20C8611499B1
:104C90004869CA691044486115980021FCF78EFCE8
:104CA000159890F8240090B1FFE71498806970B9C6
:104CB000FFE7159890F8240040F0800015990968E6
:104CC000A1F84C001599002081F82400FFE708E1C5
:104CD000159800F5B4701490159800680088ADF828
:104CE0004A00BDF84A00000500282ED5FFE71598B8
:104CF0000068B0F8500014990A7800EBC200159AC9
:104D000012681044B0F806046FF39F20C86115992B
:104D1000086801F52C71149BDA889B8B05F04EF81E
:104D2000FFE715980068008840F68F710840ADF8DD
:104D30004200BDF8420040F08000159909680880E3
:104D4000FFE71598FDF7A4FDCAE0BDF84A0000048E
:104D5000002840F1C480FFE7FFE71598006800884D
:104D600040F68F710840ADF84000BDF8400040F0BB
:104D70008000159909680880FFE715980068B0F869
:104D8000500014990A7800EBC200159A126810447A
:104D9000B0F806046FF39F20C8611498C069B0B1E1
:104DA000FFE71498406990B1FFE715980068149BDD
:104DB0005969DA889B8B05F001F814994869CA692A
:104DC0001044486115980021FCF70CFCFFE715988A
:104DD00000680088ADF84A00BDF84A0000050028C8
:104DE0007CD4FFE7BDF84A0000F44050B0F5405FC6
:104DF00074D0FFE7FFE7159800680F9015980068DA
:104E0000B0F850100F9808440F900F9800F2064029
:104E10000E90FFE70E9908886FF39F200880149882
:104E200000693F2818D3FFE7FFE71498006940099D
:104E30000D901498007CC00620B9FFE70D9801384A
:104E40000D90FFE70D9A0E99088840EA822040F401
:104E500000400880FFE720E01498006930B9FFE7C0
:104E60000E99088840F40040088015E0FFE7149888
:104E7000006940080D901498007CC00720B1FFE73E
:104E80000D9801300D90FFE70D9A0E99088840EAC1
:104E900082200880FFE7FFE7FFE7FFE7FFE7FFE784
:104EA0001598006800884BF68F710840ADF8320005
:104EB000BDF8320080F48050ADF83200BDF8320009
:104EC00080F40050ADF83200BDF8320048F28001A5
:104ED0000843159909680880FFE7FFE7FFE7FFE748
:104EE000FFE708E2159800689DF8471030F82100A8
:104EF000ADF84A00BDF84A000004002840F1DE8009
:104F0000FFE7FFE7159800689DF8471030F821008B
:104F100040F68F710840ADF83000BDF8300040F029
:104F20008000159909689DF8472021F82200FFE7C5
:104F300015989DF8471001EB810100EBC10000F5C9
:104F4000B47014901498007B00BBFFE715980068BC
:104F5000B0F850001499097800EBC1001599096860
:104F60000844B0F806046FF39F20ADF84E00BDF87A
:104F70004E0050B1FFE715980068149A5169D28825
:104F8000BDF84E3004F01AFFFFE773E01498C078C4
:104F9000022809D1FFE715981499BDF84A20FCF7BB
:104FA000EDFBADF84E0064E0FFE7FFE71598006801
:104FB0001499097830F8210048F68F710840ADF84F
:104FC0002E00BDF82E0048F2C0010843159909686B
:104FD000149A127821F82200FFE7FFE7159800687D
:104FE0001499097830F821004004002820D5FFE703
:104FF00015980068B0F850001499097800EBC100CA
:10500000159909680844B0F802046FF39F20ADF8C1
:105010004E00BDF84E0050B1FFE715980068149A95
:1050200051691289BDF84E3004F0C8FEFFE71FE059
:1050300015980068B0F850001499097800EBC10089
:10504000159909680844B0F806046FF39F20ADF87D
:105050004E00BDF84E0050B1FFE715980068149A55
:1050600051695289BDF84E3004F0A8FEFFE7FFE712
:10507000FFE7FFE7BDF84E201499C8691044C861E6
:10508000BDF84E201499486910444861149880690D
:1050900038B1FFE7BDF84E0014990969884206D27D
:1050A000FFE7159814990978FCF79CFA05E0159824
:1050B0000068149903F054FFFFE7FFE7BDF84A00CA
:1050C0000006002840F11681FFE715989DF847106B
:1050D00001EB810100EBC10028301490FFE7159827
:1050E00000689DF8471030F8210048F60F7108401D
:1050F000ADF82C00BDF82C0040F40040159909686B
:105100009DF8472021F82200FFE71498C078012875
:1051100040F0A180FFE71499002088611498007B7B
:10512000002800F09280FFE7BDF84A004006002802
:1051300046D5FFE7FFE71498407808BBFFE7FFE795
:10514000159800680A9015980068B0F850100A98F1
:1051500008440A900A981499097800EBC10000F2FB
:1051600002400990FFE7099908886FF39F200880A3
:105170000999088840F400400880FFE7FFE71DE038
:1051800014984078012818D1FFE7FFE715980068C8
:10519000079015980068B0F85010079808440790D9
:1051A00007981499097800EBC10000F202400690BC
:1051B000069900200880FFE7FFE7FFE7FFE743E0ED
:1051C000FFE71598006805901498407808BBFFE742
:1051D000FFE715980068039015980068B0F8501024
:1051E00003980844039003981499097800EBC100D0
:1051F00000F206400290FFE7029908886FF39F20B3
:1052000008800299088840F400400880FFE7FFE723
:1052100018E014984078012813D1FFE7159800682A
:10522000B0F850100598084405900598149909782D
:1052300000EBC10000F206400490049900200880B1
:10524000FFE7FFE7FFE7FFE7FFE715981499097805
:10525000FCF7B4F94DE0BDF84A00C005002840D481
:10526000FFE715980068B0F850001499097800EB32
:10527000C100159909680844B0F802046FF39F2033
:10528000ADF8480014988069BDF84810884207D9E5
:10529000FFE7BDF8482014998869801A886103E007
:1052A000149900208861FFE71498806930B9FFE7FE
:1052B000159814990978FCF781F911E0BDF8482098
:1052C0001499486910444861BDF848201499C86988
:1052D0001044C86115980068149903F041FEFFE777
:1052E00006E015981499BDF84A20FCF743FBFFE748
:1052F000FFE7FFE7FFE7FFF785BC002016B080BDA2
:105300007047000080B596B002A801905021FAF7CE
:1053100085FF01984FF40051029100211491102152
:105320001591FDF723FB18B1FFE7FBF7FDFAFFE747
:1053300016B080BD80B584B0039000208DF80700C2
:10534000FFF74AF9FBF7FCFF0290FFE7FFF754F97C
:1053500060B1FFE7FBF7F4FF0299401A032804D37A
:10536000FFE703208DF8070000E0EFE79DF8070056
:10537000B8BBFFE71021C5F60001086820F4FE4025
:10538000039A126840EA02200860086820F4781046
:10539000039A526810430860FFF726F9FBF7D0FF25
:1053A0000290FFE7FFF728F901280CD0FFE7FBF791
:1053B000C7FF0299401A032804D3FFE703208DF8A2
:1053C000070000E0EEE79DF8070048B9FFE7039803
:1053D00002691021C5F60001086810430860FFE764
:1053E000FFE79DF8070004B080BD000080B584B0E1
:1053F000039000208DF80700FFF7EEF8FBF7A0FF01
:105400000290FFE7FFF7F8F860B1FFE7FBF798FFBE
:105410000299401A032804D3FFE703208DF8070000
:1054200000E0EFE79DF80700B8BBFFE71021C5F6E5
:105430000001086820F4FE40039A126840EA022046
:105440000860086820F06060039A92681043086062
:10545000FFF7CAF8FBF774FF0290FFE7FFF7CCF8FD
:1054600001280CD0FFE7FBF76BFF0299401A0328D5
:1054700004D3FFE703208DF8070000E0EEE79DF876
:10548000070048B9FFE7039802691021C5F600013B
:10549000086810430860FFE7FFE79DF8070004B0C5
:1054A00080BD000080B584B0039000208DF8070017
:1054B000FFF792F8FBF744FF0290FFE7FFF79CF835
:1054C00060B1FFE7FBF73CFF0299401A032804D3C1
:1054D000FFE703208DF8070000E0EFE79DF80700E5
:1054E000B8BBFFE71021C5F60001086820F4FE40B4
:1054F000039A126840EA02200860086820F06040C1
:10550000039AD26810430860FFF76EF8FBF718FFA4
:105510000290FFE7FFF770F801280CD0FFE7FBF7D8
:105520000FFF0299401A032804D3FFE703208DF8E8
:10553000070000E0EEE79DF8070048B9FFE7039891
:1055400002691021C5F60001086810430860FFE7F2
:10555000FFE79DF8070004B080BD000080B592B061
:1055600010900F9140200E9036200D9024200C902A
:1055700012200B9010200A900C2009900620089011
:10558000032007900220069001200590002004903F
:1055900003900F98B0F5007F1BD1FFE7002001902A
:1055A000FFE70198032813D8FFE71098019A0BA989
:1055B00051F82210884206D8FFE7019904A850F854
:1055C0002100039004E0FFE7019801300190E8E733
:1055D0001AE000200090FFE70098022813D8FFE7A8
:1055E0001098009A08A951F82210884206D8FFE7BF
:1055F000009904A850F82100039004E0FFE7009808
:1056000001300090E8E7FFE744F20001C5F6000131
:10561000086820F00700039A10430860FBF790FE2B
:105620000290FFE744F20000C5F60000006800F0B9
:105630000700039988420CD0FFE7FBF781FE02992F
:10564000401A032804D3FFE703208DF8470004E045
:10565000E8E700208DF84700FFE79DF8470012B00B
:1056600080BD000080B586B005900598B12807D3AD
:10567000FFE74AF20C10C0F60000C06A03900AE08F
:10568000059800F0F00081084AF20C10C0F6000006
:1056900040580390FFE703980190FEF72DFE024665
:1056A00001983C2101EA92024AF2CC01C0F60001C5
:1056B0008958B0FBF1F0049004984DF68361C4F270
:1056C0001B31A0FB0110800C0290FDF739F9014657
:1056D0000298FFF743FF06B080BD000080B582B09E
:1056E00001900198806A009000980168486820F055
:1056F000030048600099086E40F0100008660099A9
:10570000012081F85D000098FEF7BEF802B080BD70
:1057100080B582B001900198806A00900098FEF7F1
:1057200033FA02B080BD000080B582B001900198CC
:10573000806A00900098FEF7C9FC02B080BD0000AE
:1057400080B582B001900198806A00900098FEF7C1
:1057500001FD02B080BD000080B584B003900398C5
:10576000806A0290FBF7ECFD0190039800680068E6
:1057700000F0200020283AD0FFE70298016848682E
:1057800020F0200048600298806868B9FFE702981E
:105790004068B0F5827F07D1FFE70298016848684A
:1057A00020F00300486006E002980168486820F095
:1057B00001004860FFE70298019A642100F0B4F804
:1057C00020B1FFE7029920200866FFE70299002038
:1057D000A1F846000299012081F85D000298006E50
:1057E00020B1FFE70298FEF74FF804E0FFE70298C8
:1057F000FEF7C6F9FFE704B080BD000080B584B0B5
:1058000003900398806A0290FBF79AFD0190039839
:105810000068006800F0200020283BD0FFE70298D5
:105820000168486820F020004860029801684868D4
:1058300020F0020048600298019A642100F0D6F836
:1058400030B1FFE70299086E40F020000866FFE7DC
:105850000298806870B9FFE7FFE700200090029887
:105860000068C06800900298006880680090009806
:10587000FFE7FFE702990020C8870299012081F81D
:105880005D000298006E20B1FFE70298FDF7FCFF73
:1058900004E0FFE70298FEF7E9FBFFE704B080BDF4
:1058A00080B584B003900398806A0290FBF748FDAE
:1058B000019003980068006800F0200020282CD098
:1058C000FFE702980168486820F0200048600298CD
:1058D000019A642100F08AF830B1FFE70299086E5E
:1058E00040F020000866FFE702980168486820F051
:1058F0000300486002990020C8870299A1F8460079
:105900000299012081F85D000298006E20B1FFE746
:105910000298FDF7B9FF04E0FFE70298FEF7DAFB13
:10592000FFE704B080BD000080B586B0049003910D
:10593000029204984068B0F5827F13D1FFE7049883
:105940008068B0F5004F06D0FFE704988068B0F596
:10595000806F07D1FFE704980168086820F04000D5
:105960000860FFE70498039B02996A461160802152
:10597000002200F02DF948B1FFE70499086E40F0CD
:105980002000086603208DF817002BE0049840687B
:10599000B0F5827F22D1FFE704988068B0F5004F10
:1059A00006D0FFE704988068B0F5806F16D1FFE756
:1059B0000498039B02996A4611604FF4C06100226B
:1059C00000F060F848B1FFE70499086E40F020004D
:1059D000086603208DF8170004E0FFE700208DF82B
:1059E0001700FFE79DF8170006B080BD80B586B0B0
:1059F0000490039102920498039B02996A461160F5
:105A00004FF4C051002200F03DF848B1FFE704997F
:105A1000086E40F02000086603208DF817002CE087
:105A20000498039B02996A4611608021002200F0CD
:105A3000CFF848B1FFE70499086E40F020000866EF
:105A400003208DF8170018E00498039B02996A461A
:105A500011604FF4C061002200F014F848B1FFE774
:105A60000499086E40F02000086603208DF81700A6
:105A700003E000208DF81700FFE79DF8170006B03F
:105A800080BD000080B58CB0DDF838C00A90099167
:105A90000892079300208DF80B0007980190FBF700
:105AA0004FFC024601980E99891A08440590FBF7AD
:105AB00047FC04900A9800680C300390059840F267
:105AC0003001C2F20001096823225143090D484305
:105AD0000690FFE70A9800688068099908400899CD
