:020000040800F2
:10000000D00A0020DD010008391C0008091C000886
:10001000351C0008DD030008F12100080000000085
:100020000000000000000000000000005520000853
:10003000E1030008000000003D1C000859200008F2
:10004000F7010008F7010008F7010008F7010008B0
:10005000F7010008F7010008F7010008F7010008A0
:10006000F7010008F7010008F7010008F701000890
:10007000F7010008F7010008F7010008F701000880
:10008000F7010008F7010008F7010008F701000870
:10009000F7010008F7010008F7010008F701000860
:1000A000F7010008F7010008F7010008F701000850
:1000B000F7010008F7010008F7010008F701000840
:1000C000F7010008F7010008F7010008F701000830
:1000D000F7010008F7010008F7010008F701000820
:1000E000F7010008F7010008F7010008F701000810
:1000F000F7010008F7010008F7010008F701000800
:10010000F7010008F7010008F7010008F7010008EF
:10011000F7010008F7010008F7010008F7010008DF
:10012000F7010008F7010008F7010008F7010008CF
:10013000F7010008F7010008F701000800F002F8D5
:1001400000F03CF80AA090E8000C82448344AAF135
:100150000107DA4501D100F031F8AFF2090EBAE833
:100160000F0013F0010F18BFFB1A43F001031847EB
:100170009C230000BC230000103A24BF78C878C13B
:10018000FAD8520724BF30C830C144BF04680C609D
:10019000704700000023002400250026103A28BFE5
:1001A00078C1FBD8520728BF30C148BF0B607047E9
:1001B0001FB502F05EF91FBD10B510BD00F08AF842
:1001C0001146FFF7F5FF02F015F800F0A8F803B4A8
:1001D000FFF7F2FF03BC00F0AFF8000009488047CA
:1001E00009480047FEE7FEE7FEE7FEE7FEE7FEE719
:1001F000FEE7FEE7FEE7FEE704480549054A064B31
:10020000704700002D2100083D010008D0040020A7
:10021000D00A0020D0060020D006002010B5203AD9
:10022000C0F00B80B1E81850A0E81850B1E81850A1
:10023000A0E81850203ABFF4F5AF5FEA027C24BF73
:10024000B1E81850A0E8185044BF18C918C0BDE85C
:1002500010405FEA827C24BF51F8043B40F8043B25
:1002600008BF7047D20728BF31F8023B48BF11F8DA
:10027000012B28BF20F8023B48BF00F8012B704734
:100280004FF0000200B5134694469646203922BF2F
:10029000A0E80C50A0E80C50B1F12001BFF4F7AF7A
:1002A000090728BFA0E80C5048BF0CC05DF804EB5C
:1002B000890028BF40F8042B08BF704748BF20F8CA
:1002C000022B11F0804F18BF00F8012B70477047C8
:1002D00070477047754600F02BF8AE46050069463A
:1002E000534620F00700854618B020B5FFF784FF7D
:1002F000BDE820404FF000064FF000074FF0000827
:100300004FF0000BAC46ACE8C009ACE8C009ACE863
:10031000C009ACE8C00921F007018D46704710B54F
:100320000446AFF300802046BDE81040FFF74FBF02
:10033000004870473000002001491820ABBEFEE79E
:10034000260002007047000084B02DE9F04F81B014
:1003500040F29004C2F200040DF1280C0DF18C0B58
:1003600004F108078CE80700DDF8A4909BE8600D15
:100370000AA9384664220D93FFF750FF88F0010266
:100380002846314600F0AEF9C82000F0C9F85046C2
:100390005946012200F0A6F928984946012200F0AA
:1003A000A1F90620207038462146012201F080FB89
:1003B00001B0BDE8F04F04B0704700000B4640F2BA
:1003C000900140F04000C2F2000108700020487027
:1003D00001F1080003228B7001F06ABBFEE7000008
:1003E00070470000EFF3108072B600BFFEE7000018
:1003F00080B540F20413C2F200035A7A002A1CBFEF
:10040000012080BD93F809C08646002003F80C0047
:100410005A7A03EB8202C2F804E05A7A1A44107244
:1004200093F809C00CF101025A720CF130020A7003
:1004300042F63A72A1F80120C87080BD2DE9F04162
:1004400090F824C0BCF1010F43D04FF0010C80F8AC
:1004500024C090F825C0BCF1010F37D14FF0020C39
:1004600080F825C04FF0000CC0F83CC0D0F800C0A8
:1004700000F14C0E9EE83040DCF80060BEF1000F49
:1004800026F00106CCF8006065601CBFD0E9164577
:100490006560D0E91076012506F01C068468B54039
:1004A000D0F830807D60CCF804300B46102C04BFAF
:1004B00013460A46CCF80830CCF80C20DCF80010C3
:1004C000B8F1000F08D041F00E010DE0002180F8D6
:1004D00024100220BDE8F08121F00401CCF80010C6
:1004E000DCF8001041F00A01CCF80010806C0168C3
:1004F000C90303D5016841F480710160BEF1000FAA
:1005000005D0DEF8000040F48070CEF80000DCF882
:10051000000040F00100CCF800000020BDE8F081B0
:10052000B0B5044600F0E4F8054640F20800C2F217
:1005300000000078611C18BF044400BF00F0D8F828
:10054000401BA042FAD3B0BD2DE9F04F81B00E6838
:10055000002E00F0BB8041F2000500F13843C4F6E4
:10056000000507224FEAB327A84208BF0422042F40
:1005700038BF4FEAB322002300250024009209E08F
:100580000E68013436FA04F205F1040503F10203A2
:1005900000F09C80012202FA04FA16EA0A0EEFD05B
:1005A000D1F80480032208F00309A9F1010702FA37
:1005B00003FB012F6FEA0B0C12D8D0F808B0CA6801
:1005C0000BEA0C0B9A4042EA0B028260426822EA74
:1005D0000A0AC8F30012A24042EA0A02426005E099
:1005E000B9F1030F02D14FF0030922E0C2688F680E
:1005F00002EA0C029F403A43B9F1020FC26018D1DF
:100600006FF0030202EA54020244D2F8208005F09F
:100610001C070F26D1F810A006FA07F928EA0908E6
:100620000AFA07F747EA08071762D1F8048008F0CA
:100630000309026809FA03F702EA0C023A4318F4C4
:10064000403F02609CD040F2080824F00302C4F24C
:10065000010852F808C005F00C070F26BE402CEA2E
:10066000060C009E06FA07F747EA0C0742F80870E6
:1006700040F60008C5F60008D8F800C04F684CEAFC
:100680000E06FA0258BF2CEA0E06C8F80060D8F829
:1006900004C0BA024CEA0E0658BF2CEA0E06C8F88F
:1006A0000460D8F880C0FA034CEA0E0658BF2CEA62
:1006B0000E06C8F88060D8F88420BF0342EA0E0610
:1006C00058BF22EA0E06C8F8846059E701B0BDE8B9
:1006D000F08F0000426902EA0103914341EA0341BD
:1006E000816170471823002A08BF2823C150704732
:1006F00040F2CC40C2F200000068704740F20800AF
:10070000C2F200004068704740F2080040F2CC415D
:10071000C2F20000C2F2000100780A6810440860CA
:100720007047000080B544F20000C5F60000016883
:1007300041F480710160032000F05EF80F2000F0AA
:1007400009F800281CBF012080BD00F027F8002018
:1007500080BD000070B540F20806C2F20006317894
:10076000D1B1044600F0AEFC31784FF47A72B2FB9E
:10077000F1F1B0FBF1F001F031FA0F2C4FF001056F
:1007800008D838B94FF0FF3021460022002500F08C
:1007900007F87460284670BD012070BD70470000E6
:1007A00010B54EF60C5CCEF2000CDCF80030C3F352
:1007B000022E8EF00704042C28BF0424BEF103038C
:1007C0004FF0FF3E0EFA04F438BF0023A1439940D6
:1007D0000EFA03F39A43114300F00F0200F1604355
:1007E0000901043A03F564436244002848BF02F15A
:1007F0000C03197010BD00004EF60C51CEF2000132
:100800000A684FF6FF031A4060F30A2242F0806044
:1008100040F0FD700860704701220168C0F8E822CE
:10082000002280F8E022B1F8540040F00100A1F865
:100830005400B1F8540040F002020020A1F8542006
:1008400070470000F0B585B0002859D0054690F8F3
:10085000A90228B9002085F8A802284600F054F81B
:10086000032085F8A902286801F0A2FC696859B341
:1008700000204FF0010C0022002300BF02EB820297
:1008800005EBC20484F828300133DAB2914284F8CF
:1008900029C084F82B00C4E90E002064EED80020A3
:1008A0000023002203EB830305EBC30484F86821D3
:1008B0000132D3B2994284F8690184F86B01C4E92A
:1008C0005E00C4F88001EDD805F1080E28689EE8A6
:1008D0001C50D5E907678DE81050CDE9036701F09A
:1008E00059FC0020012185F8240085F8A912E96946
:1008F000012903D12846FFF78FFF002005B0F0BD86
:10090000012005B0F0BD000010B59AB0044668465D
:1009100018303821FFF7B4FC206846F60001C4F215
:100920000001884202D01AB010BD00BF4FF48070A1
:100930000090182001904FF4003002904FF00070AA
:1009400003904FF0005004904FF0807005904FF0EE
:1009500080600D90684600F045F8002818BFFFF74A
:1009600041FD4C24C5F60004206814A940F00100A4
:100970002060206800F00100149014984FF4C050DB
:100980001490022015900020CDE916000A2018903E
:100990004FF09040FFF7D8FDE06840F08060E060E5
:1009A000E06800F08060199019981AB010BD00003E
:1009B00040F20040C5F60000006800F4C0607047D7
:1009C00040F20040C5F60000016841F4807101600A
:1009D000704700004FF0B040016841F00401016031
:1009E000704700002DE9F04381B004460078882765
:1009F0004006C5F6000717D5206B6FF0010101EB2B
:100A0000B05102290BD34FEAB05100294CD0012933
:100A100060D157F87C1C41F4803147F87C1C396860
:100A200021F44001084338604FF000096078000766
:100A30002AD5B868216C00F440758D4224D0FFF7A8
:100A4000BFFF002D4AD0B868B96820F4407041F467
:100A50008031B960B96821F48031B960216C0843F4
:100A6000B860B868C0070FD0FFF742FE064641F2F3
:100A7000893500BFB868800706D4FFF739FE801BB0
:100A8000A842F7D34FF003092068C1072FD181078F
:100A900035D4C1063BD4810645D441074FD4010764
:100AA0005BD4C00567D4B6E04FF0B046306820F0A4
:100AB00080603060FFF71CFE054600BF3068000113
:100AC00040F12C81FFF714FE401B0228F6D94FF0AD
:100AD0000309ABE74FF00109A8E700BF206CB96834
:100AE00021F440710843B8602068C107CFD0A169E4
:100AF0003A6822F00302114339608107C9D5E169E0
:100B00003A6822F4406211433960C106C3D5A16A34
:100B10003A684FF6FF7363EA01031A4042EA014163
:100B200039608106B9D5E16A3A684FF6FF7363EA26
:100B300001031A4042EA014139604107AFD5216AF9
:100B40003A686FF47F2363EA11131A4001F47F417E
:100B500042EA011139600107A3D5616A3A686FF46E
:100B60007F2363EA11131A4001F47F4142EA011125
:100B70003960C0054FD5606B3968B0F1806F21F0E6
:100B8000406141EA000139600CD0B0F1006F42D100
:100B900057F87C0C40F0807047F87C0C2068810589
:100BA00060D53BE04FF0B045286820F080602860B9
:100BB000FFF79EFD064600BF2868000106D5FFF737
:100BC00097FD801B0228F7D923E000BF57F8780C67
:100BD000616820F4FE4040EA0120E26847F8780CA2
:100BE00057F8780C4FF0B04520F06060104347F89C
:100BF000780C286840F080602860FFF779FD064691
:100C00002868000100F1B280FFF772FD801B022806
:100C1000F6D94FF003092068810523D5A16B6FF049
:100C20004042B1F1004F0DD061B1B1F1804F0B46A0
:100C300009D03A6821F0805322F040423A606FF0C8
:100C4000406200E00B463E68B1F1C05F02EA060276
:100C500042EA03023A6005D157F87C1C41F08071EA
:100C600047F87C1C40054FD5E06B3968B0F1805FD8
:100C700021F0405141EA000139600DD0B0F1005F30
:100C800042D157F87C0C40F4803047F87C0C206847
:100C9000C10400F180803AE04FF0B045286820F0B0
:100CA00080602860FFF724FD064600BF2868000129
:100CB00006D5FFF71DFD801B0228F7D922E000BFF3
:100CC00057F8780C616820F4FE4040EA0120226960
:100CD00047F8780C57F8780C4FF0B04520F060409A
:100CE000104347F8780C286840F080602860FFF7D0
:100CF000FFFC06462868000144D4FFF7F9FC801B7E
:100D00000228F7D94FF003092068C10443D48004B6
:100D100049D4484601B0BDE8F08300BF57F8780CCD
:100D2000D4E9011220F4FE4040EA012047F8780C93
:100D300057F8780C4FF0B04820F47810104347F87B
:100D4000780CD8F8000040F08060C8F80000FFF789
:100D5000CFFC06464FF00309D8F80000000137D455
:100D6000FFF7C6FC801B0228F6D95FE6606957F8DA
:100D7000781C084347F8780C206881057FF572AF2E
:100D80004CE700BF606957F8781C084347F8780CB7
:100D90002068C104BBD5616CFA6822F4404211435B
:100DA000F9608004B5D5D4E9120157F8642C22F01B
:100DB0003002114347F8641C57F8641C21F003010A
:100DC000084347F8640C484601B0BDE8F08300BF13
:100DD00057F8781C6269206B114347F8781C1EE6AF
:100DE0002DE9F04381B0002800F0CB8044F20008E8
:100DF000C5F600080546D8F800000C4600F00700CC
:100E0000884215D2D8F8000020F007002043C8F827
:100E10000000FFF76DFC0646D8F8000000F0070060
:100E2000A04205D0FFF764FC801B0228F4D977E0CC
:100E3000286808278107C5F6000714D5A86839680F
:100E400021F0F00108433860FFF752FC064600BF6E
:100E50003868C00306D4FFF74BFC801B0228F7D983
:100E60005EE000BF2868810615D56869D7F80011D3
:100E700021F0F0010843C7F80001FFF739FC0646EE
:100E8000D7F80001800305D4FFF732FC801B02284D
:100E9000F6D945E02868410617D5A869D7F80011AA
:100EA00021F00F0141EA1010C7F80001FFF720FC04
:100EB000064600BFD7F80001C00305D4FFF718FCB1
:100EC000801B0228F6D92BE02868410713D5E86873
:100ED000396821F4E06108433860FFF709FC0646F1
:100EE0003868800306D4FFF703FC801B0228F7D97B
:100EF00016E000BF2868010717D52869396821F472
:100F0000605141EAC0003860FFF7F2FB064600BFBF
:100F10003868400308D4FFF7EBFB801B0228F7D9A1
:100F2000032001B0BDE8F0832868C0071ED1D8F8BF
:100F3000000000F00700A04228D9D8F8000020F0F7
:100F400007002043C8F80000FFF7D2FB054600BFAA
:100F5000D8F8000000F00700A04217D0FFF7C8FB48
:100F6000401B02284FF00300F2D947E068684FF0B9
:100F7000B04138B3032845D0022847D10968890316
:100F800023D4012001B0BDE8F08300BF386800F031
:100F90000C0108293ED042F200400429C0F2F400BE
:100FA00078D0002944D14FF0B040006842F2CC41E3
:100FB00000F0F000B02828BFB0208008C0F6000183
:100FC000085867E009688907DBD5396821F0030113
:100FD00008433860FFF78CFB064641F2883900BFB2
:100FE0003868696800F00C00B0EB810F9FD0FFF704
:100FF0007FFB801B48454FF00300F1D901B0BDE8ED
:10100000F08300BF09688901BBD5DEE7096849059F
:10101000B7D5DAE74FF0B0400068C00240F60010E4
:10102000C0F23D005CBF41F20020C0F27A0031E026
:10103000796801F0030102291CD04FF0B040032968
:101040000CD10068C00240F60010C0F23D005CBF49
:1010500041F20020C0F27A000CE000BF006842F2CA
:10106000CC4100F0F000B02828BFB0208008C0F6C6
:101070000001085879687A68C1F306214843C2F331
:1010800002110131B0FBF1F07968012202EB5171DC
:10109000B0FBF1F039683C2202EA910142F28C4245
:1010A000C0F600025158B0FBF1F040F21401C2F258
:1010B00000010860FFF722FB01B0BDE8F043FFF735
:1010C00049BB00000C20C5F6000050F8041C01F0DC
:1010D0000C02082A16D042F20041042AC0F2F401A0
:1010E00050D0EAB94FF0B041096842F2CC4201F069
:1010F000F001B02928BFB0218908C0F6000251587C
:1011000040E000BF4FF0B0410968C90240F600114D
:10111000C0F23D015CBF41F20021C0F27A0131E032
:10112000026802F00302022A1CD04FF0B041032AE9
:101130000CD10968C90240F60011C0F23D015CBF44
:1011400041F20021C0F27A010CE000BF096842F2CE
:10115000CC4201F0F001B02928BFB0218908C0F6C7
:101160000002515802680368C2F306225143C3F3D8
:1011700002120132B1FBF2F10268012303EB527259
:10118000B1FBF2F150F8040C3C2202EA900042F26A
:101190008C42C0F600021058B1FBF0F0704700001E
:1011A000F0B581B0002800F05B83044600789426F7
:1011B0008006C5F6000659D42078C00713D056F82B
:1011C0008C0C00F00C0156F8880C082907D00C296B
:1011D00040F0E08000F00300032840F0DB8060680E
:1011E000002800F03D83207880071CD556F88C0C31
:1011F00000F00C0156F8880C042907D00C2940F0A7
:10120000EB8000F00300022840F0E680E068002850
:1012100000F02683206956F8901C21F0FE4141EA37
:10122000006046F8900C216811F0180F00F07C81E6
:1012300062693068002A00F09B8011F0100140F0D4
:10124000B58040F001003060FFF752FA054600BF5C
:101250003068800700F12681FFF74AFA401B022818
:101260004FF00300F4D901B0F0BD00BF56F88C0C6C
:1012700010F00C0156F8880C05D00C292AD100F08A
:101280000300012826D1E069002800F0E9824FF030
:10129000B041606A0A6802F0F002B02A28BFB022AA
:1012A000904231D900F0CCFC002840F0D9824FF0B8
:1012B000B042D4E90801136823F0F0031943116028
:1012C00056F8901C21F47F4141EA002046F8900C2A
:1012D0002DE000BFE1694FF0B0473868002900F009
:1012E000958040F001003860FFF702FA054600BF24
:1012F0003868800700F1B080FFF7FAF9401B022838
:101300004FF00300F4D9AEE70A6822F0F00202437E
:101310000A60216A56F8902C22F47F4242EA0121A9
:1013200046F8901C00F08CFC002840F0998256F89A
:101330008C0C00F00C01082900F0048242F20040FD
:101340000429C0F2F40000F07082002940F0088205
:101350004FF0B040006842F2CC4100F0F000B028FD
:1013600028BFB0208008C0F6000108585DE200BF29
:1013700020F004003060FFF7BBF905463068000735
:1013800040F17C80FFF7B4F9401B03284FF00300C5
:10139000F4D968E761684FF0B0400268B1F5803F6A
:1013A00040F0908042F48031016091E080073FD4AA
:1013B000306840F001003060FFF79AF9054600BF41
:1013C0003068800734D4FFF793F9401B02284FF0B0
:1013D0000300F5D947E700BFE1684FF0B047386830
:1013E000002900F09D8140F480703860FFF780F99B
:1013F000054600BF386840053FF50CAFFFF778F9A8
:10140000401B02284FF00300F4D92CE720F0010024
:101410003860FFF76DF90546386880077FF5CCAE78
:10142000FFF766F9401B02284FF00300F4D91AE7D2
:10143000306840F004003060FFF75AF9054600BFFD
:101440003068000756D4FFF753F9401B03284FF0CC
:101450000300F5D907E700BF4FF0B042D4E9080117
:10146000136823F0F0031943116056F8901C21F41F
:101470007F4141EA002046F8900C9DE6306820F05C
:1014800001003060FFF734F9054600BF306880077F
:101490004AD5FFF72DF9401B02284FF00300F5D97C
:1014A000E1E600BF306820F00400306030680007DB
:1014B0003AD5FFF71DF9401B03284FF00300F5D97B
:1014C000D1E600BF22F480320029026000F05E8184
:1014D000FFF70EF905464FF0B04700BF38688003AC
:1014E0003FF581AEFFF704F9401B64284FF003007D
:1014F000F4D9B8E6A069316821F4706141EA0020AE
:101500003060306820F001003060FFF7F1F80546E8
:101510003068800708D5FFF7EBF8401B02284FF032
:101520000300F5D99FE600BF2078400752D4207809
:10153000400677D4E06A002800F0C68156F88C2C6B
:1015400056F8881C022802F00C0040F08180226BC3
:1015500001F00303934240F09380626B01F070034B
:10156000934240F08D80A26BC1F30623934240F07A
:101570008780E26B01F47813934240F08180226C03
:1015800001F06063934240F07B80626C01F0604147
:10159000914275D14FF0B0452868800100F19481E7
:1015A000286840F08070286056F8880C40F0805021
:1015B00046F8880CFFF79CF804462868800100F183
:1015C0008381FFF795F8001B02284FF00300F4D940
:1015D00049E600BFD6F86C03C00511D4FFF7F0F957
:1015E000FFF786F8054600BFD6F86C03C00507D4A0
:1015F000FFF77EF8401B02284FF00300F4D932E6D3
:10160000A068012807D0052868D156F8040C40F0DE
:10161000040046F8040C56F8040C40F0010046F8AB
:10162000040C69E0A16A7068002945D040F001000F
:101630007060FFF75DF80546706880073FF57AAF88
:10164000FFF756F8401B02284FF00300F4D90AE6D2
:101650000C2800F005814FF0B045286820F080701C
:101660002860FFF745F804462868800140F1B28001
:10167000FFF73EF8001B02284FF00300F4D9F2E513
:101680000C2800F0ED804FF0B0473868400100F1C1
:10169000E780386820F080703860FFF729F8054649
:1016A0003868800140F1E080FFF722F8401B0228F3
:1016B0004FF00300F4D9D6E520F001007060FFF789
:1016C00017F80546706880077FF534AFFFF710F80C
:1016D000401B02284FF00300F4D9C4E556F8041C5F
:1016E000002821F0010146F8041C56F8041C21F0E2
:1016F000040146F8041C5BD0FEF7FAFF054641F2F0
:10170000883700BF56F8040C80073FF510AFFEF78E
:10171000EFFF401BB8424FF00300F3D9A3E500BF31
:1017200020F480703860FEF7E3FF05463868400516
:101730007FF579ADFEF7DCFF401B02284FF0030078
:10174000F4D990E54FF0B0400068C00240F60010B8
:10175000C0F23D005CBF41F20020C0F27A0064E0BC
:1017600056F8881C01F0030102294BD04FF0B0401D
:1017700003293BD10068C00240F60010C0F23D00D2
:101780005CBF41F20020C0F27A003BE0FEF7B0FF00
:1017900005464FF0B047386880037FF524ADFEF76B
:1017A000A7FF401B64284FF00300F4D95BE500BF9E
:1017B000FEF79EFF054641F2883756F8040C800775
:1017C0007FF5B5AEFEF794FF401BB8424FF0030023
:1017D000F3D948E556F8880C4FF6FC71CEF6FE6159
:1017E000084046F8880C002001B0F0BD006842F2C5
:1017F000CC4100F0F000B02828BFB0208008C0F62F
:101800000001085856F8881C56F8882CC1F30621A8
:101810004843C2F302110131B0FBF1F056F8881CC5
:10182000012202EB5171B0FBF1F056F88C1C3C2206
:1018300002EA910142F28C42C0F60002515840F295
:101840001402B0FBF1F140F20C00C2F2000000689B
:10185000C2F200021160FEF77DFF00283FF4ACAC3D
:10186000012001B0F0BD00BF56F8880C48F28C0191
:10187000C1F2C11104F1300708408ECFD4E91054F1
:101880000843104340EA032038432843204346F8E6
:10189000880C4FF0B045286840F08070286056F8FA
:1018A000880C40F0805046F8880CFEF721FF044673
:1018B0002868800108D4FEF71BFF001B02284FF0A8
:1018C0000300F5D9CFE400BF002001B0F0BD000057
:1018D00070470000002804BF01207047B0B50446DF
:1018E000406A28B10020206104F1140006E000BF26
:1018F0006068B0F5827F03D004F11C000021016014
:101900000025A56294F85D0020B9204684F85C505B
:1019100000F04EF8022084F85D002068D4F80CE056
:101920000268BEF5E06F22F0400202604EF40062F1
:1019300098BF0125B2F5706F1CBF0023A3624FEA68
:10194000053CD4E90135D4E9042103F4827305F49C
:1019500004452B4402F002021A44A36901F001017C
:10196000E569114403F40072114405F03802256A58
:10197000114405F08002A56A114405F40052114398
:1019800001600421626A0EF4706501EA1341636B21
:1019900045EA0C0502F01002294303F00803114345
:1019A0001943416000200121206684F85D10B0BD1C
:1019B000F0B587B0006843F60001C4F200010026CC
:1019C0008842CDE90466CDE90266019628D043F24B
:1019D0000001C4F20101884268D14C20C5F6000024
:1019E000416941F480514161416901F4805106919E
:1019F0000699016841F002010160006800F00200F0
:101A00000690069838200190022002900020CDE92F
:101A1000030040F60000C4F60000A0F5806040E03E
:101A20004C20C5F60000C16840F6000441F4804136
:101A3000C160C168C4F6000401F4804106910699B2
:101A4000016801AD41F0040101600168022701F065
:101A5000040106910699016841F0010101600068E6
:101A6000294600F0010006900698032005902046C4
:101A7000CDE90177CDE90366FEF766FD0420CDE9E7
:101A800001070520059020462946CDE90366FEF7AB
:101A90005BFD4FF40070CDE901074FF09040CDE9B8
:101AA00003660521059101A9FEF74EFD07B0F0BDC3
:101AB00070B5044690F85C00012804BF022070BD98
:101AC000012084F85C0094F85D0001280AD1002907
:101AD0004FF0010018BF002A0AD1002184F85C10E1
:101AE00070BD00BF0220002184F85C1070BD00BFF3
:101AF0000320002384F85D002366A163A287E287A8
:101B00002364C4E91333A4F84430A4F84630A06831
:101B10002268B0F5004F07D1106820F04000106037
:101B2000106840F480401060606D41F6555E41F6EB
:101B30005D5541F63556C0F6000EC0F60005C0F6FC
:101B40000006C0E90B5EC0E90D63D4F80CC0536811
:101B5000BCF5E06F23F48043536015D88369B3F577
:101B6000806F11D1E68F5368F60705D123F48043C7
:101B70005360E38F5B0806E043F480435360E38FD8
:101B8000012606EB5303E387E38F0C32FEF756FC86
:101B900050B1206E40F010002066012084F85D00F6
:101BA000002184F85C1070BD20680168490603D4E8
:101BB000016841F040010160416841F0200141604D
:101BC000416841F0020141600020002184F85C106E
:101BD00070BD00007047000070470000411E0020EB
:101BE000B0EB116F1CBF012070474EF21002CEF215
:101BF000000251604EF62351CEF20001F0230B702B
:101C00000721906011607047FEE7000010B540F2B8
:101C1000FC04C2F2000440F21800611CC2F2000091
:101C2000FEF7E6FB002811BF4FF0FF3001202070C7
:101C3000002010BDFEE70000FEE700007047000036
:101C400070B53C2142F2CC4201EA9001C0F600029C
:101C50001144B02888BF02F12C01086840F2081135
:101C6000C5F60001096842F28C4201F00F01C0F68E
:101C7000000252F82110B0FBF1F4FEF799FEB0F526
:101C8000007F19D14EF6C020C0F22110844227D324
:101C900049F24030C0F23420844223D343F6C030AE
:101CA000C0F2473084421FD34DF23F20C0F2DF30F4
:101CB000844213D8032018E04CF6BF70C0F26A00CB
:101CC00084420DD945F64050C0F2C600844209D383
:101CD00046F23F60C0F20310844205D9002507E0B8
:101CE000002002E0012000E002200EA151F8205067
:101CF00044F20006C5F60006306820F007002843CD
:101D00003060FEF7F5FC0446306800F00700A8429A
:101D100006D0FEF7EDFC001B0328F5D3032070BDB1
:101D2000002070BD00000000010000000200000063
:101D300003000000806A01684A6822F003024A60DA
:101D4000016E41F010010166012180F85D10FFF77E
:101D5000BFBD0000806AFFF73FBF0000B0B582B092
:101D6000846A0546FEF7C4FC2968096889063FD4E1
:101D700005462068642241682B4621F0200141601D
:101D8000416821F00201416020464FF4C05100F04B
:101D900035F868B9204664212A4600F0F3F838B9CE
:101DA00020464FF4C06164222B4600F027F838B17A
:101DB000206E40F020002066206E40F0200020665B
:101DC000A06838B9002001902068C168019180683E
:101DD000019001980020E087012084F85D00206ECA
:101DE00030B1204602B0BDE8B040FFF771BD00BF82
:101DF000204602B0BDE8B040FFF7ECBE2DE9F04749
:101E000082B000261F4690460D4681468DF803603D
:101E1000FEF76EFC381A00EB0807FEF769FC40F28B
:101E20001401C2F20001096823225143090DD9F8B7
:101E3000004079430191A168294271D0824618F18E
:101E4000010037D0B5F5C06F1CD100BF207B8DF8E5
:101E500003009DF80300FEF74BFCA0EB0A00B8421C
:101E600062D2019801990028A1F101010191D9F8EC
:101E70000010896808BF074611F4C06FE6D100263C
:101E80004EE000BFFEF734FCA0EB0A00B8424BD294
:101E9000019801990028A1F101010191D9F80010E0
:101EA000896808BF07462942ECD10026304602B0B7
:101EB000BDE8F0870026B5F5C06F25D1207B8DF8F1
:101EC00003009DF80300A06810F4C06FEDD0207BE4
:101ED0008DF803009DF80300A06810F4C06FE4D0F3
:101EE000207B8DF803009DF80300A06810F4C06FFC
:101EF000DBD0207B8DF803009DF80300A06810F470
:101F0000C06FDBD10CE000BFA0682842CDD0A06834
:101F10002842CAD0A0682842C7D0A0682842F3D17E
:101F2000304602B0BDE8F087D9E900014268B1F55A
:101F3000827F22F0E00242600BD1D9F80810B1F59F
:101F4000004F02D0B1F5806F03D1016821F040014C
:101F50000160D9F82810B1F5005F07D1016821F4BC
:101F600000510160016841F400510160012089F8CD
:101F70005D00002089F85C000326304602B0BDE811
:101F8000F0870000F0B581B015460E460446FEF716
:101F9000AFFB281A8719FEF7ABFB40F21401C2F21F
:101FA00000010968C1F3CB317943009121688A6847
:101FB000120622D50546701C15D000BFFEF798FB0F
:101FC000401BB8421CD2009800990028A1F10101E1
:101FD00000912168896808BF07460806EED40CE026
:101FE0008868000609D58868000606D58868000656
:101FF00044BF88685FEA0060F2D4002001B0F0BD01
:10200000D4E900014268B1F5827F22F0E00242602B
:102010000AD1A168B1F5004F02D0B1F5806F03D1AC
:10202000016821F040010160A16AB1F5005F07D1AC
:10203000016821F400510160016841F40051016020
:10204000012084F85D00002084F85C00032001B0CA
:10205000F0BD000070470000FEF756BB10B59AB007
:102060000024CDE91144CDE90F44CDE90D44079496
:10207000CDE90544CDE90344CDE90144FEF7A0FCD8
:102080004FF6904040F20041CFF6FF70C5F60001D8
:102090000A58022363F3C4020A500868012262F35B
:1020A0004A200860086800F4C0600090009827206B
:1020B00008904FF48030CDE909024FF480700B9006
:1020C00040200C9060201190202016904FF400309A
:1020D00017904FF0005019904FF00070189008A81A
:1020E0000F921094CDE913321594FFF759F828B1E7
:1020F000EFF3108072B600BFFEE700BF6F200190C3
:102100000320CDE902048020CDE9060401A80321C3
:10211000CDE90444FEF764FE20B1EFF3108072B6FF
:10212000FEE700BFFEF756FC1AB010BD4EF6885011
:10213000CEF2000001684FF4E02241F4700101602A
:102140004FF0B04001684FF6FB6341F001010160C0
:102150009421C5F6000141F88C2C0268CFF6F623D5
:102160001A4002600A6822F005020A604A6822F0FA
:1021700001024A6041F20002C2F2042241F8882CB6
:1021800041F8842C026822F480220260002041F889
:102190007C0C704701460120A1F84000002200207D
:1021A000A1F84020A1F84420A1F850207047000079
:1021B0000146B0F8400044F27F0202400020A1F83E
:1021C0004020704740F21000C2F20000012101706F
:1021D00000787047012070470020704740F21000DF
:1021E000C2F20000012101700078704700207047A2
:1021F000FEE70000B2B0FEF795FAFFF72FFF1DAC27
:10220000201D4421FEF73CF84FF400501D90102093
:102210000026309020462F96FEF7E4FB20B1EFF326
:10222000108072B6FEE700BF4C202196C5F6000074
:10223000016840F2004441F0040101600168C4F605
:10224000000401F0040131913199016804F5806BBB
:1022500041F0020101600168002201F002013191A8
:102260003199016843F2484541F00101016001687C
:1022700001F0010131913199016841F008010160DB
:10228000006843F2484100F0080031903198584608
:10229000FEF728FA204640F6C351002240F6C35A02
:1022A000FEF720FA4FF0904040F21E41002240F22B
:1022B0001E49FEF717FA04F5006840460321002284
:1022C000FEF710FA1DAF1D95012558463946CDE998
:1022D0001E562096FEF738F920463946CDE91DA551
:1022E000CDE91F66FEF730F9CDF8749043F600098A
:1022F0004FF090403946C4F20009CDE91E562096B1
:10230000FEF722F94FF48050CDE91D0620463946EC
:102310001F96FEF719F94FF400601D904FF48810D6
:10232000CDE91E0658463946FEF70EF903201DA9D1
:1023300061C1404639462096FEF706F940F204474F
:1023400009F57840C2F200074FF4827187E8430034
:1023500007204FF4E0624FF400730825C7E90A60D4
:102360003846C7E90326C7E90563FD61C7E9086682
:10237000C7E90C65FFF7AEFA20B1EFF3108072B633
:10238000FEE700BF40F2101009F54051C2F2000014
:102390000222C0E9001500258260C0E90425C0E9D9
:1023A00006550562FEF74EFA20B1EFF3108072B6C3
:1023B000FEE700BF40F26840C2F200004FF48271B5
:1023C0004FF440724FF400730826C0E900910721D2
:1023D000C0E90252C0E90455C0E90636C0E9085513
:1023E000C0E90A51C0E90C56FFF774FA20B1EFF3C7
:1023F000108072B6FEE700BFFFF708FC20B1EFF3D4
:10240000108072B6FEE700BF4FF4805101224FF4F6
:102410008063684616930023CDE9192B1B9107F1C1
:1024200010015422CDF854B0CDE9173851F8043BCF
:10243000043A40F8043BF9D197E80F00FDF784FF18
:1024400020460121FEF746F920460221FEF742F917
:1024500014201021FDF7B2FF4FF47A70FEF760F8F8
:1024600014200021FDF7AAFF4FF47A70FEF758F808
:10247000E6E7F1EE100A4FF6FF71C0F2C03120EA34
:10248000010040F04070E1EE100A704701000000CA
:102490000300000005000000010000000100000032
:1024A000060000000A0000002000000002000000FA
:1024B00004000000080000001000000040000000C0
:1024C000800000000001000000020000A086010062
:1024D000400D0300801A060000350C0040420F003A
:1024E00080841E0000093D0000127A000024F400E0
:1024F00000366E010048E801006CDC0200000000BC
:10250000000000000000000000000000302500086E
:102510000800002028000000780100085825000865
:1025200030000020A00A0000940100080000000014
:1025300001000000100000000100000000093D0043
:10254000C5210008DD210008D9210008ED2100087F
:08255000D52100080000000085
:040000050800013DB1
:00000001FF
